:0400000002004B327D
:01000B0032C2
:0100130032BA
:01001B0032B2
:0100230032AA
:01002B0032A2
:01003300329A
:01003B003292
:030043000200BCFC
:0900A400E4F508F509F50AF50B75
:0300B900020046FC
:030046000202496A
:2000BC00C020C0E0C0F0C082C083C007C006C005C004C003C002C001C000C0D075D000126C
:2000DC000AA5D0D0D000D001D002D003D004D005D006D007D083D082D0F0D0E0D020329052
:2000FC00000022AD82AE83AFF0C007C006C0051200FBAB82AC83D005D006D0078B018C026C
:20011C00E4FBFCE508C399F9E5099AFAE50A9BFBE50B9CFCC3E99432EA9400EB9400EC9428
:20013C000040268D828E838FF01226CAFC048D828E838FF0121C847F008C828F831217552E
:20015C00E4F508F509F50AF50B2290275875F080120BCD1211F1AE82AF837D007C009004A2
:20017C00BC7410F08E828F838DF0EC120CB890276375F080020BCD90276975F080120BCD0A
:20019C007F00BF0800400302024090278675F080C007120BCDD0078F037C007D007E009033
:2001BC0004BC740AF08B828C838DF0EEC007120CB890278E75F080120BCDD0078F058D06BF
:2001DC007D00EE3395E0FCFB7521007522048D2375241F8D258D828E838CF0EBC00712123C
:2001FC00DBD0077E00BE20005036EE2400F582E43404F583E0FD7C007B007A009004BC7420
:20021C0010F08D828C838BF0EAC007C006120CB890279075F080120BCDD006D0070E80C5C6
:20023C000F02019E90278E75F080020BCD121AC490000A121AF412030F1203F21211BE1226
:20025C0015A6121A20900064121AF41200FBAE82AF83E4FDFCE508C39EFEE5099FFFE50A54
:20027C009DFDE50B9CFCC3EE9464EF9400ED9400EC94004063121747121A96E582600E90D9
:20029C0005077402F07582331215D68042121A36E58260149005077402F07582311215D683
:2002BC00758201121A1C8027121A66E58260149005077402F07582321215D6758200121A83
:2002DC001C800C9005077402F07582301215D6E4F508F509F50AF50B1216EC74042508F5A8
:1302FC0008E43509F509E4350AF50AE4350BF50B02026716
:202758004465766963652049643A000A456E640A0052656164696E6720746F20617272615C
:1A27780079206F662062797465732E2E2E000A506167653A20000A002E00EF
:08285700000000000000000079
:20030F00120B75120B9C120B8B75DD0075D30075D5002290051AE4F090051CF0227F00749C
:20032F00F925DB50067D077E008004ADDB7E008F037C00C3EB9DEC64808EF063F08095F0D4
:20034F00501CEF2413FDE43405FEEF2425F582E43404F583E0FC8D828E83F00F80C1227FC4
:20036F00008F057E00C3ED9407EE9400501CEF2425FDE43404FEEF2413F582E43405F583A2
:20038F00E0FC8D828E83F00F80D790000722900427E0FF90051DF0E020E047900513E0FC5C
:2003AF00A3E0FDA3E0FEA3E0FFBCB036BD0433BE0030BF002D75E200C2AF758900750C00F4
:2003CF00750D3890C350121AD690C350121AD6AE0CAF0DC007C0068E828F83120049D006B4
:2003EF00D007227F0090051DE060027F018F822290051CE0701890051EE0FFE060108FD570
:20040F0053D4FC90051C7401F090051EE4F022AF8290051DE060617D007E0090051CE0607B
:20042F00240DBD00010E900005C007C006C005121AD6D005D006D007C3ED9450EE94C3402C
:20044F00DA7582002290051EE0FEBE400050207D0074402EFEE43DFDEE2435F582ED34043D
:20046F00F583EFF090051EE02401F075820122C0071203FFD007809F75820022AFF0AE839A
:20048F00E582900422F0EEA3F0EFA3F090051DE07003020561900420E0FEA3E0FFC3E49E77
:2004AF0074808FF063F08095F040030205617E007F0090051CE060200EBE00010F90000538
:2004CF00C007C006121AD6D006D007C3EE9450EF94C340DE75820022900422E0FDA3E0FEAB
:2004EF00A3E0FF900420E0FBA3E0FCC3E49B74808CF063F08095F0509C90051EE0FABA40E0
:20050F000050498A017A00744029F9E43AFAE92435F9EA3404FA8D828E838FF01226CAF850
:20052F00A3AD82AE83900422EDF0EEA3F0EFA3F089828A83E8F090051EE02401F01BBBFFA6
:20054F00011C900420EBF0ECA3F0809F1203FF0204A47582002290051AE0F5822290051A94
:20056F00E07003F5822290051BE02435F582E43404F583E0FF90051BE004F090051AE01486
:20058F00F0E0700353D4F38F822275D50074FC55D44402F5D490051CE4F02230DE19900567
:1805AF001AE5DBF090051BE4F090051AE0600874F355D44408F5D42228
:0C285F0000E10000000008000000000084
:2027920012011001EF020108091250C5010101020301120009024B000201008064080B006E
:2027B200020202010409040000010202010405240010010524010000042402020524060026
:2027D200010705810308004009040100020A00000407050202400000070582024000004B85
:2027F200000403090404000C03430048003500350078000C001603430048003500350078A1
:20281200006400750069006E006F001600160343004400430020005300650072006900617A
:15283200006C0016000E0344006500710069006E0067000E0098
:0300AD00751400C7
:2005C700AFDBBF080280030209E390042CE0FE7F0090042BE0FD7C004FF50EEC4EF50F7F0C
:2005E70000900426E0F5108F14900425E0FE546060508E045304607D00BC2005BD000280D1
:200607000BBC4039BD00367FFF0209E57420B510030209E57421B5100280077422B5101890
:20062700800C12036EAC82AD838C070209E5C00712039DD0070209E57FFF0209E57FFF0295
:2006470009E5E51024F450030209DFE510240B83F582E510241083F583E473C1FDDFB7DF8F
:20066700CC7ADFD9F4E5E5090709080907060907070909900428E0FDBD0102800DBD0202B0
:20068700801DBD0302802D02075A7512927513279027A4E493FC740193FD8C0702075C75DC
:2006A70012A67513279027F1E493FC740193FD8C0702075C900427E070157512F37513276B
:2006C7009027F7E493FC740193FD8C0702075C900427E0FDBD011475123775132890284520
:2006E700E493FC740193FD8C07806A900427E0FDBD021475120775132890281DE493FC7499
:200707000193FD8C07804E900427E0FDBD03147512F9751327902805E493FC740193FD8C84
:20072700078032900427E0FDBD041475121F751328902835E493FC740193FD8C0780167533
:2007470012F9751327902805E493FC740193FD8C0780027FFFBFFF030209E58F047D00C38C
:20076700EC950EED950F50048C0E8D0FAC0EAD0FC3EC9408ED940040067A087B008004AA15
:200787000EAB0F8A077B00C3EB9F501DEB2425F9E43404FAEB2512F582E43513F583E493CD
:2007A700F889828A83F00B80DE8F027B00ECC39AFCED9BFD8C0E8D0FEF2512F512E4351364
:2007C700F5130209E5900427E0FD8D0E750F000209E5900425E511F0AC0EAD0FC3EC94011A
:2007E700ED940050030209E57F010209E5900427E0F5110209E5EE541F702F900428E0FC95
:200807007D00900427E0FB7A004205EA4204BD0114BC00119027ADE493FD30E5030209E54E
:200827007FFF0209E57FFF0209E58E0453041F7D00BC0277BD0074900429E0FDBD01028010
:200847005FBD02028049BD03028033BD0402801DBD81028040BD8202802ABD83028014BD55
:20086700844474BC55DE4402F5DE0209E553DE730209E574BC55D64402F5D60209E553D624
:20088700730209E574BC55D44402F5D40209E553D4730209E574BC55D24402F5D20209E5B8
:2008A70053D2730209E57FFF0209E57FFF0209E5EE541F702F900428E0FC7D00900427E01D
:2008C700FB7A004205EA4204BD0114BC00119027ADE493FD30E5030209E57FFF0209E57FB9
:2008E700FF0209E553061F7D00BE0205BD000280030209BD900428E0FD7E00900427E0FC90
:200907007B004206EB4205EE4D60030209B990042AE0FD7E00900429E0FC7B004206EB42D7
:2009270005BE0106BD00030209ADBE0205BD00028060BE0305BD00028044BE0405BD00023B
:200947008028BE8105BD00028052BE8205BD00028036BE8305BD0002801ABE8451BD004E1C
:2009670074BF55DE4403F5DE8074747F55DE440CF5DE806A74BF55D64403F5D68060747F86
:2009870055D6440CF5D6805674BF55D44403F5D4804C747F55D4440CF5D4804274BF55D2AB
:2009A7004403F5D28038747F55D2440CF5D27FFF802C7FFF80287FFF8024900425E4F090AA
:2009C7000426F0AD0EAE0FC3ED9402EE940040047F02800AAF0E80067FFF80027FFFBFFFE8
:2009E700077510FF75DCCF22EF24F740068FDD75DCC02275DD0075DCC0227405B5100280EF
:200A0700637406B5106CAE0EAF0FC3EE9408EF940040067C087D008004AC0EAD0F7D00C3F6
:200A2700ED9C501DED2425FAE43404FBED2512F582E43513F583E493F98A828B83F00D802C
:200A4700DE8C037D00EEC39BFEEF9DFF8E0E8F0FEC2512F512E43513F5138CDDAEDC6306DC
:200A6700408EDC22E5E35480FFE50E4FF5E375DC022275DD0075DC02227420B5100D30DE3E
:200A87001012032C75DD0085DCDC2275DD0043DC022275D30074FC55D24402F5D22220D9B1
:200AA70003020B50E5D9540FFFADD95305307E00BD0005BE0002801CBD1005BE00028036BD
:200AC700BD2005BE00028043BD3006BE0003020B36020B4EEF24FB5003020B4EEF2F900AE4
:200AE700E973800880618009805D805B120A8080561205AA8051EF24FB404CEF2F900B088A
:200B070073804480428040803E803CEF24FB4037EF2F900B1D738008800B800E80298027DC
:200B2700120A018022120A99801D1205998018EF24FB4013EF2F900B4173800880098007EF
:200B4700800580031205C7C2D930D81575DC0275D21275D41275E300C2DAC2D9C2D81203AB
:200B67002210DA0122E5DA20E20375D8FF2275E20053E27F43E22975E30053E2BF53D1FB49
:200B870043D1012243E10443E10243E10143D81FD2EAD2AF227E2D7F048EEE8FEF7E357FB1
:1D0BA700048EE48FE575EB0C75D21275D4127E257F048EEC8FED75EA4075DC0222F7
:200BC40090284775F080020BCDAFF0AE83E5829004B5F0EEA3F0EFA3F09004B5E0FDA3E037
:200BE400FEA3E0FF9004B5E0F5F0A3E045F07003F582227C008D828E838FF01226CAFBA3E4
:200C0400AD82AE839004B5EDF0EEA3F0EFA3F0EBFA601C8A82C007C006C005C00412041E90
:200C2400E582D004D005D006D00760030C80C69004B5EDF0EEA3F0EFA3F0C0041203FFD06D
:200C4400048C8222AFF0AE83E5829004B9F0EEA3F0EFA3F09004B9E0FDA3E0FEA3E0FF7C3C
:200C6400009004B8E0FB8B021BEA603A8D828E838FF01226CAFAA3AD82AE839004B9EDF055
:200C8400EEA3F0EFA3F08A82C007C006C005C004C00312041EE582D003D004D005D006D0AB
:200CA4000760030C80C09004B9EDF0EEA3F0EFA3F08C8222AF82AE83ADF0FC9004BDEFF0F2
:200CC400EEA3F0EDA3F0ECA3F09004E1E4F09004BCE0FFBF020050069004BC740AF09004AF
:200CE400BCE0F5157DE17E049004BDE0F516A3E0F517A3E0F518A3E0F51985151A751B003A
:200D0400751C00751D00851A75851B76851C77851D788516828517838518F0E519C006C003
:200D240005121B9CA982851A75851B76851C77851D788516828517838518F0E519C00112C0
:200D44001C1FAA82AB83ACF0FFD001D005D0069004BDEAF0EBA3F0ECA3F0EFA3F01DBDFF60
:200D6400011E8D048E07B90A005008890374302BFB8004743729FB8C828F83EBF09004BD1A
:1F0D8400E0F5F0A3E042F0A3E042F0A3E045F06003020CEC7F008D828E838FF0020BCD14
:022847000A0085
:200DA300AF829004E2E0FE701D8F058DF005F07401800225E0D5F0FBF4FDAC925CF592AC9E
:200DC30093ED5CF59322BE021C8F058DF005F07401800225E0D5F0FBFDAC924CF592AC939F
:200DE300ED4CF59322BE011D8F058DF005F07401800225E0D5F0FBFDF4AB925BF592AC9320
:200E0300ED4CF59322BE031B8FF005F07401800225E0D5F0FBFFAE924EF592EFF4FFAE93A9
:200E23005EF59322AF829004E3E0FE701D8F058DF005F07401800225E0D5F0FBF4FDAC969F
:200E43005CF596AC97ED5CF59722BE021C8F058DF005F07401800225E0D5F0FBFDAC964C45
:200E6300F596AC97ED4CF59722BE011D8F058DF005F07401800225E0D5F0FBFDF4AB965B8F
:200E8300F596AC97ED4CF59722BE031B8FF005F07401800225E0D5F0FBFFAE964EF596EF83
:200EA300F4FFAE975EF59722AF82BF0102800FBF02028013BF03028017BF0425801BE5C68A
:200EC30020E21E539DFB22E5C620E315539DF722E5C630E20C539DFB22E5C630E303539D8F
:200EE300F722AF82BF01097405B5750475820122BF031AE5757004758203227401B57504B2
:200F0300758204227404B575047582022275820022AF827E0075750A8E768F828E83C00747
:200F2300C0061226E6AC82AD83D006D007EFC39CF582EE9DF58375750A757600C005C0048F
:200F430012271CAE82D004D0058C758E82C006C004120EE5AF82D004D006EFFD600D8D827D
:200F6300C006C004120EABD004D0067F00BE0102800ABE02028009BE030C8008AF90800640
:200F8300AFA08002AFB0EC5F60047582012275820022AF827E0075750A8E768F828E83C0B3
:200FA30007C0061226E6AC82AD83D006D007EFC39CF582EE9DF58375750A757600C005C00C
:200FC3000412271CAE82D004D0058C758E82C006C004120EE5AF82D004D006EFFD600D8D7B
:200FE30082C006C004120EABD004D006A2AFE433FFC2AFBE0102800DBE0202803EBE030204
:20100300806E0210A49004E4E070198C068EF005F07401800225E0D5F0FBF4FEAD905DF506
:20102300900210A48C068EF005F07401800225E0D5F0FBFEAD904DF59080669004E4E070EB
:20104300188C068EF005F07401800225E0D5F0FBF4FEADA05DF5A080488C068EF005F07442
:2010630001800225E0D5F0FBFEADA04DF5A080319004E4E070188C068EF005F0740180026B
:2010830025E0D5F0FBF4FEADB05DF5B080138CF005F07401800225E0D5F0FBFCAEB04EF5DA
:2010A300B0EF6002D2AF22AF82BF0B047E008019BF0E047E018012BF0F047E02800BBF20D5
:2010C300047E03800475820022759A0974FC5580FF74035E4FF580D2842084FD859F822237
:2010E300AF828F057E0075750A8E768D828E83C007C006C0051226E6AB82AC83D005D0061B
:20110300EDC39BF582EE9CF58375750A757600C004C00312271CAD82D003D004D00790040C
:20112300E5E0FCA3E0FE4C700A9004E4E4F08F82020F958C018E0274FF2A500B9004E474A0
:2011430001F08F82020F958B758D82C007C006C004C002C001120EE5AD82D001D002D00456
:20116300D006D007ED24FB4034ED2D90117273802C8006800D8014801B53C6FB439D048C2D
:201183009C2253C6F7439D088C9B2243C604439D048C9C2243C608439D088C9B22C3E99490
:1B11A30080EA9400500A9004E4E4F08F82020F959004E47401F08F82020F9542
:2011BE00758203121B3075FB021211D002159DC29422D29422AF82BFAB02800BC00712138D
:2011DE007FE582D00770F5C0071211CDD0078F82021B6675829F1211D3900002121AD6127B
:2011FE001B6DAE827F00C007C006121B6DAD82D006D0077C00EF4205EE4204C005C0041216
:20121E0011D0D004D0058D828C832275824B1211D3900002121AD6758200121B6675820099
:20123E00121B66758200121B66758200121B66900002121AD67F00BF08005022EF241FFD6E
:20125E00E43405FEC007C006C005121B6DAC82D005D006D0078D828E83ECF00F80D9121132
:20127E00D090051F75F00022AC82AD83AEF0FF758203C007C006C005C0041211D3D004D0A0
:20129E0005D0068E82C006C005C004121B66D004D0058D82C005C004121B66D004D005D016
:2012BE0006D0078C82121B66900002121AD6121B6DAF82C0071211D0D0078F8222AC82AD94
:2012DE0083AEF0FF75820BC007C006C005C0041211D3D004D005D0068E82C006C005C004E4
:2012FE00121B66D004D0058D82C005C004121B66D004D005D006D0078C82121B667582007B
:20131E00121B667E007F00C3EE9524EF95255036AB21AC22AD23EE2BFBEF3CFCC007C00654
:20133E00C005C004C003121B6DAA82D003D004D005D006D0078B828C838DF0EA121C840E11
:20135E00BE00C40F80C10211D01211CD758205121B66121B6DAF82C0071211D0D0078F82CE
:20137E0022121367E58213E433F582227582061211D30211D0AC82AD83AEF0FFC007C00619
:20139E00C005C00412138A7582021211D3D004D005D0068E82C006C005C004121B66D004C3
:2013BE00D0058D82C005C004121B66D004D005D006D0078C82121B66852682121B66021145
:2013DE00D085822C85832D85F02EF52FA82CE4F9FAFBC398F532740199F533E4F534F5355B
:2013FE00E52A452B700122C3E532952AE533952B4006AA2AAB2B8004AA32AB338A308B31A8
:20141E0012138A7582021211D3852E82121B66852D82121B66852C82121B6678007900C307
:20143E00E89530E995315031AD27AE28AF29E82534FBE93535FCEB2DFDEC3EFE8D828E8347
:20145E008FF01226CAF582C001C000121B66D000D00108B800C90980C61211D0AA30AB3140
:20147E00E4FEFFEA252CF52CEB352DF52DEE352EF52EEF352FF52FE5302534F534E53135D5
:20149E0035F535E52AC39530F52AE52B9531F52B8F327533010213FE12138A75826012117D
:2014BE00D30211D0AC82AD83AEF0FFC007C006C005C00412138A7582201211D3D004D005E2
:2014DE00D0068E82C006C005C004121B66D004D0058D82C005C004121B66D004D005D006D3
:2014FE00D0078C82121B660211D0AC82AD83AEF0FFC007C006C005C00412138A7582521258
:20151E0011D3D004D005D0068E82C006C005C004121B66D004D0058D82C005C004121B6684
:20153E00D004D005D006D0078C82121B660211D0AC82AD83AEF0FFC007C006C005C0041290
:20155E00138A7582D81211D3D004D005D0068E82C006C005C004121B66D004D0058D82C022
:20157E0005C004121B66D004D005D006D0078C82121B660211D07582B91211D30211D07519
:08159E0082AB1211D30211D03F
:08286B00000000000000000065
:0300B000753600A2
:2015A6009004E37401F0758200120E279004E37401F0758201120E279004E37401F075821D
:2015C60003120E279004E37401F0758204020E27E582900508F0900507E02427FEE43405D7
:2015E600FF90052AE08E828F83F0900508E0FD7C00BC1900502DEC75F002A4FAABF0242A13
:20160600F8EB3405F988828983A3E0F9B50511EA242AF582EB3405F583E0FB8E828F83F01A
:201626000C80CE229004E47401F075821F120F959004E47401F075821E120F959004E474EB
:2016460001F0758222020F95E582900509F0E0FFBF1E259004E47401F075821F120F9590C5
:2016660004E4E4F075821E120F959004E47401F0758222120F958026BF1F239004E4E4F03E
:2016860075821F120F959004E47401F075821E120F959004E47401F0758222120F9590058F
:2016A60009E0FFBF22239004E47401F075821F120F959004E47401F075821E120F95900453
:2016C600E4E4F0758222120F95900001021AF49004E4E4F0758221020F959004E47401F0F5
:2016E600758221020F9512162A1216D5900527E0F582121B661216E075821F12164E121675
:201706002A1216D5900528E0F582121B661216E075821E12164E12162A900529E0FFE53658
:20172600035480FEEF4206900529EEF01216D5900529E0F582121B661216E075822202161D
:201746004E900527E4F0900528F0900529F022AE82AF83C007C006C006C0077449C0E074DB
:2017660028C0E07480C0E07437C0E07400C0E07440C0E0121DC2E58124F8F581D006D007BE
:20178600C3EE940AEF64809480500D8E059005077402F08D820215D6C3EE9464EF6480940F
:2017A6008050189005077402F08538821215D69005077401F08537820215D6C3EE94E8EFB5
:2017C6006480948350239005077402F08539821215D69005077401F08538821215D6900584
:2017E60007E4F08537820215D602174785823D85833E85F03FAA3AAB3BAC3C8A828B838CE7
:20180600F01226CAF990050AE0F8C3E998400A8A828B838CF0E4121C848A828B838CF012FE
:2018260026CA253DF9E4353EFEAF3F89828E838FF01226CAF9900507E4F08982C004C0037C
:20184600C002C0001215D6D000D002D003D0048A828B838CF01226CAFF7E000FBF00010EC8
:201866007D00C3EF98EE64808DF063F08095F050298A828B838CF01226CAFF7E000FBF0098
:20188600010EEF253DF9EE353EFEAF3F89828E838FF01226CAF97F00800479207F00900556
:2018A600077401F08982C005C004C003C002C0001215D6D000D002D003D004D0058A828B2B
:2018C600838CF01226CAFF7E0074022FFFE43EFEC3EF98EE64808DF063F08095F0502B8ACA
:2018E600828B838CF01226CAFF7E0074022FFFE43EFEEF253DFFEE353EFEAD3F8F828E83D6
:201906008DF01226CAFE7F0080047E207F009005077402F08E82C004C003C0021215D6D0FC
:2019260002D003D0048A828B838CF01226CAFF0F8A828B838CF0EF021C84AD82AE83AFF02C
:20194600C007C006C005121747D005D006D0078D828E838FF01226CAFC24F650030219E731
:20196600EC240A83F582EC240E83F583E4738888889797B0B0B0D0D019191919191919199F
:201986001919EC2427F582E43405F5837401F080708C0374FE2BF5F005F07401800225E075
:2019A600D5F0FBFB900529F080578C03EB24FBFBC3E49BFB0B0BEB3395E0FAEB2427F582C0
:2019C600EA3405F5837408F0803774FC2CF5F005F07401800225E0D5F0FBFC900527F080E9
:2019E600208D828E838FF0E4121C848D828E838FF01226CAFC2427F582E43405F583740123
:1A1A0600F08D828E838FF01226CAFC0C8D828E838FF0EC021C8485823622A1
:0328490025640003
:2028730000000000203F3006315B324F3366346D357D3607377F386F3977417C4239435E94
:15289300447945714673501069546E58637468402D015E085FAF
:0600B300751E00751F0020
:201A20009004E3E4F0758202120E279004E2E4F0758201020DA3751E0175820B1210AAAF16
:201A400082C374509FE433F58222E51E601475820B1210AAAF82BF0A005007751E0075820E
:201A6000012275820022751F017582201210AAAF82C374509FE433F58222E51F601475823C
:201A8000201210AAAF82BF0A005007751F007582012275820022121A36E5826007121A6680
:201AA000E58270047F0080027F018F8222121A4AE5826007121A7AE58270047F0080027F52
:041AC000018F8222EE
:201AC40075A15575A1AA74F855B94406F5B975A10022AE82AF83EE4F601505A105A105A127
:201AE40005A105A105A105A11EBEFF011F80E722AE82AF83EE4F60159003E8C007C0061298
:201B04001AD6D006D0071EBEFF011F80E722AE82AF8310990280FB8E998E828F8322109805
:0C1B24000280FBAE997F008E828F83222E
:201B3000AF8253FC7FEF700A74F555FA4460F5FA800BBF030874FD55FA4468F5FA53FA7F66
:201B500053920F4393B05393BF2243FC5043FA01E5F875F8FF228582F930FBFD2275F9FF45
:201B700030FBFD85F9822243FC80741D55FA4401F5FA53920F53930F22AF8220FCFDC2FC25
:0C1B90008FF92220FCFDC2FC85F98222A6
:201B9C00F9E57545764577457860777800C308E57820E73BE57525E0F575E57633F576E542
:201BBC007733F577E57833F578E5829575E5839576E5F09577E9957850D4C3E57813F57877
:201BDC00E57713F577E57613F576E57513F575E5829575FCE5839576FDE5F09577FEE99524
:201BFC00784007F98EF08D838C82C3E57813F578E57713F577E57613F576E57513F575D872
:031C1C00CEE922EC
:201C1F00FB7A20E4FCFDFEFFE5822582F582E58333F583E5F033F5F0EB33FB4017DAE980FE
:201C3F0042E5822582F582E58333F583E5F033F5F0EB33FBEC33FCED33FDEE33FEEF33FF2D
:201C5F00EC9575ED9576EE9577EF95784013EC9575FCED9576FDEE9577FEEF9578FF43828F
:051C7F0001DABEEB22BA
:06007A00E478FFF6D8FD5A
:200058007951E94400601B7A01902857780B75A005E493F2A308B8000205A0D9F4DAF2756E
:02007800A0FFE7
:1B1C840020F71130F6138883A88220F509F6A8837583002280FEF280F5F0225F
:201C9F00E575457660467A01E57525E0F575E576334012F576E5829575E583957640030AAA
:201CBF0080E6C3E57613F576E57513F575C3E5829575F5F0E58395764005F58385F082C329
:0D1CDF00E57613F576E57513F575DAE1226B
:201CEC007A10E4FBFCE58225E0F582E58333F583EB33FBEC33FCEB9575F5F0EC9576400632
:091D0C00FCABF0438201DADD2298
:200080007800E84400600A790075A004E4F309D8FC780BE84401600C7902900400E4F0A36A
:0400A000D8FCD9FAB5
:201D1500C047858147C082058105810581E54724FBF8A9470909E6F70809E6F70809E6F788
:201D3500A847080886820886830886F01226CAFAA31226CAFBA31226CAFF74012AFCE43BFE
:201D5500FD8F06A847080886820886830886F0EC121C84A3ED121C84A3EE121C848A828B8C
:201D7500838FF0A84708E6121C84854781D0472285824485834585F0467555447556007596
:201D9500574085405885415985425A85435B901D15121EADAE82AF83AB44AC45AD468B8236
:201DB5008C838DF0E4121C848E828F8322C047E581F54724F8FF8F5BE54724FBFF8F557557
:201DD5005600755740E54724F8F8865808865908865A901D15121EADAE82AF83E54724FB53
:1A1DF500F886030886040886058B828C838DF0E4121C848E828F83D04722A4
:02004900E4735E
:201E0F00AF82C04BC04CC04D121E1C8007C049C04A8F82221581158115810553E4B553023D
:201E2F00055422AF8274302FFF24C6500B74072FFFE54860034307208F82021E0FE582FF87
:201E4F00C4540FF582C007121E32D007740F5FF582021E32858275AB4EAC4FAD50AE51AA14
:201E6F00527577208A07EF2FF576EE2354014576FAEB2BFBEC33FCED33FDEE33FEC3EA9516
:201E8F00754008EAC39575FA430301E57714FF8F7770D18B4E8C4F8D508E518A5222858253
:201EAF004985834A85554B85564C85574DE4F553F554AD58AE59AF5A8D828E838FF01226A2
:201ECF00CAFC74012DF558E43EF5598F5AECFF700302268EBF250280030226867E007D00BF
:201EEF008E5C8E5D7A007B008E5E7C008E5FE4F567F5687560FF7561FF85586985596A855B
:201F0F005A6B856982856A83856BF01226CAF56CA385826985836A856958856A59856B5A6B
:201F2F007425B56C08856C82121E0F808574D0256C4003021FEFE56C24C65003021FEF74DF
:201F4F00FFB56055B5615285677585687690000AC006C005C004C003C0021226AD85826D16
:201F6F0085836ED002D003D004D005D006856C6F757000E56F256DF56FE570356EF570E5E7
:201F8F006F24D0F567E57034FFF568E56745686003021F117D01021F11856075856176900A
:201FAF00000AC006C005C004C003C0021226AD85826F858370D002D003D004D005D00685B8
:201FCF006C6D756E00E56D256FF56FE56E3570F570E56F24D0F560E57034FFF561021F11E2
:201FEF00742EB56C1574FFB56005B561028003021F11E4F560F561021F11749F256C500EDD
:20200F00E56C24854008536CDF75480180037548007420B56C030220BB742BB56C03022059
:20202F00B5742DB56C0280797442B56C030220C17443B56C030220CC7444B56C030223197F
:20204F007446B56C0302232F7448B56C03021F117449B56C03022319744AB56C03021F11FA
:20206F00744CB56C028050744FB56C030223207450B56C030222647453B56C02807674545A
:20208F00B56C03021F117455B56C030223257458B56C0302232A745AB56C03021F1102231C
:2020AF00337E01021F11755C01021F11755D01021F117B01021F11755E01021F11EB600A1B
:2020CF00E55B14F9895B876F800DE55B24FEF56D856D5BA96D876F856F82C006C005C0045B
:2020EF00C003C002121E0FD002D003D004D005D006022355E55B24FDF56F856F5BA96F87BC
:20210F006909876A09876B191985694E856A4F856B50856982856A83856BF0C006C005C059
:20212F0004C003C00212269585826F858370D002D003D004D005D00674FFB56009B561067B
:20214F00856F60857061EE704FC3E56F9567E57095685044E567C3956FF56DE5689570F564
:20216F006E856D69856E6A156D74FFB56D02156EE569456A601C758220C006C005C004C0EF
:20218F0003C002121E0FD002D003D004D005D00680CF856D67856E6885606D85616E854E8C
:2021AF0082854F838550F01226CAF569856964604FC3E4956D7480856EF063F08095F050E9
:2021CF003F156D74FFB56D02156E856482C006C005C004C003C002121E0FD002D003D0041E
:2021EF00D005D006854E69854F6A85506B0569E4B56902056A85694E856A4F856B50809EB2
:20220F00EE7003022355C3E56F9567E57095684003022355E567C3956FF56FE5689570F5F4
:20222F0070856F6D85706E156F74FFB56F021570E56D456E700302234F758220C006C0052B
:20224F00C004C003C002121E0FD002D003D004D005D00680CCE55B24FDF56D856D5BA96D51
:20226F00876909876A09876B191985694E856A4F856B50855065748025655005756D4380CC
:20228F001974A025655005756D50800E74C025655005756D498003756D58856D82C006C06E
:2022AF0005C004C003C002121E0F75823A121E0F758230121E0F758278121E0FD002D00359
:2022CF00D004D005D0067449B56D0280217450B56D02801A854F82C006C005C004C003C044
:2022EF0002121E4CD002D003D004D005D006854E82C006C005C004C003C002121E4CD002B6
:20230F00D003D004D005D006803C7A01755F0A8035755F088030755F0A802B755F108026F3
:20232F007C018022856C82C006C005C004C003C002121E0FD002D003D004D005D00680063F
:20234F00856F67857068EC6068E55B24FCFC8C5B8C018771098772098773098774191919E6
:20236F0085714E85724F857350857451754E4C754F28755080854E71854F728550737401AB
:20238F002571F569E43572F56A85736B85694E856A4F856B508571828572838573F0122621
:2023AF00CAFC8C717003021EC1857182121E0F80C4E55F7003021EC1EB603FE55B14F98904
:2023CF005B87048C7175720075730075740085714E85724F857350857451EA600302247252
:2023EF00854E7175720075730075740085714E85724F8573508574518069E55E6025E55BC5
:20240F0024FCFC8C5B8C01877109877209877309877419191985714E85724F857350857406
:20242F00518040E55B24FEFC8C5B8C018703098704198B71ECF5723395E0F573F5748571B5
:20244F004E85724F857350857451EA7016854E71854F72F573F57485714E85724F857350AA
:20246F00857451EA602AE55130E723C3E4954EF571E4954FF572E49550F573E49551F5749C
:20248F0085714E85724F85735085745180027A007C01797EE4F571F572755200855F82C003
:2024AF0006C005C004C002C001121E63D001D002D004D005D006EC700DE552C4F56FE7FB9C
:2024CF00456FF7198002A7520571E4B571020572ECB40100E433FCE54E454F45504551709F
:2024EF00B88966857162857263E56745687005756701F568ED7043EE7040856771856872D2
:20250F00AB620B8B6F757000C3E56F9571E57095725021758220C006C005C004C002121E73
:20252F000FD002D004D005D006157174FFB57102157280CC857167857268EA601D75822DF1
:20254F00C006C005C004121E0FD004D005D006156774FFB5670215688046E5624563604080
:20256F00E55C601D75822BC006C005C004121E0FD004D005D006156774FFB5670215688055
:20258F001FE55D601B758220C006C005C004121E0FD004D005D006156774FFB567021568A2
:2025AF00EE703C856771856872AA71AB72157174FFB571021572C3E5629AE5639B5041EDD1
:2025CF0060067A307B0080047A207B008A82C006C005C004121E0FD004D005D00680CAC3A2
:2025EF00E5629567E5639568500FE567C39562F56FE5689563F570800DE4F56FF570800611
:20260F0085716F857270A966856271856372AA71AD72157174FFB571021572EA4D602EEC8B
:20262F00B40100E433FC700A09E7C4540FFD8D5280078705740F5DF552855282C006C00439
:20264F00C001121E32D001D004D00680C1EE7003021EC1AD6FAE708D038E041DBDFF011EF6
:20266F00EB4C7003021EC1758220C006C005121E0FD005D00680E08F82121E0F021EC1851E
:06268F00538285548322F2
:0B284C003C4E4F20464C4F41543E00D4
:18269500AA82AB831226CA6003A380F8C3E5829AF582E5839BF583227B
:1D26AD00E5828575F0A4C582C0F08576F0A4D0F025F0C5838575F0A42583F58322A8
:0D004B0075817E122754E582600302004695
:1C26CA0020F71430F6148883A88220F507E6A88375830022E280F7E49322E0221F
:2026E600C2D5E58330E70DD2D5E4C39582F582E49583F583E57630E70BE4C39575F575E4E5
:162706009576F576121C9F30D50BE4C39582F582E49583F583229F
:20271C00C2D5E58330E70DD2D5E4C39582F582E49583F583E57630E70DB2D5E4C39575F57E
:18273C0075E49576F576121CEC30D50BE4C39582F582E49583F58322C1
:042754007582002268
:00000001FF
