:0400000002004B327D
:01000B0032C2
:0100130032BA
:01001B0032B2
:0100230032AA
:01002B0032A2
:01003300329A
:01003B003292
:030043000200AD0B
:0300AA000200460B
:0300460002021B98
:2000AD00C020C0E0C0F0C082C083C007C006C005C004C003C002C001C000C0D075D000127B
:2000CD0009B7D0D0D000D001D002D003D004D005D006D007D083D082D0F0D0E0D0203212CE
:2000ED001E0890000A121E381202211203041210D61214B8121951021A0390053FE0FCA3B9
:20010D00E0FDA3E0FEA3E0FFC3EC9496ED9400EE9400EF6480948050030201F11219D5E503
:20012D0082604A902ABB75F080120ADF121DFAAF827E007D007C009004BC740AF08F828E03
:20014D00838DF0EC120BCA902ACC75F080120ADF121E01AF827E007D007C009004BC740AB2
:20016D00F08F828E838DF0EC120BCA8016121967E5826005121DD6800A12199EE5826003FA
:20018D00121DE8121DFAAF8274412FFF900507E4F08F821214E8121E01AF82BF0A005006EE
:2001AD007E307F0080047E317F009005077401F08E821214E8121E01AF827E00751B0A8E2C
:2001CD001C8F828E83122A49AE8274302EFE9005077402F08E821214E890053FE4F0A3F0F4
:2001ED00A3F0A3F0121A071215FE90053FE0FCA3E0FDA3E0FEA3E0FF90053F74042CF0E4F5
:14020D003DA3F0E43EA3F0E43FA3F00201071200EC02010790
:202ABB000A43757272656E7420426C6F636B3A20000A43757272656E7420536563746F722C
:032ADB003A20009E
:0D2BBF000000000000000000000000000009
:20022100120A87120AAE120A9D75DD0075D30075D5002290054AE4F090054CF0227F0074F8
:20024100F925DB50067D077E008004ADDB7E008F037C00C3EB9DEC64808EF063F08095F0C3
:20026100501CEF2443FDE43405FEEF2425F582E43404F583E0FC8D828E83F00F80C1227F83
:20028100008F057E00C3ED9407EE9400501CEF2425FDE43404FEEF2443F582E43405F58361
:2002A100E0FC8D828E83F00F80D790000722900427E0FF90054DF0E020E047900543E0FCEB
:2002C100A3E0FDA3E0FEA3E0FFBCB036BD0433BE0030BF002D75E200C2AF758900750800E7
:2002E10075093890C350121E1A90C350121E1AAE08AF09C007C0068E828F83120049D0061F
:20030100D007227F0090054DE060027F018F822290054CE0701890054EE0FFE060108FD5CE
:2003210053D4FC90054C7401F090054EE4F022AF8290054DE060617D007E0090054CE060AA
:20034100240DBD00010E900005C007C006C005121E1AD005D006D007C3ED9450EE94C340D3
:20036100DA7582002290054EE0FEBE400050207D0074402EFEE43DFDEE2435F582ED3404FC
:20038100F583EFF090054EE02401F075820122C007120311D007809F75820022AFF0AE8347
:2003A100E582900422F0EEA3F0EFA3F090054DE07003020473900420E0FEA3E0FFC3E49E25
:2003C10074808FF063F08095F040030204737E007F0090054CE060200EBE00010F900005E6
:2003E100C007C006121E1AD006D007C3EE9450EF94C340DE75820022900422E0FDA3E0FE52
:20040100A3E0FF900420E0FBA3E0FCC3E49B74808CF063F08095F0509C90054EE0FABA409E
:200421000050498A017A00744029F9E43AFAE92435F9EA3404FA8D828E838FF0122A2DF8D8
:20044100A3AD82AE83900422EDF0EEA3F0EFA3F089828A83E8F090054EE02401F01BBBFF65
:20046100011C900420EBF0ECA3F0809F1203110203B67582002290054AE0F5822290054A00
:20048100E07003F5822290054BE02435F582E43404F583E0FF90054BE004F090054AE014E5
:2004A100F0E0700353D4F38F822275D50074FC55D44402F5D490054CE4F02230DE19900526
:1804C1004AE5DBF090054BE4F090054AE0600874F355D44408F5D42287
:0C2BCC0000E10000000008000000000014
:202ADE0012011001EF020108091250C5010101020301120009024B000201008064080B001F
:202AFE000202020104090400000102020104052400100105240100000424020205240600D7
:202B1E00010705810308004009040100020A00000407050202400000070582024000004B35
:202B3E00000403090404000C03430048003500350078000C00160343004800350035007851
:202B5E00006400750069006E006F001600160343004400430020005300650072006900612B
:152B7E00006C0016000E0344006500710069006E0067000E0049
:0300A400751000D4
:2004D900AFDBBF080280030208F590042CE0FE7F0090042BE0FD7C004FF50AEC4EF50B7FF2
:2004F90000900426E0F50C8F10900425E0FE546060508E045304607D00BC2005BD000280C8
:200519000BBC4039BD00367FFF0208F77420B50C030208F77421B50C0280077422B50C1869
:20053900800C120280AC82AD838C070208F7C0071202AFD0070208F77FFF0208F77FFF022F
:2005590008F7E50C24F450030208F1E50C240B83F582E50C241083F583E473D30FF1C9F10E
:20057900DE8CF1EB06F7F7080708070806050806070808900428E0FDBD0102800DBD02022B
:20059900801DBD0302802D02066C750EDE750F2A902AF0E493FC740193FD8C0702066E7513
:2005B9000EF2750F2A902B3DE493FC740193FD8C0702066E900427E07015750E3F750F2B6A
:2005D900902B43E493FC740193FD8C0702066E900427E0FDBD0114750E83750F2B902B9118
:2005F900E493FC740193FD8C07806A900427E0FDBD0214750E53750F2B902B69E493FC74F2
:200619000193FD8C07804E900427E0FDBD0314750E45750F2B902B51E493FC740193FD8CDC
:20063900078032900427E0FDBD0414750E6B750F2B902B81E493FC740193FD8C078016758C
:200659000E45750F2B902B51E493FC740193FD8C0780027FFFBFFF030208F78F047D00C3D3
:20067900EC950AED950B50048C0A8D0BAC0AAD0BC3EC9408ED940040067A087B008004AA1C
:200699000AAB0B8A077B00C3EB9F501DEB2425F9E43404FAEB250EF582E4350FF583E493CC
:2006B900F889828A83F00B80DE8F027B00ECC39AFCED9BFD8C0A8D0BEF250EF50EE4350F67
:2006D900F50F0208F7900427E0FD8D0A750B000208F7900425E50DF0AC0AAD0BC3EC9401FF
:2006F900ED940050030208F77F010208F7900427E0F50D0208F7EE541F702F900428E0FC55
:200719007D00900427E0FB7A004205EA4204BD0114BC0011902AF9E493FD30E5030208F7DD
:200739007FFF0208F77FFF0208F78E0453041F7D00BC0277BD0074900429E0FDBD010280DD
:200759005FBD02028049BD03028033BD0402801DBD81028040BD8202802ABD83028014BD44
:20077900844474BC55DE4402F5DE0208F753DE730208F774BC55D64402F5D60208F753D6E0
:20079900730208F774BC55D44402F5D40208F753D4730208F774BC55D24402F5D20208F763
:2007B90053D2730208F77FFF0208F77FFF0208F7EE541F702F900428E0FC7D00900427E0D9
:2007D900FB7A004205EA4204BD0114BC0011902AF9E493FD30E5030208F77FFF0208F77F37
:2007F900FF0208F753061F7D00BE0205BD000280030208CF900428E0FD7E00900427E0FC5D
:200819007B004206EB4205EE4D60030208CB90042AE0FD7E00900429E0FC7B004206EB42B5
:2008390005BE0106BD00030208BFBE0205BD00028060BE0305BD00028044BE0405BD000219
:200859008028BE8105BD00028052BE8205BD00028036BE8305BD0002801ABE8451BD004E0B
:2008790074BF55DE4403F5DE8074747F55DE440CF5DE806A74BF55D64403F5D68060747F75
:2008990055D6440CF5D6805674BF55D44403F5D4804C747F55D4440CF5D4804274BF55D29A
:2008B9004403F5D28038747F55D2440CF5D27FFF802C7FFF80287FFF8024900425E4F09099
:2008D9000426F0AD0AAE0BC3ED9402EE940040047F02800AAF0A80067FFF80027FFFBFFFE3
:2008F90007750CFF75DCCF22EF24F740068FDD75DCC02275DD0075DCC0227405B50C0280E6
:20091900637406B50C6CAE0AAF0BC3EE9408EF940040067C087D008004AC0AAD0B7D00C3F9
:20093900ED9C501DED2425FAE43404FBED250EF582E4350FF583E493F98A828B83F00D8023
:20095900DE8C037D00EEC39BFEEF9DFF8E0A8F0BEC250EF50EE4350FF50F8CDDAEDC6306E3
:20097900408EDC22E5E35480FFE50A4FF5E375DC022275DD0075DC02227420B50C0D30DE35
:200999001012023E75DD0085DCDC2275DD0043DC022275D30074FC55D24402F5D22220D98F
:2009B90003020A62E5D9540FFFADD95305307E00BD0005BE0002801CBD1005BE000280369B
:2009D900BD2005BE00028043BD3006BE0003020A48020A60EF24FB5003020A60EF2F9009A1
:2009F900FB73800880618009805D805B12099280561204BC8051EF24FB404CEF2F900A1A34
:200A190073804480428040803E803CEF24FB4037EF2F900A2F738008800B800E80298027BA
:200A390012091380221209AB801D1204AB8018EF24FB4013EF2F900A53738008800980079A
:200A5900800580031204D9C2D930D81575DC0275D21275D41275E300C2DAC2D9C2D812028A
:200A79003410DA0122E5DA20E20375D8FF2275E20053E27F43E22975E30053E2BF53D1FB26
:200A990043D1012243E10443E10243E10143D81FD2EAD2AF227E2D7F048EEE8FEF7E357FA0
:1D0AB900048EE48FE575EB0C75D21275D4127E257F048EEC8FED75EA4075DC0222E6
:200AD600902B9375F080020ADFAFF0AE83E5829004B5F0EEA3F0EFA3F09004B5E0FDA3E0C6
:200AF600FEA3E0FF9004B5E0F5F0A3E045F07003F582227C008D828E838FF0122A2DFBA36C
:200B1600AD82AE839004B5EDF0EEA3F0EFA3F0EBFA601C8A82C007C006C005C0041203306E
:200B3600E582D004D005D006D00760030C80C69004B5EDF0EEA3F0EFA3F0C004120311D04A
:200B5600048C8222AFF0AE83E5829004B9F0EEA3F0EFA3F09004B9E0FDA3E0FEA3E0FF7C2B
:200B7600009004B8E0FB8B021BEA603A8D828E838FF0122A2DFAA3AD82AE839004B9EDF0DD
:200B9600EEA3F0EFA3F08A82C007C006C005C004C003120330E582D003D004D005D006D089
:200BB6000760030C80C09004B9EDF0EEA3F0EFA3F08C8222AF82AE83ADF0FC9004BDEFF0E1
:200BD600EEA3F0EDA3F0ECA3F09004E1E4F09004BCE0FFBF020050069004BC740AF090049E
:200BF600BCE0F5117DE17E049004BDE0F512A3E0F513A3E0F514A3E0F51585111675170049
:200C160075180075190085161B85171C85181D85191E8512828513838514F0E515C006C082
:200C360005121EE0A98285161B85171C85181D85191E8512828513838514F0E515C00112F0
:200C56001F63AA82AB83ACF0FFD001D005D0069004BDEAF0EBA3F0ECA3F0EFA3F01DBDFF08
:200C7600011E8D048E07B90A005008890374302BFB8004743729FB8C828F83EBF09004BD09
:1F0C9600E0F5F0A3E042F0A3E042F0A3E045F06003020BFE7F008D828E838FF0020ADFE1
:022B93000A0036
:200CB500AF829004E2E0FE701D8F058DF005F07401800225E0D5F0FBF4FDAC925CF592AC8D
:200CD50093ED5CF59322BE021C8F058DF005F07401800225E0D5F0FBFDAC924CF592AC938E
:200CF500ED4CF59322BE011D8F058DF005F07401800225E0D5F0FBFDF4AB925BF592AC930F
:200D1500ED4CF59322BE031B8FF005F07401800225E0D5F0FBFFAE924EF592EFF4FFAE9398
:200D35005EF59322AF829004E3E0FE701D8F058DF005F07401800225E0D5F0FBF4FDAC968E
:200D55005CF596AC97ED5CF59722BE021C8F058DF005F07401800225E0D5F0FBFDAC964C34
:200D7500F596AC97ED4CF59722BE011D8F058DF005F07401800225E0D5F0FBFDF4AB965B7E
:200D9500F596AC97ED4CF59722BE031B8FF005F07401800225E0D5F0FBFFAE964EF596EF72
:200DB500F4FFAE975EF59722AF82BF0102800FBF02028013BF03028017BF0425801BE5C679
:200DD50020E21E539DFB22E5C620E315539DF722E5C630E20C539DFB22E5C630E303539D7E
:200DF500F722AF82BF01097405B51B0475820122BF031AE51B7004758203227401B51B04AF
:200E1500758204227404B51B047582022275820022AF827E00751B0A8E1C8F828E83C00744
:200E3500C006122A49AC82AD83D006D007EFC39CF582EE9DF583751B0A751C00C005C004CB
:200E5500122A7FAE82D004D0058C1B8E82C006C004120DF7AF82D004D006EFFD600D8D824F
:200E7500C006C004120DBDD004D0067F00BE0102800ABE02028009BE030C8008AF9080061E
:200E9500AFA08002AFB0EC5F60047582012275820022AF827E00751B0A8E1C8F828E83C056
:200EB50007C006122A49AC82AD83D006D007EFC39CF582EE9DF583751B0A751C00C005C048
:200ED50004122A7FAE82D004D0058C1B8E82C006C004120DF7AF82D004D006EFFD600D8D4D
:200EF50082C006C004120DBDD004D006A2AFE433FFC2AFBE0102800DBE0202803EBE0302E2
:200F1500806E020FB69004E4E070198C068EF005F07401800225E0D5F0FBF4FEAD905DF5E4
:200F350090020FB68C068EF005F07401800225E0D5F0FBFEAD904DF59080669004E4E070C9
:200F5500188C068EF005F07401800225E0D5F0FBF4FEADA05DF5A080488C068EF005F07431
:200F750001800225E0D5F0FBFEADA04DF5A080319004E4E070188C068EF005F0740180025A
:200F950025E0D5F0FBF4FEADB05DF5B080138CF005F07401800225E0D5F0FBFCAEB04EF5C9
:200FB500B0EF6002D2AF22AF82BF0B047E008019BF0E047E018012BF0F047E02800BBF20C4
:200FD500047E03800475820022759A0974FC5580FF74035E4FF580D2842084FD859F822226
:200FF500AF828F057E00751B0A8E1C8D828E83C007C006C005122A49AB82AC83D005D00657
:20101500EDC39BF582EE9CF583751B0A751C00C004C003122A7FAD82D003D004D007900449
:20103500E5E0FCA3E0FE4C700A9004E4E4F08F82020EA78C018E0274FF2A500B9004E4747E
:2010550001F08F82020EA78B1B8D82C007C006C004C002C001120DF7AD82D001D002D0047D
:20107500D006D007ED24FB4034ED2D90108473802C8006800D8014801B53C6FB439D048C0B
:201095009C2253C6F7439D088C9B2243C604439D048C9C2243C608439D088C9B22C3E9947F
:1B10B50080EA9400500A9004E4E4F08F82020EA79004E47401F08F82020EA70F
:2010D000C29422D29422758203121E7475FB021210D30214AFAF82BFAB02800BC007121223
:2010F00091E582D00770F5C0071210D0D0078F82021EAA75829F1210E5900002121E1A12B6
:201110001EB1AE827F00C007C006121EB1AD82D006D0077C00EF4205EE4204C005C0041276
:2011300010D3D004D0058D828C832275824B1210E5900002121E1A758200121EAA758200E6
:20115000121EAA758200121EAA758200121EAA900002121E1A7F00BF08005022EF244FFD10
:20117000E43405FEC007C006C005121EB1AC82D005D006D0078D828E83ECF00F80D91210DB
:20119000D390054F75F00022AC82AD83AEF0FF758203C007C006C005C0041210E5D004D04B
:2011B00005D0068E82C006C005C004121EAAD004D0058D82C005C004121EAAD004D005D077
:2011D00006D0078C82121EAA900002121E1A121EB1AF82C0071210D3D0078F8222AC82ADAB
:2011F00083AEF0FF75820BC007C006C005C0041210E5D004D005D0068E82C006C005C004C2
:20121000121EAAD004D0058D82C005C004121EAAD004D005D006D0078C82121EAA75820094
:20123000121EAA7E007F00C3EE9524EF95255036AB21AC22AD23EE2BFBEF3CFCC007C006FC
:20125000C005C004C003121EB1AA82D003D004D005D006D0078B828C838DF0EA121FE70E53
:20127000BE00C40F80C10210D31210D0758205121EAA121EB1AF82C0071210D3D0078F8229
:2012900022121279E58213E433F582227582061210E50210D3AC82AD83AEF0FFC007C006E4
:2012B000C005C00412129C7582021210E5D004D005D0068E82C006C005C004121EAAD00449
:2012D000D0058D82C005C004121EAAD004D005D006D0078C82121EAA852682121EAA021060
:2012F000D385822C85832D85F02EF52FA82CE4F9FAFBC398F532740199F533E4F534F53547
:20131000E52A452B700122C3E532952AE533952B4006AA2AAB2B8004AA32AB338A308B3196
:2013300012129C7582021210E5852E82121EAA852D82121EAA852C82121EAA78007900C3FF
:20135000E89530E995315031AD27AE28AF29E82534FBE93535FCEB2DFDEC3EFE8D828E8336
:201370008FF0122A2DF582C001C000121EAAD000D00108B800C90980C61210D3AA30AB317F
:20139000E4FEFFEA252CF52CEB352DF52DEE352EF52EEF352FF52FE5302534F534E53135C4
:2013B00035F535E52AC39530F52AE52B9531F52B8F3275330102131012129C75826012104A
:2013D000E50210D3AC82AD83AEF0FFC007C006C005C00412129C7582201210E5D004D0059B
:2013F000D0068E82C006C005C004121EAAD004D0058D82C005C004121EAAD004D005D00634
:20141000D0078C82121EAA0210D3AC82AD83AEF0FFC007C006C005C00412129C75825212EC
:2014300010E5D004D005D0068E82C006C005C004121EAAD004D0058D82C005C004121EAAD4
:20145000D004D005D006D0078C82121EAA0210D3AC82AD83AEF0FFC007C006C005C0041236
:20147000129C7582D81210E5D004D005D0068E82C006C005C004121EAAD004D0058D82C0A8
:2014900005C004121EAAD004D005D006D0078C82121EAA0210D37582B91210E50210D37565
:0814B00082AB1210E50210D31B
:082BD8000000000000000000F5
:0300A700753600AB
:2014B8009004E37401F0758200120D399004E37401F0758201120D399004E37401F07582EA
:2014D80003120D399004E37401F0758204020D39E582900508F0900507E02457FEE4340574
:2014F800FF90055AE08E828F83F0900508E0FD7C00BC1900502DEC75F002A4FAABF0245AA2
:20151800F8EB3405F988828983A3E0F9B50511EA245AF582EB3405F583E0FB8E828F83F0D9
:201538000C80CE229004E47401F075821F120EA79004E47401F075821E120EA79004E474B8
:2015580001F0758222020EA7E582900509F0E0FFBF1E259004E47401F075821F120EA79092
:2015780004E4E4F075821E120EA79004E47401F0758222120EA78026BF1F239004E4E4F00B
:2015980075821F120EA79004E47401F075821E120EA79004E47401F0758222120EA790054B
:2015B80009E0FFBF22239004E47401F075821F120EA79004E47401F075821E120EA7900420
:2015D800E4E4F0758222120EA7900001021E389004E4E4F0758221020EA79004E47401F07A
:2015F800758221020EA712153C1215E7900557E0F582121EAA1215F275821F121560121599
:201618003C1215E7900558E0F582121EAA1215F275821E12156012153C900559E0FFE5364A
:20163800035480FEEF4206900559EEF01215E7900559E0F582121EAA1215F2758222021544
:2016580060900557E4F0900558F0900559F022AF83E58290050AF0EFA3F090050AE0FEA3AB
:20167800E0FFC007C006C006C0077495C0E0742BC0E07480C0E07437C0E07400C0E07440CA
:20169800C0E0122125E58124F8F581D006D007C3EE940AEF64809480500D8E05900507745F
:2016B80002F08D820214E8C3EE9464EF6480948050189005077402F08538821214E8900537
:2016D800077401F08537820214E8C3EE94E8EF6480948350239005077402F0853982121458
:2016F800E89005077401F08538821214E8900507E4F08537820214E802165985823D858333
:201718003E85F03FAA3AAB3BAC3C8A828B838CF0122A2DF990050CE0F8C3E998400A8A8202
:201738008B838CF0E4121FE78A828B838CF0122A2D253DF9E4353EFEAF3F89828E838FF0D3
:20175800122A2DF9900507E4F08982C004C003C002C0001214E8D000D002D003D0048A8228
:201778008B838CF0122A2DFF7E000FBF00010E7D00C3EF98EE64808DF063F08095F050291D
:201798008A828B838CF0122A2DFF7E000FBF00010EEF253DF9EE353EFEAF3F89828E838F96
:2017B800F0122A2DF97F00800479207F009005077401F08982C005C004C003C002C00012B8
:2017D80014E8D000D002D003D004D0058A828B838CF0122A2DFF7E0074022FFFE43EFEC3D4
:2017F800EF98EE64808DF063F08095F0502B8A828B838CF0122A2DFF7E0074022FFFE43EE6
:20181800FEEF253DFFEE353EFEAD3F8F828E838DF0122A2DFE7F0080047E207F0090050755
:201838007402F08E82C004C003C0021214E8D002D003D0048A828B838CF0122A2DFF0F8AB3
:20185800828B838CF0EF021FE7AD82AE83AFF0C007C006C005121659D005D006D0078D820A
:201878008E838FF0122A2DFC24F65003021908EC240A83F582EC240E83F583E473A9A9A94C
:20189800B8B8D1D1D1F1F118181818181818181818EC2457F582E43405F5837401F08070B3
:2018B8008C0374FE2BF5F005F07401800225E0D5F0FBFB900559F080578C03EB24FBFBC347
:2018D800E49BFB0B0BEB3395E0FAEB2457F582EA3405F5837408F0803774FC2CF5F005F0C2
:2018F8007401800225E0D5F0FBFC900557F080208D828E838FF0E4121FE78D828E838FF062
:20191800122A2DFC2457F582E43405F5837401F08D828E838FF0122A2DFC0C8D828E838F9F
:19193800F0EC021FE7E58290050DF0E0F53622E536B40100E433F5362258
:032B9500256400B4
:202BE00000000000203F3006315B324F3366346D357D3607377F386F3977417C4239435E24
:152C0000447945714673501069546E58637468402D015E085F3E
:201951009004E3E4F0758202120D399004E2E4F0758201020CB590058C7401F075820B123B
:201971000FBCAF82C374509FE433F5822290058CE0601675820B120FBCAF82BF0A005009DB
:2019910090058CE4F0758201227582002290058D7401F0758220120FBCAF82C374509FE458
:2019B10033F5822290058DE06016758220120FBCAF82BF0A00500990058DE4F0758201227B
:2019D10075820022121967E582600712199EE58270047F0080027F018F822212197EE58215
:1219F10060071219B5E58270047F0080027F018F82220E
:022C15000000BD
:201A030075400022120477E582700302031112047E858245E54024FA5003021B63E54075DF
:201A2300F003A4901A2A73021A3C021A4F021A58021A7E021B36021B547411B5450280032C
:201A4300021B63854541754001021B63854542754002021B6390052FE0FEBE1E0B7404B5C9
:201A63004506754004021B63EEB54309854544754003021B63854543021B6390052FE0FE7B
:201A8300BE1016741EB54511900598E4F0A3F0A3F0A3F0754002021B63E544FE6043900572
:201AA30098E0F546A3E0F547A3E0F548A3E0F5498E03E4FCFDFFEBB54627ECB54723EDB509
:201AC300481FEFB5491B741EB545057540028003754005900598E4F0A3F0A3F0A3F0021B38
:201AE30063900598E02401F0A3E03400F0A3E03400F0A3E03400F0EE6031900598E0F546A2
:201B0300A3E0F547A3E0F548A3E0F5498E027D007E007F00C3EA9546ED9547EE9548EF6409
:201B2300808549F063F08095F04035854582121D9D802D7541007542007543007544009064
:201B43000598E4F0A3F0A3F0A3F0F540120311800F120311902B9875F080120ADF7540045C
:201B630090052FE545F0020311E582900532F0E0FF7E00751B108E1C8F828E83C007C006FA
:201B8300122A7FAC82AD83D006D007ED3395E08D028C037C007D0053070FE4CFC4CF6FCFE3
:201BA30054F0CF6FFE900530E079002FFFE93E8F00F93395E0FF89068801E44204E942058E
:201BC300EE4203EF4202900531E0F8E4F9FEFFE84204E94205EE4203EF42028C828D838BB7
:201BE300F0EA22E582900533F0751B00751C20751D0090050E75F000121FC8900598E0FCEA
:201C0300A3E0FDA3E0FEA3E0FFC374019CE49DE49E74808FF063F08095F04057900596E0FA
:201C2300FFAE431E900530EEF0900531E4F08F82121B6CAC82AD83AEF0FF8543268C828D28
:201C4300838EF0EF1212A5900596E0FFAE431E900530EEF09005317401F08F82121B6CAC8B
:201C630082AD83AEF0FF8544268C828D838EF0EF1212A5900596E0FFAE431E900598E0FAAF
:201C8300A3E0A3E0A3E00A900530EEF0900531EAF08F82121B6CAC82AD83AEF0FF900533FE
:201CA300E0F5268C828D838EF0EF1212A5900001021E38E582900534F0900596E0FF90052A
:201CC30034E0900530F0900531E4F08F82121B6CAC82AD83AEF0FF754A0074F8254A50030C
:201CE300021D9AA94AE4C42354E0C9C423C969C954E0C969F83395E0FAFBE92CF9E83DF865
:201D0300EA3EFAEB3FFB75210E75220575230075241F752500898288838AF0EBC007C00647
:201D2300C005C0041211EDD004D005D006D0077B00EB240EF582E43405F583E0FABAFF0278
:201D4300800BBA100280060BBB200040E4E54A701F902B9F75F080C007C006C005C004C0C6
:201D630003120ADFD003D004D005D006D007801D902BA675F080C007C006C005C004C0037D
:201D8300120ADFD003D004D005D006D007BB1F004005054A021CDD020AD6E582900535F0B0
:201DA300AF42BF05028013BF0C028005BF7F238012900535E0F582021BE6900535E0F5824C
:201DC300021CB6902BAD75F080120ADF9003E8021E3822900596E02401F0E024FA500590EC
:201DE3000596E4F022900597E02401F0E024F05005900597E4F022900596E0F5822290058A
:051E030097E0F58222CA
:1C2B98004552524F5221004C6F6164310A004C6F6164320A0045726173650A0005
:0E2C17000000000000000000000000000000AF
:201E080075A15575A1AA74F855B94406F5B975A10022AE82AF83EE4F601505A105A105A1DF
:201E280005A105A105A105A11EBEFF011F80E722AE82AF83EE4F60159003E8C007C0061250
:201E48001E1AD006D0071EBEFF011F80E722AE82AF8310990280FB8E998E828F8322109876
:0C1E68000280FBAE997F008E828F8322E7
:201E7400AF8253FC7FEF700A74F555FA4460F5FA800BBF030874FD55FA4468F5FA53FA7F1F
:201E940053920F4393B05393BF2243FC5043FA01E5F875F8FF228582F930FBFD2275F9FFFE
:201EB40030FBFD85F9822243FC80741D55FA4401F5FA53920F53930F22AF8220FCFDC2FCDE
:0C1ED4008FF92220FCFDC2FC85F982225F
:201EE000F9E51B451C451D451E60777800C308E51E20E73BE51B25E0F51BE51C33F51CE525
:201F00001D33F51DE51E33F51EE582951BE583951CE5F0951DE9951E50D4C3E51E13F51EB3
:201F2000E51D13F51DE51C13F51CE51B13F51BE582951BFCE583951CFDE5F0951DFEE99506
:201F40001E4007F98EF08D838C82C3E51E13F51EE51D13F51DE51C13F51CE51B13F51BD854
:031F6000CEE922A5
:201F6300FB7A20E4FCFDFEFFE5822582F582E58333F583E5F033F5F0EB33FB4017DAE980B7
:201F830042E5822582F582E58333F583E5F033F5F0EB33FBEC33FCED33FDEE33FEEF33FFE6
:201FA300EC951BED951CEE951DEF951E4013EC951BFCED951CFDEE951DFEEF951EFF438218
:051FC30001DABEEB2273
:06007A00E478FFF6D8FD5A
:1F1FC800AC82AD83AE1CAF1DBE0004EF600C1F0FE51B121FE7A3DEFADFF88C828D832211
:200058007966E94400601B7A01902BBF783675A005E493F2A308B8000205A0D9F4DAF275C3
:02007800A0FFE7
:1B1FE70020F71130F6138883A88220F509F6A8837583002280FEF280F5F022F9
:20200200E51B451C60467A01E51B25E0F51BE51C334012F51CE582951BE583951C40030A13
:2020220080E6C3E51C13F51CE51B13F51BC3E582951BF5F0E583951C4005F58385F082C3DE
:0D204200E51C13F51CE51B13F51BDAE1226C
:20204F007A10E4FBFCE58225E0F582E58333F583EB33FBEC33FCEB951BF5F0EC951C40067F
:09206F00FCABF0438201DADD2232
:200080007800E84400600A790075A004E4F309D8FC7836E84401600C7902900400E4F0A33F
:0400A000D8FCD9FAB5
:20207800C01A85811AC082058105810581E51A24FBF8A91A0909E6F70809E6F70809E6F7D6
:20209800A81A080886820886830886F0122A2DFAA3122A2DFBA3122A2DFF74012AFCE43B90
:2020B800FD8F06A81A080886820886830886F0EC121FE7A3ED121FE7A3EE121FE78A828B21
:2020D800838FF0A81A08E6121FE7851A81D01A2285824F85835085F051755F4F7560007511
:2020F8006140854B62854C63854D64854E65902078122210AE82AF83AB4FAC50AD518B8284
:202118008C838DF0E4121FE78E828F8322C01AE581F51A24F8FF8F65E51A24FBFF8F5F75FD
:202138006000756140E51A24F8F88662088663088664902078122210AE82AF83E51A24FB47
:1A215800F886030886040886058B828C838DF0E4121FE78E828F83D01A2204
:02004900E4735E
:20217200AF82C055C056C05712217F8007C053C0548F8222158115811581055DE4B55D022B
:20219200055E22AF8274302FFF24C6500B74072FFFE55260034307208F82022172E582FFA7
:2021B200C4540FF582C007122195D007740F5FF58202219585821BAB58AC59AD5AAE5BAA14
:2021D2005C751D208A07EF2FF51CEE235401451CFAEB2BFBEC33FCED33FDEE33FEC3EA95B4
:2021F2001B4008EAC3951BFA430301E51D14FF8F1D70D18B588C598D5A8E5B8A5C22858223
:2022120053858354855F55856056856157E4F55DF55EAD62AE63AF648D828E838FF0122AB5
:202232002DFC74012DF562E43EF5638F64ECFF70030229F1BF250280030229E97E007D000B
:202252008E668E677A007B008E687C008E69E4F571F572756AFF756BFF856273856374857C
:2022720064758573828574838575F0122A2DF576A385827385837485736285746385756412
:202292007425B57608857682122172808574D025764003022352E57624C65003022352741D
:2022B200FFB56A55B56B5285711B85721C90000AC006C005C004C003C002122A10858277CB
:2022D200858378D002D003D004D005D006857679757A00E5792577F579E57A3578F57AE51D
:2022F2007924D0F571E57A34FFF572E571457260030222747D01022274856A1B856B1C903C
:20231200000AC006C005C004C003C002122A1085827985837AD002D003D004D005D00685D6
:202332007677757800E5772579F579E578357AF57AE57924D0F56AE57A34FFF56B02227493
:20235200742EB5761574FFB56A05B56B028003022274E4F56AF56B022274749F2576500E6E
:20237200E576248540085376DF75520180037552007420B5760302241E742BB5760302244C
:2023920018742DB5760280797442B576030224247443B5760302242F7444B5760302267C5A
:2023B2007446B576030226927448B576030222747449B5760302267C744AB57603022274D4
:2023D200744CB576028050744FB576030226837450B576030225C77453B576028076745400
:2023F200B576030222747455B576030226887458B5760302268D745AB576030222740226F3
:20241200967E010222747566010222747567010222747B01022274756801022274EB600A35
:20243200E56514F989658779800DE56524FEF577857765A9778779857982C006C005C00490
:20245200C003C002122172D002D003D004D005D0060226B8E56524FDF579857965A9798757
:2024720073098774098775191985735885745985755A8573828574838575F0C006C005C07B
:2024920004C003C0021229F885827985837AD002D003D004D005D00674FFB56A09B56B0687
:2024B20085796A857A6BEE704FC3E5799571E57A95725044E571C39579F577E572957AF57C
:2024D20078857773857874157774FFB577021578E5734574601C758220C006C005C004C025
:2024F20003C002122172D002D003D004D005D00680CF857771857872856A77856B78855866
:2025120082855983855AF0122A2DF57385736E604FC3E4957774808578F063F08095F050D5
:202532003F157774FFB577021578856E82C006C005C004C003C002122172D002D003D00429
:20255200D005D006855873855974855A750573E4B57302057485735885745985755A809EB5
:20257200EE70030226B8C3E5799571E57A957240030226B8E571C39579F579E572957AF568
:202592007A857977857A78157974FFB57902157AE577457870030226B2758220C006C005FB
:2025B200C004C003C002122172D002D003D004D005D00680CCE56524FDF577857765A97753
:2025D2008773098774098775191985735885745985755A855A6F7480256F500575774380E4
:2025F2001974A0256F5005757750800E74C0256F50057577498003757758857782C006C0CC
:2026120005C004C003C00212217275823A122172758230122172758278122172D002D0035A
:20263200D004D005D0067449B5770280217450B57702801A855982C006C005C004C003C0BF
:20265200021221AFD002D003D004D005D006855882C006C005C004C003C0021221AFD00279
:20267200D003D004D005D006803C7A0175690A8035756908803075690A802B756910802665
:202692007C018022857682C006C005C004C003C002122172D002D003D004D005D006800669
:2026B200857971857A72EC6068E56524FCFC8C658C01877B09877C09877D09877E1919191C
:2026D200857B58857C59857D5A857E5B7558B475592B755A8085587B85597C855A7D740130
:2026F200257BF573E4357CF574857D7585735885745985755A857B82857C83857DF0122A21
:202712002DFC8C7B7003022224857B8212217280C4E5697003022224EB603FE56514F989DE
:202732006587048C7B757C00757D00757E00857B58857C59857D5A857E5BEA60030227D503
:2027520085587B757C00757D00757E00857B58857C59857D5A857E5B8069E5686025E565C8
:2027720024FCFC8C658C01877B09877C09877D09877E191919857B58857C59857D5A857E28
:202792005B8040E56524FEFC8C658C018703098704198B7BECF57C3395E0F57DF57E857BFF
:2027B20058857C59857D5A857E5BEA701685587B85597CF57DF57E857B58857C59857D5A86
:2027D200857E5BEA602AE55B30E723C3E49558F57BE49559F57CE4955AF57DE4955BF57EC8
:2027F200857B58857C59857D5A857E5B80027A007C017984E4F57BF57C755C00856982C01F
:2028120006C005C004C002C0011221C6D001D002D004D005D006EC700DE55CC4F579E7FBBB
:202832004579F7198002A75C057BE4B57B02057CECB40100E433FCE5584559455A455B70DE
:20285200B88970857B6C857C6DE57145727005757101F572ED7043EE704085717B85727CE9
:20287200AB6C0B8B79757A00C3E579957BE57A957C5021758220C006C005C004C0021221C4
:2028920072D002D004D005D006157B74FFB57B02157C80CC857B71857C72EA601D75822DE2
:2028B200C006C005C004122172D004D005D006157174FFB5710215728046E56C456D604082
:2028D200E566601D75822BC006C005C004122172D004D005D006157174FFB5710215728061
:2028F2001FE567601B758220C006C005C004122172D004D005D006157174FFB571021572AE
:20291200EE703C85717B85727CAA7BAB7C157B74FFB57B02157CC3E56C9AE56D9B5041EDFC
:2029320060067A307B0080047A207B008A82C006C005C004122172D004D005D00680CAC3D5
:20295200E56C9571E56D9572500FE571C3956CF579E572956DF57A800DE4F579F57A800632
:20297200857B79857C7AA970856C7B856D7CAA7BAD7C157B74FFB57B02157CEA4D602EEC99
:20299200B40100E433FC700A09E7C4540FFD8D5C80078705740F5DF55C855C82C006C004B5
:2029B200C001122195D001D004D00680C1EE7003022224AD79AE7A8D038E041DBDFF011EAF
:2029D200EB4C7003022224758220C006C005122172D005D00680E08F82122172022224851E
:0629F2005D82855E832278
:0B2BB4003C4E4F20464C4F41543E0069
:1829F800AA82AB83122A2D6003A380F8C3E5829AF582E5839BF58322AE
:1D2A1000E582851BF0A4C582C0F0851CF0A4D0F025F0C583851BF0A42583F583224F
:0D004B00758184122AB7E582600302004629
:1C2A2D0020F71430F6148883A88220F507E6A88375830022E280F7E49322E022B8
:202A4900C2D5E58330E70DD2D5E4C39582F582E49583F583E51C30E70BE4C3951BF51BE48C
:162A6900951CF51C12200230D50BE4C39582F582E49583F5832286
:202A7F00C2D5E58330E70DD2D5E4C39582F582E49583F583E51C30E70DB2D5E4C3951BF5CC
:182A9F001BE4951CF51C12204F30D50BE4C39582F582E49583F5832202
:042AB7007582002202
:00000001FF
