:0400000002004B327D
:01000B0032C2
:0100130032BA
:01001B0032B2
:0100230032AA
:01002B0032A2
:01003300329A
:01003B003292
:030043000200B602
:0C00A400750D00E4F510F511F512F513D0
:0300B30002004602
:030046000205B8F8
:2000B600C020C0E0C0F0C082C083C007C006C005C004C003C002C001C000C0D075D0001272
:2000D6000D54D0D0D000D001D002D003D004D005D006D007D083D082D0F0D0E0D02032AF87
:2000F600827E00C3EE9F501BD2B09000FAC007C006121469C2B09000FA121469D006D007CF
:200116000E80E022AF827E00751C108E1D8F828E83C007C006121678AC82AD83D006D007E4
:20013600ED3395E08D028C037C007D0053070FE4CFC4CF6FCF54F0CF6FFEA8147900E82F44
:20015600FFE93E8F00F93395E0FF89068801E44204E94205EE4203EF4202A815E4F9FEFFC5
:20017600E84204E94205EE4203EF42028C828D838BF0EA22AF82751C00751D20751E009069
:20019600040075F000C0071215F9D007C374019510E49511E4951274808513F063F080954C
:2001B600F04048E50B14F514751500850D82C00712011AAB82AC83ADF0FE850B368B828CBC
:2001D600838DF0EE121226E50B14F514751501850D8212011AAB82AC83ADF0FE850C368BAF
:2001F600828C838DF0EE121226D007E50B14F514E51004F515850D82C00712011AAB82ACDB
:2002160083ADF0FED0078F368B828C838DF0EEC007C006C005C004C00312122690000112C1
:2002360014699016B475F080120E7CD003D004D005D0069004BC7410F08B828C838DF0EEB3
:20025600120F67120E73D0077E007D007C009004BC7410F08F828E838DF0EC120F679016A2
:20027600C875F080120E7C020E73AF829016CA75F080C007120E7CD0078F14751500850D1D
:200296008212011A85821685831785F018F5199004BC7410F08516828517838518F0E51937
:2002B600120F679016E075F080120E7C74FF2516F8E43517F9E43518FAE43519FB9004BC22
:2002D6007410F0888289838AF0EB120F679016E275F080120E7C120E737B00BB0800400374
:2002F6000203858B01E4C42354E0C9C423C969C954E0C969F83395E0FAFFE92516F9E835EF
:2003160017F8EA3518FAEF3519FF75310075320475330075341F753500898288838AF0EF61
:20033600C00312116ED003EB70057E02FF80047E007F00BE2000502EEE2400F582E434041F
:20035600F583E0FFBFFF02801DBF100280187D007C008F828D838CF0C006C003120E7CD0DF
:2003760003D0060E80CDBE1F0040040B0202F1020E73AF82AE0ABE0502800FBE0C02800501
:20039600BE7F1B800A8F8202018A8F820202809016E475F080120E7C9003E80214692212F9
:2003B6001439C2B090000A1214691205BE1206A11210527582031200F5750800221208146F
:2003D600E58270030205B212081BAF82E50824FA50030205B0E50875F003A49003F5730203
:2003F60004070204430204770204EF02057B02059ABF110280030205B08F09750801901636
:20041600EB75F080C007120E7CD0078F037C007D007E009004BC7410F08B828C838DF0EE68
:20043600C007120F67120E73D0070205B08F0A7508029016FC75F080C007120E7CD0078FCE
:20045600037C007D007E009004BC7410F08B828C838DF0EEC007120F67120E73D007020501
:20047600B0741EB50F09BF04067508040205B0E50FB50B348F0C75080390170875F080C0FF
:2004960007120E7CD0078F037C007D007E009004BC740AF08B828C838DF0EEC007120F672F
:2004B600120E73D0070205B08F0B90171575F080C007120E7CD0078F037C007D007E0090F7
:2004D60004BC7410F08B828C838DF0EEC007120F67120E73D0070205B07410B50F12BF1EA4
:2004F6000FE4F510F511F512F5137508020205B0E50CFE6031E4FDFCFBEEB51029EDB511BC
:2005160025ECB51221EBB5131DBF1E057508028003750805C007120E73D007E4F510F51176
:20053600F512F51380740510E4B5100C0511B511070512B512020513E50CFE601D7D007C98
:20055600007B00C3EE9510ED9511EC9512EB64808513F063F08095F040408F82C007120372
:2005760088D0078035E4F509F50AF50BF50CF510F511F512F513F508C007120E731206AE38
:20059600D0078016C007120E731206AE90171F75F080120E7CD0077508048F0F1206AE02B3
:0805B60003D31203B50203D3C5
:2016B400536176696E6720696E20616464726573733A20002C004C6F6164206461746120D1
:2016D40066726F6D20616464723A20002D003A0045726173650A0044657669636520436FAA
:2016F4006E74726F6C3A20004F7065726174696F6E3A2000506172616D2053697A653A203C
:1217140000506172616D20233A20004552524F5221008A
:0817DD00000000000000000004
:2005BE00120E24120E4B120E3A75DD0075D30075D50022900511E4F0900513F0227F0074E7
:2005DE00F925DB50067D077E008004ADDB7E008F037C00C3EB9DEC64808EF063F08095F023
:2005FE00501CEF240AFDE43405FEEF2425F582E43404F583E0FC8D828E83F00F80C1227F1C
:20061E00008F057E00C3ED9407EE9400501CEF2425FDE43404FEEF240AF582E43405F583F9
:20063E00E0FC8D828E83F00F80D790000722900427E0FF900514F0E020E04790050AE0FCBC
:20065E00A3E0FDA3E0FEA3E0FFBCB036BD0433BE0030BF002D75E200C2AF758900751A0034
:20067E00751B3890C35012144B90C35012144BAE1AAF1BC007C0068E828F83120049D006FA
:20069E00D007227F00900514E060027F018F8222900513E07018900515E0FFE060108FD5D9
:2006BE0053D4FC9005137401F0900515E4F022AF82900514E060617D007E00900513E060EE
:2006DE00240DBD00010E900005C007C006C00512144BD005D006D007C3ED9450EE94C3400C
:2006FE00DA75820022900515E0FEBE400050207D0074402EFEE43DFDEE2435F582ED340495
:20071E00F583EFF0900515E02401F075820122C0071206AED007809F75820022AFF0AE833F
:20073E00E582900422F0EEA3F0EFA3F0900514E07003020810900420E0FEA3E0FFC3E49E1C
:20075E0074808FF063F08095F040030208107E007F00900513E060200EBE00010F900005DD
:20077E00C007C00612144BD006D007C3EE9450EF94C340DE75820022900422E0FDA3E0FE8A
:20079E00A3E0FF900420E0FBA3E0FCC3E49B74808CF063F08095F0509C900515E0FABA4037
:2007BE000050498A017A00744029F9E43AFAE92435F9EA3404FA8D828E838FF012165CF81D
:2007DE00A3AD82AE83900422EDF0EEA3F0EFA3F089828A83E8F0900515E02401F01BBBFFFE
:2007FE00011C900420EBF0ECA3F0809F1206AE02075375820022900511E0F5822290051191
:20081E00E07003F58222900512E02435F582E43404F583E0FF900512E004F0900511E014EF
:20083E00F0E0700353D4F38F822275D50074FC55D44402F5D4900513E4F02230DE199005BE
:18085E0011E5DBF0900512E4F0900511E0600874F355D44408F5D42291
:0C17E50000E1000000000800000000000F
:2017260012011001EF020108091250C5010101020301120009024B000201008064080B00EA
:201746000202020104090400000102020104052400100105240100000424020205240600A2
:20176600010705810308004009040100020A00000407050202400000070582024000004B01
:20178600000403090404000C03430048003500350078000C0016034300480035003500781D
:2017A600006400750069006E006F00160016034300440043002000530065007200690061F7
:1517C600006C0016000E0344006500710069006E0067000E0015
:0300B000752700B1
:20087600AFDBBF08028003020C9290042CE0FE7F0090042BE0FD7C004FF521EC4EF5227F82
:2008960000900426E0F5238F27900425E0FE546060508E045304607D00BC2005BD000280F9
:2008B6000BBC4039BD00367FFF020C947420B52303020C947421B5230280077422B5231842
:2008D600800C12061DAC82AD838C07020C94C00712064CD007020C947FFF020C947FFF026A
:2008F6000C94E52324F45003020C8EE523240B83F582E523241083F583E47370AC8E668ED6
:200916007B298E88A394940C0A0C0B0C0A090C0A0A0C0C900428E0FDBD0102800DBD020211
:20093600801DBD0302802D020A09752526752617901738E493FC740193FD8C07020A0B7598
:20095600253A752617901785E493FC740193FD8C07020A0B900427E070157525877526172F
:2009760090178BE493FC740193FD8C07020A0B900427E0FDBD01147525CB7526179017D90C
:20099600E493FC740193FD8C07806A900427E0FDBD021475259B7526179017B1E493FC74BB
:2009B6000193FD8C07804E900427E0FDBD031475258D752617901799E493FC740193FD8CA6
:2009D600078032900427E0FDBD04147525B37526179017C9E493FC740193FD8C0780167556
:2009F600258D752617901799E493FC740193FD8C0780027FFFBFFF03020C948F047D00C3FC
:200A1600EC9521ED952250048C218D22AC21AD22C3EC9408ED940040067A087B008004AAF1
:200A360021AB228A077B00C3EB9F501DEB2425F9E43404FAEB2525F582E43526F583E493CF
:200A5600F889828A83F00B80DE8F027B00ECC39AFCED9BFD8C218D22EF2525F525E4352653
:200A7600F526020C94900427E0FD8D21752200020C94900425E524F0AC21AD22C3EC940192
:200A9600ED94005003020C947F01020C94900427E0F524020C94EE541F702F900428E0FCBA
:200AB6007D00900427E0FB7A004205EA4204BD0114BC0011901741E493FD30E503020C9467
:200AD6007FFF020C947FFF020C948E0453041F7D00BC0277BD0074900429E0FDBD010280FB
:200AF6005FBD02028049BD03028033BD0402801DBD81028040BD8202802ABD83028014BDA4
:200B1600844474BC55DE4402F5DE020C9453DE73020C9474BC55D64402F5D6020C9453D65C
:200B360073020C9474BC55D44402F5D4020C9453D473020C9474BC55D24402F5D2020C943E
:200B560053D273020C947FFF020C947FFF020C94EE541F702F900428E0FC7D00900427E055
:200B7600FB7A004205EA4204BD0114BC0011901741E493FD30E503020C947FFF020C947F1F
:200B9600FF020C9453061F7D00BE0205BD00028003020C6C900428E0FD7E00900427E0FC7A
:200BB6007B004206EB4205EE4D6003020C6890042AE0FD7E00900429E0FC7B004206EB4274
:200BD60005BE0106BD0003020C5CBE0205BD00028060BE0305BD00028044BE0405BD0002D8
:200BF6008028BE8105BD00028052BE8205BD00028036BE8305BD0002801ABE8451BD004E6B
:200C160074BF55DE4403F5DE8074747F55DE440CF5DE806A74BF55D64403F5D68060747FD4
:200C360055D6440CF5D6805674BF55D44403F5D4804C747F55D4440CF5D4804274BF55D2F9
:200C56004403F5D28038747F55D2440CF5D27FFF802C7FFF80287FFF8024900425E4F090F8
:200C76000426F0AD21AE22C3ED9402EE940040047F02800AAF2180067FFF80027FFFBFFFFD
:200C9600077523FF75DCCF22EF24F740068FDD75DCC02275DD0075DCC0227405B523028017
:200CB600637406B5236CAE21AF22C3EE9408EF940040067C087D008004AC21AD227D00C3E6
:200CD600ED9C501DED2425FAE43404FBED2525F582E43526F583E493F98A828B83F00D8055
:200CF600DE8C037D00EEC39BFEEF9DFF8E218F22EC2525F525E43526F5268CDDAEDC6306B9
:200D1600408EDC22E5E35480FFE5214FF5E375DC022275DD0075DC02227420B5230D30DE66
:200D3600101205DB75DD0085DCDC2275DD0043DC022275D30074FC55D24402F5D22220D94E
:200D560003020DFFE5D9540FFFADD95305307E00BD0005BE0002801CBD1005BE000280365A
:200D7600BD2005BE00028043BD3006BE0003020DE5020DFDEF24FB5003020DFDEF2F900D1C
:200D96009873800880618009805D805B120D2F80561208598051EF24FB404CEF2F900DB714
:200DB60073804480428040803E803CEF24FB4037EF2F900DCC738008800B800E802980277A
:200DD600120CB08022120D48801D1208488018EF24FB4013EF2F900DF07380088009800778
:200DF60080058003120876C2D930D81575DC0275D21275D41275E300C2DAC2D9C2D8120546
:200E1600D110DA0122E5DA20E20375D8FF2275E20053E27F43E22975E30053E2BF53D1FBE8
:200E360043D1012243E10443E10243E10143D81FD2EAD2AF227E2D7F048EEE8FEF7E357FFF
:1D0E5600048EE48FE575EB0C75D21275D4127E257F048EEC8FED75EA4075DC022245
:200E73009017DB75F080020E7CAFF0AE83E5829004B5F0EEA3F0EFA3F09004B5E0FDA3E050
:200E9300FEA3E0FF9004B5E0F5F0A3E045F07003F582227C008D828E838FF012165CFBA3B0
:200EB300AD82AE839004B5EDF0EEA3F0EFA3F0EBFA601C8A82C007C006C005C0041206CD2E
:200ED300E582D004D005D006D00760030C80C69004B5EDF0EEA3F0EFA3F0C0041206AED00A
:200EF300048C8222AFF0AE83E5829004B9F0EEA3F0EFA3F09004B9E0FDA3E0FEA3E0FF7C8B
:200F1300009004B8E0FB8B021BEA603A8D828E838FF012165CFAA3AD82AE839004B9EDF021
:200F3300EEA3F0EFA3F08A82C007C006C005C004C0031206CDE582D003D004D005D006D048
:200F53000760030C80C09004B9EDF0EEA3F0EFA3F08C8222AF82AE83ADF0FC9004BDEFF040
:200F7300EEA3F0EDA3F0ECA3F09004E1E4F09004BCE0FFBF020050069004BC740AF09004FD
:200F9300BCE0F5287DE17E049004BDE0F529A3E0F52AA3E0F52BA3E0F52C85282D752E00F0
:200FB300752F00753000852D1C852E1D852F1E85301F852982852A83852BF0E52CC006C0F8
:200FD30005121511A982852D1C852E1D852F1E85301F852982852A83852BF0E52CC001126C
:200FF3001594AA82AB83ACF0FFD001D005D0069004BDEAF0EBA3F0ECA3F0EFA3F01DBDFF41
:20101300011E8D048E07B90A005008890374302BFB8004743729FB8C828F83EBF09004BD68
:1F103300E0F5F0A3E042F0A3E042F0A3E045F06003020F9B7F008D828E838FF0020E7CFE
:0217DB000A0002
:201052007582031214A575FB02D294021430C29422D29422AF82BFAB02800BC00712121276
:20107200E582D00770F5C007121060D0078F820214DB75829F12106690000212144B121452
:20109200E2AE827F00C007C0061214E2AD82D006D0077C00EF4205EE4204C005C0041210AB
:2010B20063D004D0058D828C832275824B12106690000212144B7582001214DB7582001204
:2010D20014DB7582001214DB7582001214DB90000212144B7F00BF08005022EF2416FDE45A
:2010F2003405FEC007C006C0051214E2AC82D005D006D0078D828E83ECF00F80D9121063B4
:2011120090051675F00022AC82AD83AEF0FF758203C007C006C005C004121066D004D0054F
:20113200D0068E82C006C005C0041214DBD004D0058D82C005C0041214DBD004D005D006A6
:20115200D0078C821214DB90000212144B1214E2AF82C007121063D0078F8222AC82AD83A7
:20117200AEF0FF75820BC007C006C005C004121066D004D005D0068E82C006C005C0041230
:2011920014DBD004D0058D82C005C0041214DBD004D005D006D0078C821214DB758200129E
:2011B20014DB7E007F00C3EE9534EF95355036AB31AC32AD33EE2BFBEF3CFCC007C006C056
:2011D20005C004C0031214E2AA82D003D004D005D006D0078B828C838DF0EA1216180EBE85
:2011F20000C40F80C10210631210607582051214DB1214E2AF82C007121063D0078F822246
:201212001211FAE58213E433F58222758206121066021063AC82AD83AEF0FFC007C006C033
:2012320005C00412121D758202121066D004D005D0068E82C006C005C0041214DBD004D08E
:20125200058D82C005C0041214DBD004D005D006D0078C821214DB8536821214DB021063C6
:2012720085823C85833D85F03EF53FA83CE4F9FAFBC398F542740199F543E4F544F545E523
:201292003A453B700122C3E542953AE543953B4006AA3AAB3B8004AA42AB438A408B411228
:2012B200121D758202121066853E821214DB853D821214DB853C821214DB78007900C3E801
:2012D2009540E995415031AD37AE38AF39E82544FBE93545FCEB2DFDEC3EFE8D828E838F9E
:2012F200F012165CF582C001C0001214DBD000D00108B800C90980C6121063AA40AB41E4B7
:20131200FEFFEA253CF53CEB353DF53DEE353EF53EEF353FF53FE5402544F544E541354521
:20133200F545E53AC39540F53AE53B9541F53B8F4275430102129112121D75826012106606
:20135200021063AC82AD83AEF0FFC007C006C005C00412121D758220121066D004D005D09C
:20137200068E82C006C005C0041214DBD004D0058D82C005C0041214DBD004D005D006D064
:20139200078C821214DB021063AC82AD83AEF0FFC007C006C005C00412121D7582521210F3
:2013B20066D004D005D0068E82C006C005C0041214DBD004D0058D82C005C0041214DBD0C4
:2013D20004D005D006D0078C821214DB021063AC82AD83AEF0FFC007C006C005C0041212BC
:2013F2001D7582D8121066D004D005D0068E82C006C005C0041214DBD004D0058D82C0050B
:20141200C0041214DBD004D005D006D0078C821214DB0210637582B9121066021063758277
:07143200AB1210660210630B
:0817F1000000000000000000F0
:2014390075A15575A1AA74F855B94406F5B975A10022AE82AF83EE4F601505A105A105A1B8
:2014590005A105A105A105A11EBEFF011F80E722AE82AF83EE4F60159003E8C007C0061229
:20147900144BD006D0071EBEFF011F80E722AE82AF8310990280FB8E998E828F8322109828
:0C1499000280FBAE997F008E828F8322C0
:2014A500AF8253FC7FEF700A74F555FA4460F5FA800BBF030874FD55FA4468F5FA53FA7FF8
:2014C50053920F4393B05393BF2243FC5043FA01E5F875F8FF228582F930FBFD2275F9FFD7
:2014E50030FBFD85F9822243FC80741D55FA4401F5FA53920F53930F22AF8220FCFDC2FCB7
:0C1505008FF92220FCFDC2FC85F9822237
:20151100F9E51C451D451E451F60777800C308E51F20E73BE51C25E0F51CE51D33F51DE5F4
:201531001E33F51EE51F33F51FE582951CE583951DE5F0951EE9951F50D4C3E51F13F51F82
:20155100E51E13F51EE51D13F51DE51C13F51CE582951CFCE583951DFDE5F0951EFEE995D6
:201571001F4007F98EF08D838C82C3E51F13F51FE51E13F51EE51D13F51DE51C13F51CD824
:03159100CEE9227E
:20159400FB7A20E4FCFDFEFFE5822582F582E58333F583E5F033F5F0EB33FB4017DAE98090
:2015B40042E5822582F582E58333F583E5F033F5F0EB33FBEC33FCED33FDEE33FEEF33FFBF
:2015D400EC951CED951DEE951EEF951F4013EC951CFCED951DFDEE951EFEEF951FFF4382E9
:0515F40001DABEEB224C
:06007A00E478FFF6D8FD5A
:1F15F900AC82AD83AE1DAF1EBE0004EF600C1F0FE51C121618A3DEFADFF88C828D8322BF
:20005800791CE94400601B7A019017DD780275A005E493F2A308B8000205A0D9F4DAF27537
:02007800A0FFE7
:1B16180020F71130F6138883A88220F509F6A8837583002280FEF280F5F022D1
:200080007800E84400600A790075A004E4F309D8FC7802E84401600C7902900400E4F0A373
:0400A000D8FCD9FAB5
:201633007A10E4FBFCE58225E0F582E58333F583EB33FBEC33FCEB951CF5F0EC951D4006A3
:09165300FCABF0438201DADD2258
:0F004900E4737581451216B0E58260030200462C
:1C165C0020F71430F6148883A88220F507E6A88375830022E280F7E49322E0229D
:20167800C2D5E58330E70DD2D5E4C39582F582E49583F583E51D30E70DB2D5E4C3951CF5E5
:181698001CE4951DF51D12163330D50BE4C39582F582E49583F5832240
:0416B000758200221D
:00000001FF
