:0400000002004B327D
:01000B0032C2
:0100130032BA
:01001B0032B2
:0100230032AA
:01002B0032A2
:01003300329A
:01003B003292
:030043000200AA0E
:0300A7000200460E
:030046000203AB07
:2000AA00C020C0E0C0F0C082C083C007C006C005C004C003C002C001C000C0D075D000127E
:2000CA000B70D0D0D000D001D002D003D004D005D006D007D083D082D0F0D0E0D02032AF79
:2000EA00827E00C3EE9F501BD2B09000FAC007C00612127CC2B09000FA12127CD006D007B9
:20010A000E80E09003E802127C90144775F080120C8F120E97AE82AF837D007C0090042C0D
:20012A007410F08E828F838DF0EC120D7A90145275F080120C8F9003E812127C758202027F
:20014A0000E990145875F080120C8F120ECFAD82AE83AFF07C00BC08005044EC2DF9E43E28
:20016A00FA8F0389828A838BF0121427F879007A007B0090042C7410F0888289838AF0EBF4
:20018A00C007C006C005C004120D7A90146475F080120C8FD004D005D006D0070C80B790E3
:2001AA00145275F080120C8F9003E812127C7582020200E990146675F080120C8F75080025
:2001CA0074F82508500302027A90147675F080120C8FAB087C007D007E0090042C740AF0A7
:2001EA008B828C838DF0EE120D7A90147E75F080120C8F7B007C007D007E00C3EB9420ECE1
:20020A009400ED9400EE94005061AA087900EAF83395E0FAFFEB29F9EC38F8ED3AFAEE3F67
:20022A00898288838AF0C006C005C004C003120F2CAF828F0079007A007F0090042C74104F
:20024A00F0888289838AF0EF120D7A90146475F080120C8FD003D004D005D0060BBB0009D1
:20026A000CBC00050DBD00930E809005080201CA90145275F080120C8F9003E812127C753A
:20028A0082020200E990148075F080120C8F7F00BF0800400302033C90147675F080C0079F
:2002AA00120C8FD0078F037C007D007E0090042C740AF08B828C838DF0EEC007120D7A9002
:2002CA00147E75F080120C8FD0078F058D067D00EE3395E0FCFB7521007522048D2375246E
:2002EA001F8D258D828E838CF0EBC007120F81D0077E00BE20005036EE2400F582E43404D5
:20030A00F583E0FD7C007B007A0090042C7410F08D828C838BF0EAC007C006120D7A90148C
:20032A006475F080120C8FD006D0070E80C50F02029A90147E75F080120C8F9003E81212BD
:20034A007C7582020200E990149D75F080120C8F12100DAF827E007D007C0090042C740A4B
:20036A00F08F828E838DF0EC120D7A90147E75F080120C8F9003E812127C7582020200E9AC
:20038A009014A675F080120C8F12115C9014B775F080120C8F9003E812127C7582020200F5
:2003AA00E912124C90000A12127C1203DA1204B4120E657582031200E99003E812127C1240
:1003CA00028F12038A12028F9007D012127C80EFDA
:201447004465766963652049643A000A456E640A00556E697175652049643A0A002E0052FB
:20146700656164696E6720627974652E2E2E000A506167653A20000A0052656164696E67FA
:2014870020746F206172726179206F662062797465732E2E2E005374617475733A2000451A
:1814A700726173696E6720636869702E2E2E2000446F6E6521200A006A
:0815740000000000000000006F
:2003DA00120C40120C67120C5675DD0075D30075D50022900481E4F0900483F0227F0074A1
:2003FA00F925DB50067D077E008004ADDB7E008F037C00C3EB9DEC64808EF063F08095F009
:20041A005017EF247AFDE43404FE8F82758300E0FC8D828E83F00F80C6227F008F057E00BA
:20043A00C3ED9407EE940050188F057E00EF247AF582E43404F583E0FC8D828E83F00F8048
:20045A00DB90000722900002E0FF900484F0E020E04790047AE0FCA3E0FDA3E0FEA3E0FFE1
:20047A00BCB036BD0433BE0030BF002D75E200C2AF758900750900750A3890C35012125ED2
:20049A0090C35012125EAE09AF0AC007C0068E828F83120049D006D007227F00900484E05D
:2004BA0060027F018F8222900483E07018900485E0FFE060108FD553D4FC9004837401F043
:2004DA00900485E4F022AF82900484E060617D007E00900483E060240DBD00010E90000525
:2004FA00C007C006C00512125ED005D006D007C3ED9450EE94C340DA75820022900485E087
:20051A00FEBE400050207D0074402EFEE43DFDEE2414F582ED3400F583EFF0900485E024A8
:20053A0001F075820122C0071204C1D007809F75820022AFF0AE83E582900422F0EEA3F08B
:20055A00EFA3F0900484E07003020623900420E0FEA3E0FFC3E49E74808FF063F08095F045
:20057A0040030206237E007F00900483E060200EBE00010F900005C007C00612125ED00629
:20059A00D007C3EE9450EF94C340DE75820022900422E0FDA3E0FEA3E0FF900420E0FBA390
:2005BA00E0FCC3E49B74808CF063F08095F0509C900485E0FABA400050498A017A00744010
:2005DA0029F9E43AFAE92414F9EA3400FA8D828E838FF0121427F8A3AD82AE83900422ED0B
:2005FA00F0EEA3F0EFA3F089828A83E8F0900485E02401F01BBBFF011C900420EBF0ECA3E0
:20061A00F0809F1204C102056675820022900481E0F58222900481E07003F58222900482AF
:20063A00E02414F582E43400F583E0FF900482E004F0900481E014F0E0700353D4F38F8241
:20065A002275D50074FC55D44402F5D4900483E4F02230DE19900481E5DBF0900482E4F089
:0F067A00900481E0600874F355D44408F5D4224D
:0C157C0000E1000000000800000000007A
:2014BF0012011001EF020108091250C5010101020301120009024B000201008064080B0054
:2014DF0002020201040904000001020201040524001001052401000004240202052406000C
:2014FF00010705810308004009040100020A00000407050202400000070582024000004B6B
:20151F00000403090404000C03430048003500350078000C00160343004800350035007886
:20153F00006400750069006E006F0016001603430044004300200053006500720069006160
:15155F00006C0016000E0344006500710069006E0067000E007E
:0300A400751100D3
:20068900AFDBBF08028003020AB2900007E0FE7F00900006E0FD7C004FF50BEC4EF50C7FD1
:2006A90000900001E0F50D8F11900000E0FE54606053900000E0FE5306607D00BE2005BD05
:2006C9000002800BBE4039BD00367FFF020AB47420B50D03020AB47421B50D02800774228D
:2006E900B50D18800C120434AD82AE838D07020AB4C00712045FD007020AB47FFF020AB47C
:200709007FFF020AB4E50D24F45003020AAEE50D240B83F582E50D241083F583E47390BE9A
:20072900AE7EAE8D3FAE9AB5B4B40A080A090A08070A08080A0A900003E0FEBE0102800D7A
:20074900BE0202801DBE0302802D02081F750FBF7510149014D1E493FD740193FE8D070237
:200769000821750FD375101490151EE493FD740193FE8D07020821900002E07015750F20C0
:20078900751015901524E493FD740193FE8D07020821900002E0FEBE0114750F64751015EF
:2007A900901572E493FD740193FE8D07806A900002E0FEBE0214750F3475101590154AE4B8
:2007C90093FD740193FE8D07804E900002E0FEBE0314750F26751015901532E493FD7401CF
:2007E90093FE8D078032900002E0FEBE0414750F4C751015901562E493FD740193FE8D0754
:200809008016750F26751015901532E493FD740193FE8D0780027FFFBFFF03020AB48F05FB
:200829007E00C3ED950BEE950C50048D0B8E0CAD0BAE0CC3ED9408EE940040067B087C0047
:200849008004AB0BAC0C8B077C00C3EC9F50198C027B00EC250FF582E43510F583E493F927
:200869008A828B83F00C80E28F037C00EDC39BFDEE9CFE8D0B8E0CEF250FF50FE43510F5A2
:2008890010020AB4900002E0FE8E0B750C00020AB4900000E50EF0AD0BAE0CC3ED9401EE1D
:2008A90094005003020AB47F01020AB4900002E0F50E020AB4900000E0541F702F900003FE
:2008C900E0FD7E00900002E0FC7B004206EB4205BE0114BD00119014DAE493FE30E50302A3
:2008E9000AB47FFF020AB47FFF020AB4900000E0FE53061F7D00BE0277BD0074900004E076
:20090900FEBE0102805FBE02028049BE03028033BE0402801DBE81028040BE8202802ABE23
:2009290083028014BE844474BC55DE4402F5DE020AB453DE73020AB474BC55D64402F5D603
:20094900020AB453D673020AB474BC55D44402F5D4020AB453D473020AB474BC55D2440253
:20096900F5D2020AB453D273020AB47FFF020AB47FFF020AB4900000E0541F702F900003FE
:20098900E0FD7E00900002E0FC7B004206EB4205BE0114BD00119014DAE493FE30E50302E2
:2009A9000AB47FFF020AB47FFF020AB4900000E0FE53061F7D00BE0205BD00028003020A7E
:2009C9008C900003E0FD7E00900002E0FC7B004206EB4205EE4D6003020A88900005E0FD8D
:2009E9007E00900004E0FC7B004206EB4205BE0106BD0003020A7CBE0205BD00028060BEDC
:200A09000305BD00028044BE0405BD00028028BE8105BD00028052BE8205BD00028036BEC7
:200A29008305BD0002801ABE8451BD004E74BF55DE4403F5DE8074747F55DE440CF5DE80F1
:200A49006A74BF55D64403F5D68060747F55D6440CF5D6805674BF55D44403F5D4804C7418
:200A69007F55D4440CF5D4804274BF55D24403F5D28038747F55D2440CF5D27FFF802C7FF0
:200A8900FF80287FFF8024900000E4F0900001F0AD0BAE0CC3ED9402EE940040047F028020
:200AA9000AAF0B80067FFF80027FFFBFFF07750DFF75DCCF22EF24F740068FDD75DCC022EE
:200AC90075DD0075DCC0227405B50D02805F7406B50D68AE0BAF0CC3EE9408EF940040063E
:200AE9007C087D008004AC0BAD0C7D00C3ED9C50198D027B00ED250FF582E43510F583E49F
:200B090093F98A828B83F00D80E28C037D00EEC39BFEEF9DFF8E0B8F0CEC250FF50FE43575
:200B290010F5108CDDAEDC6306408EDC22E5E35480FFE50B4FF5E375DC022275DD0075DCA5
:200B490002227420B50D0D30DE101203F775DD0085DCDC2275DD0043DC022275D30074FCDD
:200B690055D24402F5D22220D903020C1BE5D9540FFFADD95305307E00BD0005BE00028043
:200B89001CBD1005BE00028036BD2005BE00028043BD3006BE0003020C01020C19EF24FB8B
:200BA9005003020C19EF2F900BB473800880618009805D805B120B4B805612066C8051EFA6
:200BC90024FB404CEF2F900BD373804480428040803E803CEF24FB4037EF2F900BE8738089
:200BE90008800B800E80298027120AD08022120B64801D12065B8018EF24FB4013EF2F90B5
:200C09000C0C7380088009800780058003120689C2D930D81575DC0275D21275D41275E3E8
:200C290000C2DAC2D9C2D81203ED10DA0122E5DA20E20375D8FF2275E20053E27F43E22940
:200C490075E30053E2BF53D1FB43D1012243E10443E10243E10143D81FD2EAD2AF227E0A55
:200C69007F008EEE8FEF7E147F008EE48FE575EB0C75D21275D4127E007F008EEC8FED7573
:060C8900EA4075DC0222C6
:200C8F00AFF0AE83E582900425F0EEA3F0EFA3F0900425E0FDA3E0FEA3E0FF900425E0F53B
:200CAF00F0A3E045F07003F582227C008D828E838FF0121427FBA3AD82AE83900425EDF075
:200CCF00EEA3F0EFA3F0EBFA601C8A82C007C006C005C0041204E0E582D004D005D006D0D3
:200CEF000760030C80C6900425EDF0EEA3F0EFA3F0C0041204C1D0048C8222AFF0AE83E53C
:200D0F0082900429F0EEA3F0EFA3F0900429E0FDA3E0FEA3E0FF7C00900428E0FB8B021B3A
:200D2F00EA603A8D828E838FF0121427FAA3AD82AE83900429EDF0EEA3F0EFA3F08A82C0CE
:200D4F0007C006C005C004C0031204E0E582D003D004D005D006D00760030C80C090042979
:200D6F00EDF0EEA3F0EFA3F08C8222AF82AE83ADF0FC90042DEFF0EEA3F0EDA3F0ECA3F039
:200D8F00900451E4F090042CE0FFBF0200500690042C740AF090042CE0F5127D517E049020
:200DAF00042DE0F513A3E0F514A3E0F515A3E0F516851217751800751900751A0085171B55
:200DCF0085181C85191D851A1E8513828514838515F0E516C006C005121324A98285171B62
:200DEF0085181C85191D851A1E8513828514838515F0E516C0011213A7AA82AB83ACF0FF76
:200E0F00D001D005D00690042DEAF0EBA3F0ECA3F0EFA3F01DBDFF011E8D048E07B90A004C
:200E2F005008890374302BFB8004743729FB8C828F83EBF090042DE0F5F0A3E042F0A3E0E9
:160E4F0042F0A3E045F06003020DAE7F008D828E838FF0020C8FC8
:200E65007582031212B875FB02D294021243C29422D29422AF82BFAB02800BC00712102532
:200E8500E582D00770F5C007120E73D0078F820212EE75829F120E7990000212125E1212FF
:200EA500F5AE827F00C007C0061212F5AD82D006D0077C00EF4205EE4204C005C004120E78
:200EC50076D004D0058D828C832275824B120E7990000212125E7582001212EE75820012AD
:200EE50012EE7582001212EE7582001212EE90000212125E7F00BF08005022EF2486FDE495
:200F05003404FEC007C006C0051212F5AC82D005D006D0078D828E83ECF00F80D9120E7681
:200F250090048675F00022AC82AD83AEF0FF758203C007C006C005C004120E79D004D005BE
:200F4500D0068E82C006C005C0041212EED004D0058D82C005C0041212EED004D005D00673
:200F6500D0078C821212EE90000212125E1212F5AF82C007120E76D0078F8222AC82AD8352
:200F8500AEF0FF75820BC007C006C005C004120E79D004D005D0068E82C006C005C004120E
:200FA50012EED004D0058D82C005C0041212EED004D005D006D0078C821212EE758200125A
:200FC50012EE7E007F00C3EE9524EF95255036AB21AC22AD23EE2BFBEF3CFCC007C006C084
:200FE50005C004C0031212F5AA82D003D004D005D006D0078B828C838DF0EA12140C0EBE71
:2010050000C40F80C1020E76120E737582051212EE1212F5AF82C007120E76D0078F8222DF
:2010250012100DE58213E433F58222758206120E79020E76AC82AD83AEF0FFC007C006C0EE
:2010450005C004121030758202120E79D004D005D0068E82C006C005C0041212EED004D04A
:20106500058D82C005C0041212EED004D005D006D0078C821212EE8526821212EE020E7681
:2010850085822C85832D85F02EF52FA82CE4F9FAFBC398F532740199F533E4F534F535E5A2
:2010A5002A452B700122C3E532952AE533952B4006AA2AAB2B8004AA32AB338A308B3112D7
:2010C5001030758202120E79852E821212EE852D821212EE852C821212EE78007900C3E8CB
:2010E5009530E995315031AD27AE28AF29E82534FBE93535FCEB2DFDEC3EFE8D828E838FFD
:20110500F0121427F582C001C0001212EED000D00108B800C90980C6120E76AA30AB31E4DA
:20112500FEFFEA252CF52CEB352DF52DEE352EF52EEF352FF52FE5302534F534E5313535E0
:20114500F535E52AC39530F52AE52B9531F52B8F327533010210A4121030758260120E7952
:20116500020E76AC82AD83AEF0FFC007C006C005C004121030758220120E79D004D005D058
:20118500068E82C006C005C0041212EED004D0058D82C005C0041212EED004D005D006D031
:2011A500078C821212EE020E76AC82AD83AEF0FFC007C006C005C004121030758252120EB1
:2011C50079D004D005D0068E82C006C005C0041212EED004D0058D82C005C0041212EED07E
:2011E50004D005D006D0078C821212EE020E76AC82AD83AEF0FFC007C006C005C00412108B
:20120500307582D8120E79D004D005D0068E82C006C005C0041212EED004D0058D82C005C4
:20122500C0041212EED004D005D006D0078C821212EE020E767582B9120E79020E76758211
:07124500AB120E79020E76D8
:0815880000000000000000005B
:20124C0075A15575A1AA74F855B94406F5B975A10022AE82AF83EE4F601505A105A105A1A7
:20126C0005A105A105A105A11EBEFF011F80E722AE82AF83EE4F60159003E8C007C0061218
:20128C00125ED006D0071EBEFF011F80E722AE82AF8310990280FB8E998E828F8322109806
:0C12AC000280FBAE997F008E828F8322AF
:2012B800AF8253FC7FEF700A74F555FA4460F5FA800BBF030874FD55FA4468F5FA53FA7FE7
:2012D80053920F4393B05393BF2243FC5043FA01E5F875F8FF228582F930FBFD2275F9FFC6
:2012F80030FBFD85F9822243FC80741D55FA4401F5FA53920F53930F22AF8220FCFDC2FCA6
:0C1318008FF92220FCFDC2FC85F9822226
:20132400F9E51B451C451D451E60777800C308E51E20E73BE51B25E0F51BE51C33F51CE5EC
:201344001D33F51DE51E33F51EE582951BE583951CE5F0951DE9951E50D4C3E51E13F51E7B
:20136400E51D13F51DE51C13F51CE51B13F51BE582951BFCE583951CFDE5F0951DFEE995CE
:201384001E4007F98EF08D838C82C3E51E13F51EE51D13F51DE51C13F51CE51B13F51BD81C
:0313A400CEE9226D
:2013A700FB7A20E4FCFDFEFFE5822582F582E58333F583E5F033F5F0EB33FB4017DAE9807F
:2013C70042E5822582F582E58333F583E5F033F5F0EB33FBEC33FCED33FDEE33FEEF33FFAE
:2013E700EC951BED951CEE951DEF951E4013EC951BFCED951CFDEE951DFEEF951EFF4382E0
:0514070001DABEEB223A
:06007A00E478FFF6D8FD5A
:20005800791CE94400601B7A01901574787275A004E493F2A308B8000205A0D9F4DAF27533
:02007800A0FFE7
:1B140C0020F71130F6138883A88220F509F6A8837583002280FEF280F5F022DF
:200080007800E84400600A790075A004E4F309D8FC7872E84400600C7901900400E4F0A305
:0400A000D8FCD9FAB5
:0F004900E473758135121443E5826003020046AB
:1C14270020F71430F6148883A88220F507E6A88375830022E280F7E49322E022D4
:04144300758200228C
:00000001FF
