:0400000002004B327D
:01000B0032C2
:0100130032BA
:01001B0032B2
:0100230032AA
:01002B0032A2
:01003300329A
:01003B003292
:03004300020105B2
:0300A7000200460E
:03004600020707A7
:2000AA00900000E4F5F022E582900421F0900420E02415FEE43405FF90051CE08E828F8315
:2000CA00F0900421E0FD7C00BC1800502DEC75F002A4FAABF0241CF8EB3405F988828983D0
:2000EA00A3E0F9B50511EA241CF582EB3405F583E0FB8E828F83F00C80CE22C020C0E0C0C9
:20010A00F0C082C083C007C006C005C004C003C002C001C000C0D075D000120FBCD0D0D022
:20012A0000D001D002D003D004D005D006D007D083D082D0F0D0E0D020329004EA7401F0CF
:20014A0075821F1214AC9004EA7401F075821E1214AC9004EA7401F07582220214ACE582BE
:20016A00900422F0E0FFBF1E259004EA7401F075821F1214AC9004EAE4F075821E1214ACEA
:20018A009004EA7401F07582221214AC8026BF1F239004EAE4F075821F1214AC9004EA74B4
:2001AA0001F075821E1214AC9004EA7401F07582221214AC900422E0FFBF22239004EA7404
:2001CA0001F075821F1214AC9004EA7401F075821E1214AC9004EAE4F07582221214AC90A5
:2001EA000001021AED9004EAE4F07582210214AC9004EA7401F07582210214AC1201441299
:20020A0001EF900515E0F582121B5F1201FA75821F1201681201441201EF900516E0F5825E
:20022A00121B5F1201FA75821E1201681201441201EF900517E0F582121B5F1201FA75829F
:20024A0022020168900515E4F0900516F0900517F022AE82AF83C007C006C006C0077451EF
:20026A00C0E07427C0E07480C0E07408C0E07400C0E07440C0E0121DBBE58124F8F581D0CF
:20028A0006D007C3EE940AEF64809480500D8E059004207402F08D820200B1C3EE9464EFDD
:2002AA006480948050189004207402F08509821200B19004207401F08508820200B1C3EE5B
:2002CA0094E8EF6480948350239004207402F0850A821200B19004207401F0850982120012
:2002EA00B1900420E4F08508820200B102024E85820E85830F85F0101200AAA982AA83AB37
:20030A00F0FC900518E0F8A3E0FDA3E0FEA3E0FFE8C399F9ED9AFAEE9BFBEF9CFC9004245E
:20032A00E0FEA3E0FF8E00EFFD3395E0FEFFC3E998EA9DEB9EEC9F500122AD0BAE0CAF0DB4
:20034A008D828E838FF01226C3FC900423E0FBC3EC9B400A8D828E838FF0E4121C7D8D829A
:20036A008E838FF01226C3250EF9E4350FFAAC1089828A838CF01226C3F9900420E4F08945
:20038A0082C007C006C005C0031200B1D003D005D006D0078D828E838FF01226C3FC7A0094
:2003AA000CBC00010A8B017B00C3EC99EA64808BF063F08095F050298D828E838FF0122620
:2003CA00C3FC7A000CBC00010AEC250EF8EA350FFAAC1088828A838CF01226C3F87C00808A
:2003EA000478207C009004207401F08882C007C006C005C003C0011200B1D001D003D005A6
:20040A00D006D0078D828E838FF01226C3FC7A0074022CFCE43AFAC3EC99EA64808BF0636B
:20042A00F08095F0502B8D828E838FF01226C3FC7B0074022CFCE43BFBEC250EFCEB350F2F
:20044A00FBAA108C828B838AF01226C3FB7C0080047B207C009004207402F08B82C007C08C
:20046A0006C0051200B1D005D006D007900518E4F0A3F0A3F0A3F08D828E838FF01226C38E
:20048A00FC0C8D828E838FF0EC021C7D85821185831285F0131200AAA982AA83ABF0FC902F
:2004AA000518E0F8A3E0FDA3E0FEA3E0FFE8C399F9ED9AFAEE9BFBEF9CFCC3E9944BEA94E8
:2004CA0000EB9400EC940050012212024E8511828512838513F01226C3FF24F65003020516
:2004EA006CEF240A83F582EF240E83F583E4730D0D0D1C1C35353555550505050505050531
:20050A00050505EF2415F582E43405F5837401F080768F0674FE2EF5F005F0740180022508
:20052A00E0D5F0FBFE900517F0805D8F06EE24FBFEC3E49EFE0E0EEE3395E0FDEE2415F5EC
:20054A0082ED3405F5837408F0803D74FC2FF5F005F07401800225E0D5F0FBFF900515F07A
:20056A0080268511828512838513F0E4121C7D8511828512838513F01226C3FF2415F5821E
:20058A00E43405F5837401F0900518E4F0A3F0A3F0A3F08511828512838513F01226C3FF69
:2005AA000F8511828512838513F0EF021C7D85821485831585F0161200AAA982AA83ABF06C
:2005CA00FC900518E0F8A3E0FDA3E0FEA3E0FFE8C399F9ED9AFAEE9BFBEF9CFCC3E99432D2
:2005EA00EA9400EB9400EC9400402E8514828515838516F01226C3FF048514828515838588
:20060A0016F0121C7D7E008F828E8312025C900518E4F0A3F0A3F0A3F02290275475F080C3
:20062A001210E4121708AE82AF837D007C009004C27410F08E828F838DF0EC1211CF902720
:20064A005F75F0800210E490276575F0801210E47F00BF080040030206FE90278275F080A2
:20066A00C0071210E4D0078F037C007D007E009004C2740AF08B828C838DF0EEC00712118E
:20068A00CF90278A75F0801210E4D0078F058D067D00EE3395E0FCFB752A00752B048D2C51
:2006AA00752D1F8D2E8D828E838CF0EBC0071217F2D0077E00BE20005036EE2400F582E425
:2006CA003404F583E0FD7C007B007A009004C27410F08D828C838BF0EAC007C0061211CF46
:2006EA0090278C75F0801210E4D006D0070E80C50F02065C90278A75F0800210E4121ABD4A
:20070A0090000A121AED1208261209091216D59004E97401F075820112133E9004E974018C
:20072A00F075820012133E9004E97401F075820412133E9004E97401F075820312133E9056
:20074A0004E9E4F075820212133E9004E8E4F07582011212BA900064121AED1200AAAC8255
:20076A00AD83AEF0FF900518E0F8A3E0F9A3E0FAA3E0FBE8C39CFCE99DFDEA9EFEEB9FFFD1
:20078A00C3EC9464ED9400EE9400EF9400406612024E7582201215C1AF82C374509FE433AD
:2007AA00FF75820BC0071215C1AE82D007C374509EE433FEEF6011EE600E9004207402F068
:2007CA007582331200B18022EF7008EE60051206518017EF6008EE7005120624800C9004B0
:2007EA00207402F07582301200B1900518E4F0A3F0A3F0A3F0120206900518E0FCA3E0FD22
:1C080A00A3E0FEA3E0FF90051874042CF0E43DA3F0E43EA3F0E43FA3F002076501
:202751002564004465766963652049643A000A456E640A0052656164696E6720746F20611F
:1D27710072726179206F662062797465732E2E2E000A506167653A20000A002E00AE
:2028500000000000000000000000000000000000203F3006315B324F3366346D357D36079D
:1F287000377F386F3977417C4239435E447945714673501069546E58637468402D015E49
:2008260012108C1210B31210A275DD0075D30075D50022900553E4F0900555F0227F0074BA
:20084600F925DB50067D077E008004ADDB7E008F037C00C3EB9DEC64808EF063F08095F0B8
:20086600501CEF244CFDE43405FEEF242BF582E43404F583E0FC8D828E83F00F80C1227F69
:20088600008F057E00C3ED9407EE9400501CEF242BFDE43404FEEF244CF582E43405F58347
:2008A600E0FC8D828E83F00F80D79000072290042DE0FF900556F0E020E04790054CE0FCC8
:2008C600A3E0FDA3E0FEA3E0FFBCB036BD0433BE0030BF002D75E200C2AF758900751700CD
:2008E60075183890C350121ACF90C350121ACFAE17AF18C007C0068E828F83120049D00685
:20090600D007227F00900556E060027F018F8222900555E07018900557E0FFE060108FD5A8
:2009260053D4FC9005557401F0900557E4F022AF82900556E060617D007E00900555E0607B
:20094600240DBD00010E900005C007C006C005121ACFD005D006D007C3ED9450EE94C34017
:20096600DA75820022900557E0FEBE400050207D0074402EFEE43DFDEE243BF582ED3404E2
:20098600F583EFF0900557E02401F075820122C007120916D007809F75820022AFF0AE8328
:2009A600E582900428F0EEA3F0EFA3F0900556E07003020A78900426E0FEA3E0FFC3E49EFA
:2009C60074808FF063F08095F04003020A787E007F00900555E060200EBE00010F900005C7
:2009E600C007C006121ACFD006D007C3EE9450EF94C340DE75820022900428E0FDA3E0FE90
:200A0600A3E0FF900426E0FBA3E0FCC3E49B74808CF063F08095F0509C900557E0FABA4084
:200A26000050498A017A00744029F9E43AFAE9243BF9EA3404FA8D828E838FF01226C3F835
:200A4600A3AD82AE83900428EDF0EEA3F0EFA3F089828A83E8F0900557E02401F01BBBFF4B
:200A6600011C900426EBF0ECA3F0809F1209160209BB75820022900553E0F58222900553C7
:200A8600E07003F58222900554E0243BF582E43404F583E0FF900554E004F0900553E014B9
:200AA600F0E0700353D4F38F822275D50074FC55D44402F5D4900555E4F02230DE19900512
:180AC60053E5DBF0900554E4F0900553E0600874F355D44408F5D42261
:0C288F0000E10000000008000000000054
:20278E0012011001EF020108091250C5010101020301120009024B000201008064080B0072
:2027AE0002020201040904000001020201040524001001052401000004240202052406002A
:2027CE00010705810308004009040100020A00000407050202400000070582024000004B89
:2027EE00000403090404000C03430048003500350078000C001603430048003500350078A5
:20280E00006400750069006E006F001600160343004400430020005300650072006900617E
:15282E00006C0016000E0344006500710069006E0067000E009C
:0300A400751F00C5
:200ADE00AFDBBF08028003020EFA900432E0FE7F00900431E0FD7C004FF519EC4EF51A7FB2
:200AFE000090042CE0F51B8F1F90042BE0FE546060508E045304607D00BC2005BD00028093
:200B1E000BBC4039BD00367FFF020EFC7420B51B03020EFC7421B51B0280077422B51B181B
:200B3E00800C120885AC82AD838C07020EFCC0071208B4D007020EFC7FFF020EFC7FFF02ED
:200B5E000EFCE51B24F45003020EF6E51B240B83F582E51B241083F583E473D814F6CEF6A7
:200B7E00E391F6F00BFCFC0E0D0E0D0E0C0B0E0C0D0E0E90042EE0FDBD0102800DBD0202AF
:200B9E00801DBD0302802D020C71751D8E751E279027A0E493FC740193FD8C07020C73757A
:200BBE001DA2751E279027EDE493FC740193FD8C07020C7390042DE07015751DEF751E270D
:200BDE009027F3E493FC740193FD8C07020C7390042DE0FDBD0114751D33751E28902841D8
:200BFE00E493FC740193FD8C07806A90042DE0FDBD0214751D03751E28902819E493FC7469
:200C1E000193FD8C07804E90042DE0FDBD0314751DF5751E27902801E493FC740193FD8C54
:200C3E0007803290042DE0FDBD0414751D1B751E28902831E493FC740193FD8C0780167503
:200C5E001DF5751E27902801E493FC740193FD8C0780027FFFBFFF03020EFC8F047D00C346
:200C7E00EC9519ED951A50048C198D1AAC19AD1AC3EC9408ED940040067A087B008004AAB7
:200C9E0019AB1A8A077B00C3EB9F501DEB242BF9E43404FAEB251DF582E4351EF583E4937F
:200CBE00F889828A83F00B80DE8F027B00ECC39AFCED9BFD8C198D1AEF251DF51DE4351E11
:200CDE00F51E020EFC90042DE0FD8D19751A00020EFC90042BE51CF0AC19AD1AC3EC940178
:200CFE00ED94005003020EFC7F01020EFC90042DE0F51C020EFCEE541F702F90042EE0FC0E
:200D1E007D0090042DE0FB7A004205EA4204BD0114BC00119027A9E493FD30E503020EFC14
:200D3E007FFF020EFC7FFF020EFC8E0453041F7D00BC0277BD007490042FE0FDBD010280B6
:200D5E005FBD02028049BD03028033BD0402801DBD81028040BD8202802ABD83028014BD39
:200D7E00844474BC55DE4402F5DE020EFC53DE73020EFC74BC55D64402F5D6020EFC53D6B4
:200D9E0073020EFC74BC55D44402F5D4020EFC53D473020EFC74BC55D24402F5D2020EFC2C
:200DBE0053D273020EFC7FFF020EFC7FFF020EFCEE541F702F90042EE0FC7D0090042DE0A1
:200DDE00FB7A004205EA4204BD0114BC00119027A9E493FD30E503020EFC7FFF020EFC7F69
:200DFE00FF020EFC53061F7D00BE0205BD00028003020ED490042EE0FD7E0090042DE0FC30
:200E1E007B004206EB4205EE4D6003020ED0900430E0FD7E0090042FE0FC7B004206EB4293
:200E3E0005BE0106BD0003020EC4BE0205BD00028060BE0305BD00028044BE0405BD000203
:200E5E008028BE8105BD00028052BE8205BD00028036BE8305BD0002801ABE8451BD004E00
:200E7E0074BF55DE4403F5DE8074747F55DE440CF5DE806A74BF55D64403F5D68060747F6A
:200E9E0055D6440CF5D6805674BF55D44403F5D4804C747F55D4440CF5D4804274BF55D28F
:200EBE004403F5D28038747F55D2440CF5D27FFF802C7FFF80287FFF802490042BE4F09088
:200EDE00042CF0AD19AE1AC3ED9402EE940040047F02800AAF1980067FFF80027FFFBFFFA5
:200EFE0007751BFF75DCCF22EF24F740068FDD75DCC02275DD0075DCC0227405B51B0280BD
:200F1E00637406B51B6CAE19AF1AC3EE9408EF940040067C087D008004AC19AD1A7D00C3A3
:200F3E00ED9C501DED242BFAE43404FBED251DF582E4351EF583E493F98A828B83F00D80F4
:200F5E00DE8C037D00EEC39BFEEF9DFF8E198F1AEC251DF51DE4351EF51E8CDDAEDC63067E
:200F7E00408EDC22E5E35480FFE5194FF5E375DC022275DD0075DC02227420B51B0D30DE0C
:200F9E001012084375DD0085DCDC2275DD0043DC022275D30074FC55D24402F5D22220D979
:200FBE0003021067E5D9540FFFADD95305307E00BD0005BE0002801CBD1005BE0002803685
:200FDE00BD2005BE00028043BD3006BE000302104D021065EF24FB5003021065EF2F90106E
:200FFE000073800880618009805D805B120F978056120AC18051EF24FB404CEF2F90101F03
:20101E0073804480428040803E803CEF24FB4037EF2F901034738008800B800E80298027A4
:20103E00120F188022120FB0801D120AB08018EF24FB4013EF2F9010587380088009800763
:20105E0080058003120ADEC2D930D81575DC0275D21275D41275E300C2DAC2D9C2D812086E
:20107E003910DA0122E5DA20E20375D8FF2275E20053E27F43E22975E30053E2BF53D1FB16
:20109E0043D1012243E10443E10243E10143D81FD2EAD2AF227E337F048EEE8FEF7E3B7F89
:1D10BE00048EE48FE575EB0C75D21275D4127E2B7F048EEC8FED75EA4075DC0222D5
:2010DB0090284375F0800210E4AFF0AE83E5829004BBF0EEA3F0EFA3F09004BBE0FDA3E0F7
:2010FB00FEA3E0FF9004BBE0F5F0A3E045F07003F582227C008D828E838FF01226C3FBA3C9
:20111B00AD82AE839004BBEDF0EEA3F0EFA3F0EBFA601C8A82C007C006C005C00412093552
:20113B00E582D004D005D006D00760030C80C69004BBEDF0EEA3F0EFA3F0C004120916D02E
:20115B00048C8222AFF0AE83E5829004BFF0EEA3F0EFA3F09004BFE0FDA3E0FEA3E0FF7C14
:20117B00009004BEE0FB8B021BEA603A8D828E838FF01226C3FAA3AD82AE839004BFEDF034
:20119B00EEA3F0EFA3F08A82C007C006C005C004C003120935E582D003D004D005D006D073
:2011BB000760030C80C09004BFEDF0EEA3F0EFA3F08C8222AF82AE83ADF0FC9004C3EFF0CA
:2011DB00EEA3F0EDA3F0ECA3F09004E7E4F09004C2E0FFBF020050069004C2740AF0900481
:2011FB00C2E0F5217DE77E049004C3E0F522A3E0F523A3E0F524A3E0F525852126752700AC
:20121B007528007529008526748527758528768529778522828523838524F0E525C006C073
:20123B0005121B95A9828526748527758528768529778522828523838524F0E525C001124F
:20125B001C18AA82AB83ACF0FFD001D005D0069004C3EAF0EBA3F0ECA3F0EFA3F01DBDFF45
:20127B00011E8D048E07B90A005008890374302BFB8004743729FB8C828F83EBF09004C3F8
:1F129B00E0F5F0A3E042F0A3E042F0A3E045F060030212037F008D828E838FF00210E4BF
:022843000A0089
:2012BA00AF829004E8E0FE701D8F058DF005F07401800225E0D5F0FBF4FDAC925CF592AC7C
:2012DA0093ED5CF59322BE021C8F058DF005F07401800225E0D5F0FBFDAC924CF592AC9383
:2012FA00ED4CF59322BE011D8F058DF005F07401800225E0D5F0FBFDF4AB925BF592AC9304
:20131A00ED4CF59322BE031B8FF005F07401800225E0D5F0FBFFAE924EF592EFF4FFAE938D
:20133A005EF59322AF829004E9E0FE701D8F058DF005F07401800225E0D5F0FBF4FDAC967D
:20135A005CF596AC97ED5CF59722BE021C8F058DF005F07401800225E0D5F0FBFDAC964C29
:20137A00F596AC97ED4CF59722BE011D8F058DF005F07401800225E0D5F0FBFDF4AB965B73
:20139A00F596AC97ED4CF59722BE031B8FF005F07401800225E0D5F0FBFFAE964EF596EF67
:2013BA00F4FFAE975EF59722AF82BF0102800FBF02028013BF03028017BF0425801BE5C66E
:2013DA0020E21E539DFB22E5C620E315539DF722E5C630E20C539DFB22E5C630E303539D73
:2013FA00F722AF82BF01097405B5740475820122BF031AE5747004758203227401B5740499
:20141A00758204227404B574047582022275820022AF827E0075740A8E758F828E83C0072E
:20143A00C0061226DFAC82AD83D006D007EFC39CF582EE9DF58375740A757500C005C0047C
:20145A00122715AE82D004D0058C748E82C006C0041213FCAF82D004D006EFFD600D8D824D
:20147A00C006C0041213C2D004D0067F00BE0102800ABE02028009BE030C8008AF90800608
:20149A00AFA08002AFB0EC5F60047582012275820022AF827E0075740A8E758F828E83C099
:2014BA0007C0061226DFAC82AD83D006D007EFC39CF582EE9DF58375740A757500C005C0F9
:2014DA0004122715AE82D004D0058C748E82C006C0041213FCAF82D004D006EFFD600D8D4B
:2014FA0082C006C0041213C2D004D006A2AFE433FFC2AFBE0102800DBE0202803EBE0302CC
:20151A00806E0215BB9004EAE070198C068EF005F07401800225E0D5F0FBF4FEAD905DF5C8
:20153A00900215BB8C068EF005F07401800225E0D5F0FBFEAD904DF59080669004EAE070AD
:20155A00188C068EF005F07401800225E0D5F0FBF4FEADA05DF5A080488C068EF005F07426
:20157A0001800225E0D5F0FBFEADA04DF5A080319004EAE070188C068EF005F07401800249
:20159A0025E0D5F0FBF4FEADB05DF5B080138CF005F07401800225E0D5F0FBFCAEB04EF5BE
:2015BA00B0EF6002D2AF22AF82BF0B047E008019BF0E047E018012BF0F047E02800BBF20B9
:2015DA00047E03800475820022759A0974FC5580FF74035E4FF580D2842084FD859F82221B
:2015FA00AF828F057E0075740A8E758D828E83C007C006C0051226DFAB82AC83D005D00608
:20161A00EDC39BF582EE9CF58375740A757500C004C003122715AD82D003D004D0079004F9
:20163A00EBE0FCA3E0FE4C700A9004EAE4F08F820214AC8C018E0274FF2A500B9004EA7456
:20165A0001F08F820214AC8B748D82C007C006C004C002C0011213FCAD82D001D002D00403
:20167A00D006D007ED24FB4034ED2D90168973802C8006800D8014801B53C6FB439D048CF5
:20169A009C2253C6F7439D088C9B2243C604439D048C9C2243C608439D088C9B22C3E99474
:1B16BA0080EA9400500A9004EAE4F08F820214AC9004EA7401F08F820214ACE2
:2016D500758203121B2975FB021216E7021AB4C29422D29422AF82BFAB02800BC00712183B
:2016F50096E582D00770F5C0071216E4D0078F82021B5F75829F1216EA900002121ACF121E
:201715001B66AE827F00C007C006121B66AD82D006D0077C00EF4205EE4204C005C0041207
:2017350016E7D004D0058D828C832275824B1216EA900002121ACF758200121B5F75820053
:20175500121B5F758200121B5F758200121B5F900002121ACF7F00BF08005022EF2458FD35
:20177500E43405FEC007C006C005121B66AC82D005D006D0078D828E83ECF00F80D9121618
:20179500E790055875F00022AC82AD83AEF0FF758203C007C006C005C0041216EAD004D018
:2017B50005D0068E82C006C005C004121B5FD004D0058D82C005C004121B5FD004D005D008
:2017D50006D0078C82121B5F900002121ACF121B66AF82C0071216E7D0078F8222AC82AD71
:2017F50083AEF0FF75820BC007C006C005C0041216EAD004D005D0068E82C006C005C004AC
:20181500121B5FD004D0058D82C005C004121B5FD004D005D006D0078C82121B5F75820073
:20183500121B5F7E007F00C3EE952DEF952E5036AB2AAC2BAD2CEE2BFBEF3CFCC007C00612
:20185500C005C004C003121B66AA82D003D004D005D006D0078B828C838DF0EA121C7D0E03
:20187500BE00C40F80C10216E71216E4758205121B5F121B66AF82C0071216E7D0078F826C
:201895002212187EE58213E433F582227582061216EA0216E7AC82AD83AEF0FFC007C006A9
:2018B500C005C0041218A17582021216EAD004D005D0068E82C006C005C004121B5FD00476
:2018D500D0058D82C005C004121B5FD004D005D006D0078C82121B5F852F82121B5F021630
:2018F500E785823585833685F037F538A835E4F9FAFBC398F53B740199F53CE4F53DF53ED7
:20191500E5334534700122C3E53B9533E53C95344006AA33AB348004AA3BAB3C8A398B3A1F
:201935001218A17582021216EA853782121B5F853682121B5F853582121B5F78007900C3AD
:20195500E89539E9953A5031AD30AE31AF32E8253DFBE9353EFCEB2DFDEC3EFE8D828E83EC
:201975008FF01226C3F582C001C000121B5FD000D00108B800C90980C61216E7AA39AB3A04
:20199500E4FEFFEA2535F535EB3536F536EE3537F537EF3538F538E539253DF53DE53A354D
:2019B5003EF53EE533C39539F533E534953AF5348F3B753C010219151218A17582601216C9
:2019D500EA0216E7AC82AD83AEF0FFC007C006C005C0041218A17582201216EAD004D0055B
:2019F500D0068E82C006C005C004121B5FD004D0058D82C005C004121B5FD004D005D006C5
:201A1500D0078C82121B5F0216E7AC82AD83AEF0FFC007C006C005C0041218A1758252120A
:201A350016EAD004D005D0068E82C006C005C004121B5FD004D0058D82C005C004121B5F5A
:201A5500D004D005D006D0078C82121B5F0216E7AC82AD83AEF0FFC007C006C005C004125F
:201A750018A17582D81216EAD004D005D0068E82C006C005C004121B5FD004D0058D82C0D5
:201A950005C004121B5FD004D005D006D0078C82121B5F0216E77582B91216EA0216E775B7
:081AB50082AB1216EA0216E7EB
:08289B00000000000000000035
:201ABD0075A15575A1AA74F855B94406F5B975A10022AE82AF83EE4F601505A105A105A12E
:201ADD0005A105A105A105A11EBEFF011F80E722AE82AF83EE4F60159003E8C007C006129F
:201AFD001ACFD006D0071EBEFF011F80E722AE82AF8310990280FB8E998E828F8322109814
:0C1B1D000280FBAE997F008E828F832235
:201B2900AF8253FC7FEF700A74F555FA4460F5FA800BBF030874FD55FA4468F5FA53FA7F6D
:201B490053920F4393B05393BF2243FC5043FA01E5F875F8FF228582F930FBFD2275F9FF4C
:201B690030FBFD85F9822243FC80741D55FA4401F5FA53920F53930F22AF8220FCFDC2FC2C
:0C1B89008FF92220FCFDC2FC85F98222AD
:201B9500F9E57445754576457760777800C308E57720E73BE57425E0F574E57533F575E552
:201BB5007633F576E57733F577E5829574E5839575E5F09576E9957750D4C3E57713F57788
:201BD500E57613F576E57513F575E57413F574E5829574FCE5839575FDE5F09576FEE99534
:201BF500774007F98EF08D838C82C3E57713F577E57613F576E57513F575E57413F574D882
:031C1500CEE922F3
:201C1800FB7A20E4FCFDFEFFE5822582F582E58333F583E5F033F5F0EB33FB4017DAE98005
:201C380042E5822582F582E58333F583E5F033F5F0EB33FBEC33FCED33FDEE33FEEF33FF34
:201C5800EC9574ED9575EE9576EF95774013EC9574FCED9575FDEE9576FEEF9577FF43829E
:051C780001DABEEB22C1
:06007A00E478FFF6D8FD5A
:200058007953E94400601B7A01902850780D75A005E493F2A308B8000205A0D9F4DAF27571
:02007800A0FFE7
:1B1C7D0020F71130F6138883A88220F509F6A8837583002280FEF280F5F02266
:201C9800E574457560467A01E57425E0F574E575334012F575E5829574E583957540030AB9
:201CB80080E6C3E57513F575E57413F574C3E5829574F5F0E58395754005F58385F082C336
:0D1CD800E57513F575E57413F574DAE12276
:201CE5007A10E4FBFCE58225E0F582E58333F583EB33FBEC33FCEB9574F5F0EC957540063B
:091D0500FCABF0438201DADD229F
:200080007800E84400600A790075A004E4F309D8FC780DE84401600C7902900400E4F0A368
:0400A000D8FCD9FAB5
:201D0E00C046858146C082058105810581E54624FBF8A9460909E6F70809E6F70809E6F793
:201D2E00A846080886820886830886F01226C3FAA31226C3FBA31226C3FF74012AFCE43B1B
:201D4E00FD8F06A846080886820886830886F0EC121C7DA3ED121C7DA3EE121C7D8A828BA9
:201D6E00838FF0A84608E6121C7D854681D0462285824385834485F04575544375550075AD
:201D8E005640853F5785405885415985425A901D0E121EA6AE82AF83AB43AC44AD458B8257
:201DAE008C838DF0E4121C7D8E828F8322C046E581F54624F8FF8F5AE54624FBFF8F54756A
:201DCE005500755640E54624F8F88657088658088659901D0E121EA6AE82AF83E54624FB6F
:1A1DEE00F886030886040886058B828C838DF0E4121C7D8E828F83D04622B3
:02004900E4735E
:201E0800AF82C04AC04BC04C121E158007C048C0498F82221581158115810552E4B5520252
:201E2800055322AF8274302FFF24C6500B74072FFFE54760034307208F82021E08E582FF97
:201E4800C4540FF582C007121E2BD007740F5FF582021E2B858274AB4DAC4EAD4FAE50AA2E
:201E6800517576208A07EF2FF575EE2354014575FAEB2BFBEC33FCED33FDEE33FEC3EA9521
:201E8800744008EAC39574FA430301E57614FF8F7670D18B4D8C4E8D4F8E508A5122858263
:201EA8004885834985544A85554B85564CE4F552F553AD57AE58AF598D828E838FF01226B6
:201EC800C3FC74012DF557E43EF5588F59ECFF7003022687BF2502800302267F7E007D00DE
:201EE8008E5B8E5C7A007B008E5D7C008E5EE4F566F567755FFF7560FF855768855869856E
:201F0800596A856882856983856AF01226C3F56BA3858268858369856857856958856A5987
:201F28007425B56B08856B82121E08808574D0256B4003021FE8E56B24C65003021FE874FF
:201F4800FFB55F55B5605285667485677590000AC006C005C004C003C0021226A685826C2B
:201F680085836DD002D003D004D005D006856B6E756F00E56E256CF56EE56F356DF56FE5F8
:201F88006E24D0F566E56F34FFF567E56645676003021F0A7D01021F0A855F748560759029
:201FA800000AC006C005C004C003C0021226A685826E85836FD002D003D004D005D00685C8
:201FC8006B6C756D00E56C256EF56EE56D356FF56FE56E24D0F55FE56F34FFF560021F0AFD
:201FE800742EB56B1574FFB55F05B560028003021F0AE4F55FF560021F0A749F256B500EF8
:20200800E56B24854008536BDF75470180037547007420B56B030220B4742BB56B0302206D
:20202800AE742DB56B0280797442B56B030220BA7443B56B030220C57444B56B03022312A6
:202048007446B56B030223287448B56B03021F0A7449B56B03022312744AB56B03021F0A21
:20206800744CB56B028050744FB56B030223197450B56B0302225D7453B56B028076745473
:20208800B56B03021F0A7455B56B0302231E7458B56B03022323745AB56B03021F0A022343
:2020A8002C7E01021F0A755B01021F0A755C01021F0A7B01021F0A755D01021F0AEB600A4F
:2020C800E55A14F9895A876E800DE55A24FEF56C856C5AA96C876E856E82C006C005C0046C
:2020E800C003C002121E08D002D003D004D005D00602234EE55A24FDF56E856E5AA96E87D6
:202108006809876909876A191985684D85694E856A4F856882856983856AF0C006C005C06C
:2021280004C003C00212268E85826E85836FD002D003D004D005D00674FFB55F09B560068D
:20214800856E5F856F60EE704FC3E56E9566E56F95675044E566C3956EF56CE567956FF578
:202168006D856C68856D69156C74FFB56C02156DE5684569601C758220C006C005C004C000
:2021880003C002121E08D002D003D004D005D00680CF856C66856D67855F6C85606D854DA3
:2021A80082854E83854FF01226C3F568856863604FC3E4956C7480856DF063F08095F050FE
:2021C8003F156C74FFB56C02156D856382C006C005C004C003C002121E08D002D003D00430
:2021E800D005D006854D68854E69854F6A0568E4B56802056985684D85694E856A4F809EC8
:20220800EE700302234EC3E56E9566E56F9567400302234EE566C3956EF56EE567956FF512
:202228006F856E6C856F6D156E74FFB56E02156FE56C456D7003022348758220C006C00543
:20224800C004C003C002121E08D002D003D004D005D00680CCE55A24FDF56C856C5AA96C64
:20226800876809876909876A191985684D85694E856A4F854F64748025645005756C4380E0
:202288001974A025645005756C50800E74C025645005756C498003756C58856C82C006C07B
:2022A80005C004C003C002121E0875823A121E08758230121E08758278121E08D002D0037C
:2022C800D004D005D0067449B56C0280217450B56C02801A854E82C006C005C004C003C04E
:2022E80002121E45D002D003D004D005D006854D82C006C005C004C003C002121E45D002CC
:20230800D003D004D005D006803C7A01755E0A8035755E088030755E0A802B755E108026FE
:202328007C018022856B82C006C005C004C003C002121E08D002D003D004D005D00680064E
:20234800856E66856F67EC6068E55A24FCFC8C5A8C018770098771098772098773191919F7
:2023680085704D85714E85724F857350754D45754E28754F80854D70854E71854F727401CA
:202388002570F568E43571F56985726A85684D85694E856A4F8570828571838572F0122637
:2023A800C3FC8C707003021EBA857082121E0880C4E55E7003021EBAEB603FE55A14F9892B
:2023C8005A87048C7075710075720075730085704D85714E85724F857350EA600302246B6D
:2023E800854D7075710075720075730085704D85714E85724F8573508069E55D6025E55ADB
:2024080024FCFC8C5A8C01877009877109877209877319191985704D85714E85724F857319
:20242800508040E55A24FEFC8C5A8C018703098704198B70ECF5713395E0F572F5738570C4
:202448004D85714E85724F857350EA7016854D70854E71F572F57385704D85714E85724FC4
:20246800857350EA602AE55030E723C3E4954DF570E4954EF571E4954FF572E49550F573AE
:2024880085704D85714E85724F85735080027A007C01797DE4F570F571755100855E82C017
:2024A80006C005C004C002C001121E5CD001D002D004D005D006EC700DE551C4F56EE7FBAC
:2024C800456EF7198002A7510570E4B570020571ECB40100E433FCE54D454E454F455070AF
:2024E800B88965857061857162E56645677005756601F567ED7043EE7040856670856771E6
:20250800AB610B8B6E756F00C3E56E9570E56F95715021758220C006C005C004C002121E81
:2025280008D002D004D005D006157074FFB57002157180CC857066857167EA601D75822D06
:20254800C006C005C004121E08D004D005D006156674FFB5660215678046E5614562604093
:20256800E55B601D75822BC006C005C004121E08D004D005D006156674FFB5660215678067
:202588001FE55C601B758220C006C005C004121E08D004D005D006156674FFB566021567B4
:2025A800EE703C856670856771AA70AB71157074FFB570021571C3E5619AE5629B5041EDE3
:2025C80060067A307B0080047A207B008A82C006C005C004121E08D004D005D00680CAC3B0
:2025E800E5619566E5629567500FE566C39561F56EE5679562F56F800DE4F56EF56F800624
:2026080085706E85716FA965856170856271AA70AD71157074FFB570021571EA4D602EECA0
:20262800B40100E433FC700A09E7C4540FFD8D5180078705740F5DF551855182C006C00443
:20264800C001121E2BD001D004D00680C1EE7003021EBAAD6EAE6F8D038E041DBDFF011E0D
:20266800EB4C7003021EBA758220C006C005121E08D005D00680E08F82121E08021EBA8541
:06268800528285538322FB
:0B2845003C4E4F20464C4F41543E00DB
:18268E00AA82AB831226C36003A380F8C3E5829AF582E5839BF5832289
:1D26A600E5828574F0A4C582C0F08575F0A4D0F025F0C5838574F0A42583F58322B2
:0D004B0075817D12274DE58260030200469D
:1C26C30020F71430F6148883A88220F507E6A88375830022E280F7E49322E02226
:2026DF00C2D5E58330E70DD2D5E4C39582F582E49583F583E57530E70BE4C39574F574E4EF
:1626FF009575F575121C9830D50BE4C39582F582E49583F58322B0
:20271500C2D5E58330E70DD2D5E4C39582F582E49583F583E57530E70DB2D5E4C39574F587
:1827350074E49575F575121CE530D50BE4C39582F582E49583F58322D2
:04274D00758200226F
:00000001FF
