:0400000002004B327D
:01000B0032C2
:0100130032BA
:01001B0032B2
:0100230032AA
:01002B0032A2
:01003300329A
:01003B003292
:030043000200B602
:0C00A400750D00E4F510F511F512F513D0
:0300B30002004602
:0300460002033979
:2000B600C020C0E0C0F0C082C083C007C006C005C004C003C002C001C000C0D075D0001272
:2000D6000AD5D0D0D000D001D002D003D004D005D006D007D083D082D0F0D0E0D02032AF09
:2000F600827E00C3EE9F501BD2B09000FAC007C0061211EAC2B09000FA1211EAD006D007D3
:200116000E80E022AF827E00753F108E408F828E83C007C0061213DAAC82AD83D006D0073F
:20013600ED3395E08D028C037C007D0053070FE4CFC4CF6FCF54F0CF6FFEA8147900E82F44
:20015600FFE93E8F00F93395E0FF89068801E44204E94205EE4203EF4202A815E4F9FEFFC5
:20017600E84204E94205EE4203EF42028C828D838BF0EA2222AF8290141675F080C0071235
:200196000BFDD0077E007D007C0090042C7410F08F828E838DF0EC120CE8020BF4AF82AE4E
:2001B6000ABE0502800FBE0C028005BE7F1B800A8F8202018A8F8202018B90141D75F080B5
:2001D600120BFD9003E80211EA221211BAC2B090000A1211EA12033F120419120DD37582F3
:2001F600031200F57508002212058CE5827003020333120593AF82E50824FA50030203311C
:20021600E50875F003A49002207302023202024202024A02026A0202F602031BBF11028006
:20023600030203318F097508010203318F0A750802020331741EB50F09BF0406750804022A
:200256000331E50FB50B088F0C7508030203318F0B0203317410B50F12BF1E0FE4F510F553
:2002760011F512F513750802020331E50CFE6031E4FDFCFBEEB51029EDB51125ECB51221B3
:20029600EBB5131DBF1E057508028003750805C007120BF4D007E4F510F511F512F51380E5
:2002B6007A0510E4B5100C0511B511070512B512020513E50CFE601D7D007C007B00C3EE78
:2002D6009510ED9511EC9512EB64808513F063F08095F040468F82C0071201B3D007803BD8
:2002F600E4F509F50AF50BF50CF510F511F512F513F508758200C00712018A120BF412046D
:2003160026D0078016C007120BF412042690142475F080120BFDD0077508048F0F12042627
:090336000201FE1201E00201FEC9
:151416004C6F61643A200045726173650A004552524F52210042
:0814E200000000000000000002
:20033F00120BA5120BCC120BBB75DD0075D30075D50022900481E4F0900483F0227F007410
:20035F00F925DB50067D077E008004ADDB7E008F037C00C3EB9DEC64808EF063F08095F0A4
:20037F005017EF247AFDE43404FE8F82758300E0FC8D828E83F00F80C6227F008F057E0056
:20039F00C3ED9407EE940050188F057E00EF247AF582E43404F583E0FC8D828E83F00F80E4
:2003BF00DB90000722900002E0FF900484F0E020E04790047AE0FCA3E0FDA3E0FEA3E0FF7D
:2003DF00BCB036BD0433BE0030BF002D75E200C2AF75890075160075173890C3501211CCE7
:2003FF0090C3501211CCAE16AF17C007C0068E828F83120049D006D007227F00900484E072
:20041F0060027F018F8222900483E07018900485E0FFE060108FD553D4FC9004837401F0DE
:20043F00900485E4F022AF82900484E060617D007E00900483E060240DBD00010E900005C0
:20045F00C007C006C0051211CCD005D006D007C3ED9450EE94C340DA75820022900485E0B5
:20047F00FEBE400050207D0074402EFEE43DFDEE2414F582ED3400F583EFF0900485E02444
:20049F0001F075820122C007120426D007809F75820022AFF0AE83E582900422F0EEA3F0C2
:2004BF00EFA3F0900484E07003020588900420E0FEA3E0FFC3E49E74808FF063F08095F07D
:2004DF0040030205887E007F00900483E060200EBE00010F900005C007C0061211CCD006F4
:2004FF00D007C3EE9450EF94C340DE75820022900422E0FDA3E0FEA3E0FF900420E0FBA32C
:20051F00E0FCC3E49B74808CF063F08095F0509C900485E0FABA400050498A017A007440AB
:20053F0029F9E43AFAE92414F9EA3400FA8D828E838FF01213BEF8A3AD82AE83900422ED10
:20055F00F0EEA3F0EFA3F089828A83E8F0900485E02401F01BBBFF011C900420EBF0ECA37B
:20057F00F0809F1204260204CB75820022900481E0F58222900481E07003F5822290048282
:20059F00E02414F582E43400F583E0FF900482E004F0900481E014F0E0700353D4F38F82DD
:2005BF002275D50074FC55D44402F5D4900483E4F02230DE19900481E5DBF0900482E4F025
:0F05DF00900481E0600874F355D44408F5D422E9
:0C14EA0000E1000000000800000000000D
:20142B0012011001EF020108091250C5010101020301120009024B000201008064080B00E8
:20144B000202020104090400000102020104052400100105240100000424020205240600A0
:20146B00010705810308004009040100020A00000407050202400000070582024000004BFF
:20148B00000403090404000C03430048003500350078000C0016034300480035003500781B
:2014AB00006400750069006E006F00160016034300440043002000530065007200690061F5
:1514CB00006C0016000E0344006500710069006E0067000E0013
:0300B000751E00BA
:2005EE00AFDBBF08028003020A17900007E0FE7F00900006E0FD7C004FF518EC4EF5197FEE
:20060E0000900001E0F51A8F1E900000E0FE54606053900000E0FE5306607D00BE2005BD86
:20062E000002800BBE4039BD00367FFF020A197420B51A03020A197421B51A028007742244
:20064E00B51A18800C120399AD82AE838D07020A19C0071203C4D007020A197FFF020A1913
:20066E007FFF020A19E51A24F45003020A13E51A240B83F582E51A241083F583E473F5237B
:20068E0013E313F2A413FF1A191909080A080A07060A07080A0A900003E0FEBE0102800D29
:2006AE00BE0202801DBE0302802D020784751C2B751D1490143DE493FD740193FE8D07027D
:2006CE000786751C3F751D1490148AE493FD740193FE8D07020786900002E07015751C8C2A
:2006EE00751D14901490E493FD740193FE8D07020786900002E0FEBE0114751CD0751D142B
:20070E009014DEE493FD740193FE8D07806A900002E0FEBE0214751CA0751D149014B6E4F8
:20072E0093FD740193FE8D07804E900002E0FEBE0314751C92751D1490149EE493FD74017A
:20074E0093FE8D078032900002E0FEBE0414751CB8751D149014CEE493FD740193FE8D07FF
:20076E008016751C92751D1490149EE493FD740193FE8D0780027FFFBFFF03020A198F0542
:20078E007E00C3ED9518EE951950048D188E19AD18AE19C3ED9408EE940040067B087C0095
:2007AE008004AB18AC198B077C00C3EC9F50198C027B00EC251CF582E4351DF583E493F98F
:2007CE008A828B83F00C80E28F037C00EDC39BFDEE9CFE8D188E19EF251CF51CE4351DF5FD
:2007EE001D020A19900002E0FE8E18751900020A19900000E51BF0AD18AE19C3ED9401EEA1
:20080E0094005003020A197F01020A19900002E0F51B020A19900000E0541F702F9000035D
:20082E00E0FD7E00900002E0FC7B004206EB4205BE0114BD0011901446E493FE30E50302D2
:20084E000A197FFF020A197FFF020A19900000E0FE53061F7D00BE0277BD0074900004E0E2
:20086E00FEBE0102805FBE02028049BE03028033BE0402801DBE81028040BE8202802ABEBF
:20088E0083028014BE844474BC55DE4402F5DE020A1953DE73020A1974BC55D64402F5D6D5
:2008AE00020A1953D673020A1974BC55D44402F5D4020A1953D473020A1974BC55D244025B
:2008CE00F5D2020A1953D273020A197FFF020A197FFF020A19900000E0541F702F90000306
:2008EE00E0FD7E00900002E0FC7B004206EB4205BE0114BD0011901446E493FE30E5030212
:20090E000A197FFF020A197FFF020A19900000E0FE53061F7D00BE0205BD000280030209EB
:20092E00F1900003E0FD7E00900002E0FC7B004206EB4205EE4D60030209ED900005E0FD5F
:20094E007E00900004E0FC7B004206EB4205BE0106BD00030209E1BE0205BD00028060BE13
:20096E000305BD00028044BE0405BD00028028BE8105BD00028052BE8205BD00028036BE63
:20098E008305BD0002801ABE8451BD004E74BF55DE4403F5DE8074747F55DE440CF5DE808D
:2009AE006A74BF55D64403F5D68060747F55D6440CF5D6805674BF55D44403F5D4804C74B4
:2009CE007F55D4440CF5D4804274BF55D24403F5D28038747F55D2440CF5D27FFF802C7F8C
:2009EE00FF80287FFF8024900000E4F0900001F0AD18AE19C3ED9402EE940040047F0280A2
:200A0E000AAF1880067FFF80027FFFBFFF07751AFF75DCCF22EF24F740068FDD75DCC0226F
:200A2E0075DD0075DCC0227405B51A02805F7406B51A68AE18AF19C3EE9408EF94004006A5
:200A4E007C087D008004AC18AD197D00C3ED9C50198D027B00ED251CF582E4351DF583E406
:200A6E0093F98A828B83F00D80E28C037D00EEC39BFEEF9DFF8E188F19EC251CF51CE435DD
:200A8E001DF51D8CDDAEDC6306408EDC22E5E35480FFE5184FF5E375DC022275DD0075DC1A
:200AAE0002227420B51A0D30DE1012035C75DD0085DCDC2275DD0043DC022275D30074FC07
:200ACE0055D24402F5D22220D903020B80E5D9540FFFADD95305307E00BD0005BE0002807B
:200AEE001CBD1005BE00028036BD2005BE00028043BD3006BE0003020B66020B7EEF24FB5F
:200B0E005003020B7EEF2F900B1973800880618009805D805B120AB080561205D18051EFB0
:200B2E0024FB404CEF2F900B3873804480428040803E803CEF24FB4037EF2F900B4D73805A
:200B4E0008800B800E80298027120A358022120AC9801D1205C08018EF24FB4013EF2F9023
:200B6E000B7173800880098007800580031205EEC2D930D81575DC0275D21275D41275E3BC
:200B8E0000C2DAC2D9C2D812035210DA0122E5DA20E20375D8FF2275E20053E27F43E22977
:200BAE0075E30053E2BF53D1FB43D1012243E10443E10243E10143D81FD2EAD2AF227E0AF1
:200BCE007F008EEE8FEF7E147F008EE48FE575EB0C75D21275D4127E007F008EEC8FED750F
:060BEE00EA4075DC022262
:200BF4009014E075F080020BFDAFF0AE83E582900425F0EEA3F0EFA3F0900425E0FDA3E072
:200C1400FEA3E0FF900425E0F5F0A3E045F07003F582227C008D828E838FF01213BEFBA362
:200C3400AD82AE83900425EDF0EEA3F0EFA3F0EBFA601C8A82C007C006C005C004120445C9
:200C5400E582D004D005D006D00760030C80C6900425EDF0EEA3F0EFA3F0C004120426D0A5
:200C7400048C8222AFF0AE83E582900429F0EEA3F0EFA3F0900429E0FDA3E0FEA3E0FF7C2C
:200C940000900428E0FB8B021BEA603A8D828E838FF01213BEFAA3AD82AE83900429EDF064
:200CB400EEA3F0EFA3F08A82C007C006C005C004C003120445E582D003D004D005D006D054
:200CD4000760030C80C0900429EDF0EEA3F0EFA3F08C8222AF82AE83ADF0FC90042DEFF0E2
:200CF400EEA3F0EDA3F0ECA3F0900451E4F090042CE0FFBF0200500690042C740AF090042F
:200D14002CE0F5217D517E0490042DE0F522A3E0F523A3E0F524A3E0F52585212675270059
:200D340075280075290085263F8527408528418529428522828523838524F0E525C006C033
:200D540005121292A98285263F8527408528418529428522828523838524F0E525C001121B
:200D74001315AA82AB83ACF0FFD001D005D00690042DEAF0EBA3F0ECA3F0EFA3F01DBDFFD3
:200D9400011E8D048E07B90A005008890374302BFB8004743729FB8C828F83EBF090042D7A
:1F0DB400E0F5F0A3E042F0A3E042F0A3E045F06003020D1C7F008D828E838FF0020BFD83
:0214E0000A0000
:200DD30075820312122675FB02D2940211B1C29422D29422AF82BFAB02800BC007120F937D
:200DF300E582D00770F5C007120DE1D0078F8202125C75829F120DE79000021211CC1212DD
:200E130063AE827F00C007C006121263AD82D006D0077C00EF4205EE4204C005C004120D2F
:200E3300E4D004D0058D828C832275824B120DE79000021211CC75820012125C7582001289
:200E5300125C75820012125C75820012125C9000021211CC7F00BF08005022EF2486FDE470
:200E73003404FEC007C006C005121263AC82D005D006D0078D828E83ECF00F80D9120DE439
:200E930090048675F00022AC82AD83AEF0FF758203C007C006C005C004120DE7D004D005E4
:200EB300D0068E82C006C005C00412125CD004D0058D82C005C00412125CD004D005D0062A
:200ED300D0078C8212125C9000021211CC121263AF82C007120DE4D0078F8222AC82AD832F
:200EF300AEF0FF75820BC007C006C005C004120DE7D004D005D0068E82C006C005C0041234
:200F1300125CD004D0058D82C005C00412125CD004D005D006D0078C8212125C75820012A2
:200F3300125C7E007F00C3EE952DEF952E5036AB2AAC2BAD2CEE2BFBEF3CFCC007C006C07B
:200F530005C004C003121263AA82D003D004D005D006D0078B828C838DF0EA12137A0EBE28
:200F730000C40F80C1020DE4120DE175820512125C121263AF82C007120DE4D0078F82224F
:200F9300120F7BE58213E433F58222758206120DE7020DE4AC82AD83AEF0FFC007C006C03A
:200FB30005C004120F9E758202120DE7D004D005D0068E82C006C005C00412125CD004D095
:200FD300058D82C005C00412125CD004D005D006D0078C8212125C852F8212125C020DE454
:200FF30085823585833685F037F538A835E4F9FAFBC398F53B740199F53CE4F53DF53EE5E4
:20101300334534700122C3E53B9533E53C95344006AA33AB348004AA3BAB3C8A398B3A12FD
:201033000F9E758202120DE785378212125C85368212125C85358212125C78007900C3E81E
:201053009539E9953A5031AD30AE31AF32E8253DFBE9353EFCEB2DFDEC3EFE8D828E838F50
:20107300F01213BEF582C001C00012125CD000D00108B800C90980C6120DE4AA39AB3AE4EA
:20109300FEFFEA2535F535EB3536F536EE3537F537EF3538F538E539253DF53DE53A353EFE
:2010B300F53EE533C39539F533E534953AF5348F3B753C01021012120F9E758260120DE74C
:2010D300020DE4AC82AD83AEF0FFC007C006C005C004120F9E758220120DE7D004D005D0A4
:2010F300068E82C006C005C00412125CD004D0058D82C005C00412125CD004D005D006D0E8
:20111300078C8212125C020DE4AC82AD83AEF0FFC007C006C005C004120F9E758252120DFC
:20113300E7D004D005D0068E82C006C005C00412125CD004D0058D82C005C00412125CD0C6
:2011530004D005D006D0078C8212125C020DE4AC82AD83AEF0FFC007C006C005C004120F43
:201173009E7582D8120DE7D004D005D0068E82C006C005C00412125CD004D0058D82C0050E
:20119300C00412125CD004D005D006D0078C8212125C020DE47582B9120DE7020DE4758281
:0711B300AB120DE7020DE491
:0814F6000000000000000000EE
:2011BA0075A15575A1AA74F855B94406F5B975A10022AE82AF83EE4F601505A105A105A13A
:2011DA0005A105A105A105A11EBEFF011F80E722AE82AF83EE4F60159003E8C007C00612AB
:2011FA0011CCD006D0071EBEFF011F80E722AE82AF8310990280FB8E998E828F832210982C
:0C121A000280FBAE997F008E828F832241
:20122600AF8253FC7FEF700A74F555FA4460F5FA800BBF030874FD55FA4468F5FA53FA7F79
:2012460053920F4393B05393BF2243FC5043FA01E5F875F8FF228582F930FBFD2275F9FF58
:2012660030FBFD85F9822243FC80741D55FA4401F5FA53920F53930F22AF8220FCFDC2FC38
:0C1286008FF92220FCFDC2FC85F98222B9
:20129200F9E53F45404541454260777800C308E54220E73BE53F25E0F53FE54033F540E53B
:2012B2004133F541E54233F542E582953FE5839540E5F09541E9954250D4C3E54213F542A6
:2012D200E54113F541E54013F540E53F13F53FE582953FFCE5839540FDE5F09541FEE9951D
:2012F200424007F98EF08D838C82C3E54213F542E54113F541E54013F540E53F13F53FD86B
:03131200CEE922FF
:20131500FB7A20E4FCFDFEFFE5822582F582E58333F583E5F033F5F0EB33FB4017DAE98011
:2013350042E5822582F582E58333F583E5F033F5F0EB33FBEC33FCED33FDEE33FEEF33FF40
:20135500EC953FED9540EE9541EF95424013EC953FFCED9540FDEE9541FEEF9542FF438252
:0513750001DABEEB22CD
:06007A00E478FFF6D8FD5A
:20005800791CE94400601B7A019014E2787275A004E493F2A308B8000205A0D9F4DAF275C6
:02007800A0FFE7
:1B137A0020F71130F6138883A88220F509F6A8837583002280FEF280F5F02272
:200080007800E84400600A790075A004E4F309D8FC7872E84400600C7901900400E4F0A305
:0400A000D8FCD9FAB5
:201395007A10E4FBFCE58225E0F582E58333F583EB33FBEC33FCEB953FF5F0EC95404006FE
:0913B500FCABF0438201DADD22F9
:0F004900E473758142121412E5826003020046CF
:1C13BE0020F71430F6148883A88220F507E6A88375830022E280F7E49322E0223E
:2013DA00C2D5E58330E70DD2D5E4C39582F582E49583F583E54030E70DB2D5E4C3953FF540
:1813FA003FE49540F54012139530D50BE4C39582F582E49583F5832219
:0414120075820022BD
:00000001FF
