:0400000002004B327D
:01000B0032C2
:0100130032BA
:01001B0032B2
:0100230032AA
:01002B0032A2
:01003300329A
:01003B003292
:030043000200B9FF
:0900A400E4F508F509F50AF50B75
:0300B600020046FF
:030046000202466D
:2000B900C020C0E0C0F0C082C083C007C006C005C004C003C002C001C000C0D075D000126F
:2000D9000A9CD0D0D000D001D002D003D004D005D006D007D083D082D0F0D0E0D02032905E
:2000F900000022AD82AE83AFF0C007C006C0051200F8AB82AC83D005D006D0078B018C0272
:20011900E4FBFCE508C399F9E5099AFAE50A9BFBE50B9CFCC3E99432EA9400EB9400EC942B
:200139000040268D828E838FF01226AAFC048D828E838FF0121C647F008C828F831217398D
:20015900E4F508F509F50AF50B2290273875F080120BC41211E8AE82AF837D007C009004D7
:20017900BC7410F08E828F838DF0EC120CAF90274375F080020BC490274975F080120BC468
:200199007F00BF0800400302023D90276675F080C007120BC4D0078F037C007D007E009062
:2001B90004BC740AF08B828C838DF0EEC007120CAF90276E75F080120BC4D0078F058D06F4
:2001D9007D00EE3395E0FCFB7521007522048D2375241F8D258D828E838CF0EBC00712123F
:2001F900D2D0077E00BE20005036EE2400F582E43404F583E0FD7C007B007A009004BC742C
:2002190010F08D828C838BF0EAC007C006120CAF90277075F080120BC4D006D0070E80C5FB
:200239000F02019B90276E75F080020BC4121AA490000A121AD41203061203E91211B512B0
:20025900159D121A00900064121AD41200F8AE82AF83E4FDFCE508C39EFEE5099FFFE50AA3
:200279009DFDE50B9CFCC3EE9464EF9400ED9400EC9400405D12172B121A76E582600E901E
:2002990005077402F07582331215CD803C121A16E58260119005077402F07582311215CDC1
:2002B9001201638024121A46E58260119005077402F07582321215CD120190800C900507D7
:2002D9007402F07582301215CDE4F508F509F50AF50B1216E374042508F508E43509F509D9
:0D02F900E4350AF50AE4350BF50B0202644A
:202738004465766963652049643A000A456E640A0052656164696E6720746F20617272617C
:1A27580079206F662062797465732E2E2E000A506167653A20000A002E000F
:08283700000000000000000099
:20030600120B6C120B93120B8275DD0075D30075D5002290051AE4F090051CF0227F0074C0
:20032600F925DB50067D077E008004ADDB7E008F037C00C3EB9DEC64808EF063F08095F0DD
:20034600501CEF2413FDE43405FEEF2425F582E43404F583E0FC8D828E83F00F80C1227FCD
:20036600008F057E00C3ED9407EE9400501CEF2425FDE43404FEEF2413F582E43405F583AB
:20038600E0FC8D828E83F00F80D790000722900427E0FF90051DF0E020E047900513E0FC65
:2003A600A3E0FDA3E0FEA3E0FFBCB036BD0433BE0030BF002D75E200C2AF758900750C00FD
:2003C600750D3890C350121AB690C350121AB6AE0CAF0DC007C0068E828F83120049D006FD
:2003E600D007227F0090051DE060027F018F822290051CE0701890051EE0FFE060108FD579
:2004060053D4FC90051C7401F090051EE4F022AF8290051DE060617D007E0090051CE06084
:20042600240DBD00010E900005C007C006C005121AB6D005D006D007C3ED9450EE94C34055
:20044600DA7582002290051EE0FEBE400050207D0074402EFEE43DFDEE2435F582ED340446
:20046600F583EFF090051EE02401F075820122C0071203F6D007809F75820022AFF0AE83AC
:20048600E582900422F0EEA3F0EFA3F090051DE07003020558900420E0FEA3E0FFC3E49E89
:2004A60074808FF063F08095F040030205587E007F0090051CE060200EBE00010F9000054A
:2004C600C007C006121AB6D006D007C3EE9450EF94C340DE75820022900422E0FDA3E0FED4
:2004E600A3E0FF900420E0FBA3E0FCC3E49B74808CF063F08095F0509C90051EE0FABA40E9
:200506000050498A017A00744029F9E43AFAE92435F9EA3404FA8D828E838FF01226AAF879
:20052600A3AD82AE83900422EDF0EEA3F0EFA3F089828A83E8F090051EE02401F01BBBFFAF
:20054600011C900420EBF0ECA3F0809F1203F602049B7582002290051AE0F5822290051AAF
:20056600E07003F5822290051BE02435F582E43404F583E0FF90051BE004F090051AE0148F
:20058600F0E0700353D4F38F822275D50074FC55D44402F5D490051CE4F02230DE19900570
:1805A6001AE5DBF090051BE4F090051AE0600874F355D44408F5D42231
:0C283F0000E100000000080000000000A4
:2027720012011001EF020108091250C5010101020301120009024B000201008064080B008E
:20279200020202010409040000010202010405240010010524010000042402020524060046
:2027B200010705810308004009040100020A00000407050202400000070582024000004BA5
:2027D200000403090404000C03430048003500350078000C001603430048003500350078C1
:2027F200006400750069006E006F001600160343004400430020005300650072006900619B
:15281200006C0016000E0344006500710069006E0067000E00B8
:0300AD00751400C7
:2005BE00AFDBBF080280030209DA90042CE0FE7F0090042BE0FD7C004FF50EEC4EF50F7F1E
:2005DE0000900426E0F5108F14900425E0FE546060508E045304607D00BC2005BD000280DA
:2005FE000BBC4039BD00367FFF0209DC7420B510030209DC7421B5100280077422B51018AC
:20061E00800C120365AC82AD838C070209DCC007120394D0070209DC7FFF0209DC7FFF02CB
:20063E0009DCE51024F450030209D6E510240B83F582E510241083F583E473B8F4D6AED6D7
:20065E00C371D6D0EBDCDC090709080907060907070909900428E0FDBD0102800DBD0202F8
:20067E00801DBD0302802D020751751272751327902784E493FC740193FD8C070207537537
:20069E0012867513279027D1E493FC740193FD8C07020753900427E070157512D3751327DD
:2006BE009027D7E493FC740193FD8C07020753900427E0FDBD011475121775132890282592
:2006DE00E493FC740193FD8C07806A900427E0FDBD02147512E77513279027FDE493FC74E4
:2006FE000193FD8C07804E900427E0FDBD03147512D97513279027E5E493FC740193FD8CCF
:20071E00078032900427E0FDBD04147512FF751327902815E493FC740193FD8C078016757D
:20073E0012D97513279027E5E493FC740193FD8C0780027FFFBFFF030209DC8F047D00C3DF
:20075E00EC950EED950F50048C0E8D0FAC0EAD0FC3EC9408ED940040067A087B008004AA1E
:20077E000EAB0F8A077B00C3EB9F501DEB2425F9E43404FAEB2512F582E43513F583E493D6
:20079E00F889828A83F00B80DE8F027B00ECC39AFCED9BFD8C0E8D0FEF2512F512E435136D
:2007BE00F5130209DC900427E0FD8D0E750F000209DC900425E511F0AC0EAD0FC3EC940135
:2007DE00ED940050030209DC7F010209DC900427E0F5110209DCEE541F702F900428E0FCB9
:2007FE007D00900427E0FB7A004205EA4204BD0114BC001190278DE493FD30E5030209DC81
:20081E007FFF0209DC7FFF0209DC8E0453041F7D00BC0277BD0074900429E0FDBD0102802B
:20083E005FBD02028049BD03028033BD0402801DBD81028040BD8202802ABD83028014BD5E
:20085E00844474BC55DE4402F5DE0209DC53DE730209DC74BC55D64402F5D60209DC53D648
:20087E00730209DC74BC55D44402F5D40209DC53D4730209DC74BC55D24402F5D20209DCE5
:20089E0053D2730209DC7FFF0209DC7FFF0209DCEE541F702F900428E0FC7D00900427E041
:2008BE00FB7A004205EA4204BD0114BC001190278DE493FD30E5030209DC7FFF0209DC7FF4
:2008DE00FF0209DC53061F7D00BE0205BD000280030209B4900428E0FD7E00900427E0FCAB
:2008FE007B004206EB4205EE4D60030209B090042AE0FD7E00900429E0FC7B004206EB42EA
:20091E0005BE0106BD00030209A4BE0205BD00028060BE0305BD00028044BE0405BD00024D
:20093E008028BE8105BD00028052BE8205BD00028036BE8305BD0002801ABE8451BD004E25
:20095E0074BF55DE4403F5DE8074747F55DE440CF5DE806A74BF55D64403F5D68060747F8F
:20097E0055D6440CF5D6805674BF55D44403F5D4804C747F55D4440CF5D4804274BF55D2B4
:20099E004403F5D28038747F55D2440CF5D27FFF802C7FFF80287FFF8024900425E4F090B3
:2009BE000426F0AD0EAE0FC3ED9402EE940040047F02800AAF0E80067FFF80027FFFBFFFF1
:2009DE00077510FF75DCCF22EF24F740068FDD75DCC02275DD0075DCC0227405B5100280F8
:2009FE00637406B5106CAE0EAF0FC3EE9408EF940040067C087D008004AC0EAD0F7D00C300
:200A1E00ED9C501DED2425FAE43404FBED2512F582E43513F583E493F98A828B83F00D8035
:200A3E00DE8C037D00EEC39BFEEF9DFF8E0E8F0FEC2512F512E43513F5138CDDAEDC6306E5
:200A5E00408EDC22E5E35480FFE50E4FF5E375DC022275DD0075DC02227420B5100D30DE47
:200A7E001012032375DD0085DCDC2275DD0043DC022275D30074FC55D24402F5D22220D9C3
:200A9E0003020B47E5D9540FFFADD95305307E00BD0005BE0002801CBD1005BE00028036CF
:200ABE00BD2005BE00028043BD3006BE0003020B2D020B45EF24FB5003020B45EF2F900A08
:200ADE00E073800880618009805D805B120A7780561205A18051EF24FB404CEF2F900AFFB8
:200AFE0073804480428040803E803CEF24FB4037EF2F900B14738008800B800E80298027EF
:200B1E001209F88022120A90801D1205908018EF24FB4013EF2F900B38738008800980071D
:200B3E00800580031205BEC2D930D81575DC0275D21275D41275E300C2DAC2D9C2D81203BD
:200B5E001910DA0122E5DA20E20375D8FF2275E20053E27F43E22975E30053E2BF53D1FB5B
:200B7E0043D1012243E10443E10243E10143D81FD2EAD2AF227E2D7F048EEE8FEF7E357FBA
:1D0B9E00048EE48FE575EB0C75D21275D4127E257F048EEC8FED75EA4075DC022200
:200BBB0090282775F080020BC4AFF0AE83E5829004B5F0EEA3F0EFA3F09004B5E0FDA3E069
:200BDB00FEA3E0FF9004B5E0F5F0A3E045F07003F582227C008D828E838FF01226AAFBA30D
:200BFB00AD82AE839004B5EDF0EEA3F0EFA3F0EBFA601C8A82C007C006C005C004120415A3
:200C1B00E582D004D005D006D00760030C80C69004B5EDF0EEA3F0EFA3F0C0041203F6D07F
:200C3B00048C8222AFF0AE83E5829004B9F0EEA3F0EFA3F09004B9E0FDA3E0FEA3E0FF7C45
:200C5B00009004B8E0FB8B021BEA603A8D828E838FF01226AAFAA3AD82AE839004B9EDF07E
:200C7B00EEA3F0EFA3F08A82C007C006C005C004C003120415E582D003D004D005D006D0BD
:200C9B000760030C80C09004B9EDF0EEA3F0EFA3F08C8222AF82AE83ADF0FC9004BDEFF0FB
:200CBB00EEA3F0EDA3F0ECA3F09004E1E4F09004BCE0FFBF020050069004BC740AF09004B8
:200CDB00BCE0F5157DE17E049004BDE0F516A3E0F517A3E0F518A3E0F51985151A751B0043
:200CFB00751C00751D00851A74851B75851C76851D778516828517838518F0E519C006C011
:200D1B0005121B7CA982851A74851B75851C76851D778516828517838518F0E519C00112ED
:200D3B001BFFAA82AB83ACF0FFD001D005D0069004BDEAF0EBA3F0ECA3F0EFA3F01DBDFF8A
:200D5B00011E8D048E07B90A005008890374302BFB8004743729FB8C828F83EBF09004BD23
:1F0D7B00E0F5F0A3E042F0A3E042F0A3E045F06003020CE37F008D828E838FF0020BC42F
:022827000A00A5
:200D9A00AF829004E2E0FE701D8F058DF005F07401800225E0D5F0FBF4FDAC925CF592ACA7
:200DBA0093ED5CF59322BE021C8F058DF005F07401800225E0D5F0FBFDAC924CF592AC93A8
:200DDA00ED4CF59322BE011D8F058DF005F07401800225E0D5F0FBFDF4AB925BF592AC9329
:200DFA00ED4CF59322BE031B8FF005F07401800225E0D5F0FBFFAE924EF592EFF4FFAE93B3
:200E1A005EF59322AF829004E3E0FE701D8F058DF005F07401800225E0D5F0FBF4FDAC96A8
:200E3A005CF596AC97ED5CF59722BE021C8F058DF005F07401800225E0D5F0FBFDAC964C4E
:200E5A00F596AC97ED4CF59722BE011D8F058DF005F07401800225E0D5F0FBFDF4AB965B98
:200E7A00F596AC97ED4CF59722BE031B8FF005F07401800225E0D5F0FBFFAE964EF596EF8C
:200E9A00F4FFAE975EF59722AF82BF0102800FBF02028013BF03028017BF0425801BE5C693
:200EBA0020E21E539DFB22E5C620E315539DF722E5C630E20C539DFB22E5C630E303539D98
:200EDA00F722AF82BF01097405B5740475820122BF031AE5747004758203227401B57404BE
:200EFA00758204227404B574047582022275820022AF827E0075740A8E758F828E83C00754
:200F1A00C0061226C6AC82AD83D006D007EFC39CF582EE9DF58375740A757500C005C004BA
:200F3A001226FCAE82D004D0058C748E82C006C004120EDCAF82D004D006EFFD600D8D82B1
:200F5A00C006C004120EA2D004D0067F00BE0102800ABE02028009BE030C8008AF90800652
:200F7A00AFA08002AFB0EC5F60047582012275820022AF827E0075740A8E758F828E83C0BE
:200F9A0007C0061226C6AC82AD83D006D007EFC39CF582EE9DF58375740A757500C005C037
:200FBA00041226FCAE82D004D0058C748E82C006C004120EDCAF82D004D006EFFD600D8DAF
:200FDA0082C006C004120EA2D004D006A2AFE433FFC2AFBE0102800DBE0202803EBE030216
:200FFA00806E02109B9004E4E070198C068EF005F07401800225E0D5F0FBF4FEAD905DF519
:20101A009002109B8C068EF005F07401800225E0D5F0FBFEAD904DF59080669004E4E070FD
:20103A00188C068EF005F07401800225E0D5F0FBF4FEADA05DF5A080488C068EF005F0744B
:20105A0001800225E0D5F0FBFEADA04DF5A080319004E4E070188C068EF005F07401800274
:20107A0025E0D5F0FBF4FEADB05DF5B080138CF005F07401800225E0D5F0FBFCAEB04EF5E3
:20109A00B0EF6002D2AF22AF82BF0B047E008019BF0E047E018012BF0F047E02800BBF20DE
:2010BA00047E03800475820022759A0974FC5580FF74035E4FF580D2842084FD859F822240
:2010DA00AF828F057E0075740A8E758D828E83C007C006C0051226C6AB82AC83D005D00646
:2010FA00EDC39BF582EE9CF58375740A757500C004C0031226FCAD82D003D004D007900439
:20111A00E5E0FCA3E0FE4C700A9004E4E4F08F82020F8C8C018E0274FF2A500B9004E474B2
:20113A0001F08F82020F8C8B748D82C007C006C004C002C001120EDCAD82D001D002D00472
:20115A00D006D007ED24FB4034ED2D90116973802C8006800D8014801B53C6FB439D048C3F
:20117A009C2253C6F7439D088C9B2243C604439D048C9C2243C608439D088C9B22C3E99499
:1B119A0080EA9400500A9004E4E4F08F82020F8C9004E47401F08F82020F8C5D
:2011B500758203121B1075FB021211C7021594C29422D29422AF82BFAB02800BC0071213C8
:2011D50076E582D00770F5C0071211C4D0078F82021B4675829F1211CA900002121AB612DF
:2011F5001B4DAE827F00C007C006121B4DAD82D006D0077C00EF4205EE4204C005C004125F
:2012150011C7D004D0058D828C832275824B1211CA900002121AB6758200121B46758200F4
:20123500121B46758200121B46758200121B46900002121AB67F00BF08005022EF241FFDF7
:20125500E43405FEC007C006C005121B4DAC82D005D006D0078D828E83ECF00F80D912115B
:20127500C790051F75F00022AC82AD83AEF0FF758203C007C006C005C0041211CAD004D0BB
:2012950005D0068E82C006C005C004121B46D004D0058D82C005C004121B46D004D005D05F
:2012B50006D0078C82121B46900002121AB6121B4DAF82C0071211C7D0078F8222AC82AD06
:2012D50083AEF0FF75820BC007C006C005C0041211CAD004D005D0068E82C006C005C004F6
:2012F500121B46D004D0058D82C005C004121B46D004D005D006D0078C82121B46758200E4
:20131500121B467E007F00C3EE9524EF95255036AB21AC22AD23EE2BFBEF3CFCC007C0067D
:20133500C005C004C003121B4DAA82D003D004D005D006D0078B828C838DF0EA121C640E5A
:20135500BE00C40F80C10211C71211C4758205121B46121B4DAF82C0071211C7D0078F8232
:201375002212135EE58213E433F582227582061211CA0211C7AC82AD83AEF0FFC007C0063D
:20139500C005C0041213817582021211CAD004D005D0068E82C006C005C004121B46D004FE
:2013B500D0058D82C005C004121B46D004D005D006D0078C82121B46852682121B460211AE
:2013D500C785822C85832D85F02EF52FA82CE4F9FAFBC398F532740199F533E4F534F5356D
:2013F500E52A452B700122C3E532952AE533952B4006AA2AAB2B8004AA32AB338A308B31B1
:201415001213817582021211CA852E82121B46852D82121B46852C82121B4678007900C382
:20143500E89530E995315031AD27AE28AF29E82534FBE93535FCEB2DFDEC3EFE8D828E8350
:201455008FF01226AAF582C001C000121B46D000D00108B800C90980C61211C7AA30AB3192
:20147500E4FEFFEA252CF52CEB352DF52DEE352EF52EEF352FF52FE5302534F534E53135DE
:2014950035F535E52AC39530F52AE52B9531F52B8F327533010213F5121381758260121198
:2014B500CA0211C7AC82AD83AEF0FFC007C006C005C0041213817582201211CAD004D0050F
:2014D500D0068E82C006C005C004121B46D004D0058D82C005C004121B46D004D005D0061C
:2014F500D0078C82121B460211C7AC82AD83AEF0FFC007C006C005C0041213817582521293
:2015150011CAD004D005D0068E82C006C005C004121B46D004D0058D82C005C004121B46D6
:20153500D004D005D006D0078C82121B460211C7AC82AD83AEF0FFC007C006C005C00412C2
:2015550013817582D81211CAD004D005D0068E82C006C005C004121B46D004D0058D82C05D
:2015750005C004121B46D004D005D006D0078C82121B460211C77582B91211CA0211C7757D
:0815950082AB1211CA0211C75A
:08284B00000000000000000085
:20159D009004E37401F0758201120E1E9004E37401F0758200120E1E9004E37401F0758238
:2015BD0004120E1E9004E37401F0758203020E1EE582900508F0900507E02427FEE43405F2
:2015DD00FF90052AE08E828F83F0900508E0FD7C00BC1900502DEC75F002A4FAABF0242A1C
:2015FD00F8EB3405F988828983A3E0F9B50511EA242AF582EB3405F583E0FB8E828F83F024
:20161D000C80CE229004E47401F075821F120F8C9004E47401F075821E120F8C9004E47406
:20163D0001F0758222020F8CE582900509F0E0FFBF1E259004E47401F075821F120F8C90E0
:20165D0004E4E4F075821E120F8C9004E47401F0758222120F8C8026BF1F239004E4E4F059
:20167D0075821F120F8C9004E47401F075821E120F8C9004E47401F0758222120F8C9005B3
:20169D0009E0FFBF22239004E47401F075821F120F8C9004E47401F075821E120F8C90046E
:2016BD00E4E4F0758222120F8C900001021AD49004E4E4F0758221020F8C9004E47401F030
:2016DD00758221020F8C1216211216CC900527E0F582121B461216D775821F1216451216CB
:2016FD00211216CC900528E0F582121B461216D775821E1216451216211216CC900529E0D5
:20171D00F582121B461216D7758222021645900527E4F0900528F0900529F022AE82AF83DE
:20173D00C007C006C006C0077429C0E07428C0E07480C0E07436C0E07400C0E07440C0E0B3
:20175D00121DA2E58124F8F581D006D007C3EE940AEF64809480500D8E059005077402F0CE
:20177D008D820215CDC3EE9464EF6480948050189005077402F08537821215CD900507741D
:20179D0001F08536820215CDC3EE94E8EF6480948350239005077402F08538821215CD90CB
:2017BD0005077401F08537821215CD900507E4F08536820215CD02172B85823C85833D8587
:2017DD00F03EAA39AB3AAC3B8A828B838CF01226AAF990050AE0F8C3E998400A8A828B837F
:2017FD008CF0E4121C648A828B838CF01226AA253CF9E4353DFEAF3E89828E838FF01226F4
:20181D00AAF9900507E4F08982C004C003C002C0001215CDD000D002D003D0048A828B832D
:20183D008CF01226AAFF7E000FBF00010E7D00C3EF98EE64808DF063F08095F050298A82E0
:20185D008B838CF01226AAFF7E000FBF00010EEF253CF9EE353DFEAF3E89828E838FF01264
:20187D0026AAF97F00800479207F009005077401F08982C005C004C003C002C0001215CD99
:20189D00D000D002D003D004D0058A828B838CF01226AAFF7E0074022FFFE43EFEC3EF980A
:2018BD00EE64808DF063F08095F0502B8A828B838CF01226AAFF7E0074022FFFE43EFEEF41
:2018DD00253CFFEE353DFEAD3E8F828E838DF01226AAFE7F0080047E207F00900507740291
:2018FD00F08E82C004C003C0021215CDD002D003D0048A828B838CF01226AAFF0F8A828BF8
:20191D00838CF0EF021C64AD82AE83AFF0C007C006C00512172BD005D006D0078D828E83F3
:20193D008FF01226AAFC24F650030219CBEC240A83F582EC240E83F583E4736C6C6C7B7B1C
:20195D00949494B4B419191919191919191919EC2427F582E43405F5837401F080708C0325
:20197D0074FE2BF5F005F07401800225E0D5F0FBFB900529F080578C03EB24FBFBC3E49BC1
:20199D00FB0B0BEB3395E0FAEB2427F582EA3405F5837408F0803774FC2CF5F005F0740136
:2019BD00800225E0D5F0FBFC900527F080208D828E838FF0E4121C648D828E838FF012268F
:2019DD00AAFC2427F582E43405F5837401F08D828E838FF01226AAFC0C8D828E838FF0EC74
:0319FD00021C6465
:0328290025640023
:2028530000000000203F3006315B324F3366346D357D3607377F386F3977417C4239435EB4
:15287300447945714673501069546E58637468402D015E085FCF
:0600B000751E00751F0023
:201A00009004E3E4F0758202120E1E9004E2E4F0758201020D9A751E0175820B1210A1AF51
:201A200082C374509FE433F58222E51E601475820B1210A1AF82BF0A005007751E00758237
:201A4000012275820022751F017582201210A1AF82C374509FE433F58222E51F6014758265
:201A6000201210A1AF82BF0A005007751F007582012275820022121A16E5826007121A46E9
:201A8000E58270047F0080027F018F8222121A2AE5826007121A5AE58270047F0080027FB2
:041AA000018F82220E
:201AA40075A15575A1AA74F855B94406F5B975A10022AE82AF83EE4F601505A105A105A147
:201AC40005A105A105A105A11EBEFF011F80E722AE82AF83EE4F60159003E8C007C00612B8
:201AE4001AB6D006D0071EBEFF011F80E722AE82AF8310990280FB8E998E828F8322109846
:0C1B04000280FBAE997F008E828F83224E
:201B1000AF8253FC7FEF700A74F555FA4460F5FA800BBF030874FD55FA4468F5FA53FA7F86
:201B300053920F4393B05393BF2243FC5043FA01E5F875F8FF228582F930FBFD2275F9FF65
:201B500030FBFD85F9822243FC80741D55FA4401F5FA53920F53930F22AF8220FCFDC2FC45
:0C1B70008FF92220FCFDC2FC85F98222C6
:201B7C00F9E57445754576457760777800C308E57720E73BE57425E0F574E57533F575E56B
:201B9C007633F576E57733F577E5829574E5839575E5F09576E9957750D4C3E57713F577A1
:201BBC00E57613F576E57513F575E57413F574E5829574FCE5839575FDE5F09576FEE9954D
:201BDC00774007F98EF08D838C82C3E57713F577E57613F576E57513F575E57413F574D89B
:031BFC00CEE9220D
:201BFF00FB7A20E4FCFDFEFFE5822582F582E58333F583E5F033F5F0EB33FB4017DAE9801F
:201C1F0042E5822582F582E58333F583E5F033F5F0EB33FBEC33FCED33FDEE33FEEF33FF4D
:201C3F00EC9574ED9575EE9576EF95774013EC9574FCED9575FDEE9576FEEF9577FF4382B7
:051C5F0001DABEEB22DA
:06007A00E478FFF6D8FD5A
:200058007951E94400601B7A01902837780B75A005E493F2A308B8000205A0D9F4DAF2758E
:02007800A0FFE7
:1B1C640020F71130F6138883A88220F509F6A8837583002280FEF280F5F0227F
:201C7F00E574457560467A01E57425E0F574E575334012F575E5829574E583957540030AD2
:201C9F0080E6C3E57513F575E57413F574C3E5829574F5F0E58395754005F58385F082C34F
:0D1CBF00E57513F575E57413F574DAE1228F
:201CCC007A10E4FBFCE58225E0F582E58333F583EB33FBEC33FCEB9574F5F0EC9575400654
:091CEC00FCABF0438201DADD22B9
:200080007800E84400600A790075A004E4F309D8FC780BE84401600C7902900400E4F0A36A
:0400A000D8FCD9FAB5
:201CF500C046858146C082058105810581E54624FBF8A9460909E6F70809E6F70809E6F7AD
:201D1500A846080886820886830886F01226AAFAA31226AAFBA31226AAFF74012AFCE43B7F
:201D3500FD8F06A846080886820886830886F0EC121C64A3ED121C64A3EE121C648A828B0D
:201D5500838FF0A84608E6121C64854681D0462285824385834485F04575544375550075DF
:201D75005640853F5785405885415985425A901CF5121E8DAE82AF83AB43AC44AD458B82A3
:201D95008C838DF0E4121C648E828F8322C046E581F54624F8FF8F5AE54624FBFF8F54759C
:201DB5005500755640E54624F8F88657088658088659901CF5121E8DAE82AF83E54624FBBB
:1A1DD500F886030886040886058B828C838DF0E4121C648E828F83D04622E5
:02004900E4735E
:201DEF00AF82C04AC04BC04C121DFC8007C048C0498F82221581158115810552E4B5520286
:201E0F00055322AF8274302FFF24C6500B74072FFFE54760034307208F82021DEFE582FFCA
:201E2F00C4540FF582C007121E12D007740F5FF582021E12858274AB4DAC4EAD4FAE50AA79
:201E4F00517576208A07EF2FF575EE2354014575FAEB2BFBEC33FCED33FDEE33FEC3EA953A
:201E6F00744008EAC39574FA430301E57614FF8F7670D18B4D8C4E8D4F8E508A512285827C
:201E8F004885834985544A85554B85564CE4F552F553AD57AE58AF598D828E838FF01226CF
:201EAF00AAFC74012DF557E43EF5588F59ECFF700302266EBF250280030226667E007D0042
:201ECF008E5B8E5C7A007B008E5D7C008E5EE4F566F567755FFF7560FF8557688558698587
:201EEF00596A856882856983856AF01226AAF56BA3858268858369856857856958856A59BA
:201F0F007425B56B08856B82121DEF808574D0256B4003021FCFE56B24C65003021FCF7464
:201F2F00FFB55F55B5605285667485677590000AC006C005C004C003C00212268D85826C5D
:201F4F0085836DD002D003D004D005D006856B6E756F00E56E256CF56EE56F356DF56FE511
:201F6F006E24D0F566E56F34FFF567E56645676003021EF17D01021EF1855F748560759076
:201F8F00000AC006C005C004C003C00212268D85826E85836FD002D003D004D005D00685FA
:201FAF006B6C756D00E56C256EF56EE56D356FF56FE56E24D0F55FE56F34FFF560021EF130
:201FCF00742EB56B1574FFB55F05B560028003021EF1E4F55FF560021EF1749F256B500E45
:201FEF00E56B24854008536BDF75470180037547007420B56B0302209B742BB56B030220A0
:20200F0095742DB56B0280797442B56B030220A17443B56B030220AC7444B56B030222F924
:20202F007446B56B0302230F7448B56B03021EF17449B56B030222F9744AB56B03021EF1A1
:20204F00744CB56B028050744FB56B030223007450B56B030222447453B56B0280767454BE
:20206F00B56B03021EF17455B56B030223057458B56B0302230A745AB56B03021EF10223C2
:20208F00137E01021EF1755B01021EF1755C01021EF17B01021EF1755D01021EF1EB600A03
:2020AF00E55A14F9895A876E800DE55A24FEF56C856C5AA96C876E856E82C006C005C00485
:2020CF00C003C002121DEFD002D003D004D005D006022335E55A24FDF56E856E5AA96E8722
:2020EF006809876909876A191985684D85694E856A4F856882856983856AF0C006C005C086
:20210F0004C003C00212267585826E85836FD002D003D004D005D00674FFB55F09B56006BF
:20212F00856E5F856F60EE704FC3E56E9566E56F95675044E566C3956EF56CE567956FF591
:20214F006D856C68856D69156C74FFB56C02156DE5684569601C758220C006C005C004C019
:20216F0003C002121DEFD002D003D004D005D00680CF856C66856D67855F6C85606D854DD6
:20218F0082854E83854FF01226AAF568856863604FC3E4956C7480856DF063F08095F05030
:2021AF003F156C74FFB56C02156D856382C006C005C004C003C002121DEFD002D003D00463
:2021CF00D005D006854D68854E69854F6A0568E4B56802056985684D85694E856A4F809EE1
:2021EF00EE7003022335C3E56E9566E56F95674003022335E566C3956EF56EE567956FF55E
:20220F006F856E6C856F6D156E74FFB56E02156FE56C456D700302232F758220C006C00575
:20222F00C004C003C002121DEFD002D003D004D005D00680CCE55A24FDF56C856C5AA96C97
:20224F00876809876909876A191985684D85694E856A4F854F64748025645005756C4380F9
:20226F001974A025645005756C50800E74C025645005756C498003756C58856C82C006C094
:20228F0005C004C003C002121DEF75823A121DEF758230121DEF758278121DEFD002D003FD
:2022AF00D004D005D0067449B56C0280217450B56C02801A854E82C006C005C004C003C067
:2022CF0002121E2CD002D003D004D005D006854D82C006C005C004C003C002121E2CD00217
:2022EF00D003D004D005D006803C7A01755E0A8035755E088030755E0A802B755E10802618
:20230F007C018022856B82C006C005C004C003C002121DEFD002D003D004D005D006800681
:20232F00856E66856F67EC6068E55A24FCFC8C5A8C01877009877109877209877319191910
:20234F0085704D85714E85724F857350754D2C754E28754F80854D70854E71854F727401FC
:20236F002570F568E43571F56985726A85684D85694E856A4F8570828571838572F0122650
:20238F00AAFC8C707003021EA1857082121DEF80C4E55E7003021EA1EB603FE55A14F989A9
:2023AF005A87048C7075710075720075730085704D85714E85724F857350EA60030224529F
:2023CF00854D7075710075720075730085704D85714E85724F8573508069E55D6025E55AF4
:2023EF0024FCFC8C5A8C01877009877109877209877319191985704D85714E85724F857333
:20240F00508040E55A24FEFC8C5A8C018703098704198B70ECF5713395E0F572F5738570DD
:20242F004D85714E85724F857350EA7016854D70854E71F572F57385704D85714E85724FDD
:20244F00857350EA602AE55030E723C3E4954DF570E4954EF571E4954FF572E49550F573C7
:20246F0085704D85714E85724F85735080027A007C01797DE4F570F571755100855E82C030
:20248F0006C005C004C002C001121E43D001D002D004D005D006EC700DE551C4F56EE7FBDE
:2024AF00456EF7198002A7510570E4B570020571ECB40100E433FCE54D454E454F455070C8
:2024CF00B88965857061857162E56645677005756601F567ED7043EE7040856670856771FF
:2024EF00AB610B8B6E756F00C3E56E9570E56F95715021758220C006C005C004C002121D9C
:20250F00EFD002D004D005D006157074FFB57002157180CC857066857167EA601D75822D38
:20252F00C006C005C004121DEFD004D005D006156674FFB5660215678046E56145626040C6
:20254F00E55B601D75822BC006C005C004121DEFD004D005D006156674FFB566021567809A
:20256F001FE55C601B758220C006C005C004121DEFD004D005D006156674FFB566021567E7
:20258F00EE703C856670856771AA70AB71157074FFB570021571C3E5619AE5629B5041EDFC
:2025AF0060067A307B0080047A207B008A82C006C005C004121DEFD004D005D00680CAC3E3
:2025CF00E5619566E5629567500FE566C39561F56EE5679562F56F800DE4F56EF56F80063D
:2025EF0085706E85716FA965856170856271AA70AD71157074FFB570021571EA4D602EECBA
:20260F00B40100E433FC700A09E7C4540FFD8D5180078705740F5DF551855182C006C0045C
:20262F00C001121E12D001D004D00680C1EE7003021EA1AD6EAE6F8D038E041DBDFF011E58
:20264F00EB4C7003021EA1758220C006C005121DEFD005D00680E08F82121DEF021EA185C0
:06266F0052828553832214
:0B282C003C4E4F20464C4F41543E00F4
:18267500AA82AB831226AA6003A380F8C3E5829AF582E5839BF58322BB
:1D268D00E5828574F0A4C582C0F08575F0A4D0F025F0C5838574F0A42583F58322CB
:0D004B0075817D122734E5826003020046B6
:1C26AA0020F71430F6148883A88220F507E6A88375830022E280F7E49322E0223F
:2026C600C2D5E58330E70DD2D5E4C39582F582E49583F583E57530E70BE4C39574F574E408
:1626E6009575F575121C7F30D50BE4C39582F582E49583F58322E2
:2026FC00C2D5E58330E70DD2D5E4C39582F582E49583F583E57530E70DB2D5E4C39574F5A1
:18271C0074E49575F575121CCC30D50BE4C39582F582E49583F5832204
:042734007582002288
:00000001FF
