:0400000002004B327D
:01000B0032C2
:0100130032BA
:01001B0032B2
:0100230032AA
:01002B0032A2
:01003300329A
:01003B003292
:030043000200B503
:0800A400750800E4F510F511E8
:0300B20002004603
:0300460002011E96
:2000B500C020C0E0C0F0C082C083C007C006C005C004C003C002C001C000C0D075D0001273
:2000D5000A15D0D0D000D001D002D003D004D005D006D007D083D082D0F0D0E0D02032AFCA
:2000F500827E00C3EE9F501BD2B09000FAC007C006120DCCC2B09000FA120DCCD006D00718
:200115000E80E09003E8020DCC120D90C2B090000A120DCC12027F120359120D84758203C2
:200135001200F41204CCE58270030202711204D3AF82BF610C900F7C75F080120B340202D8
:2001550071BF622D900F8975F080120B34120CFC858210858311AB10AC117D007E0090041C
:20017500087410F08B828C838DF0EE120BA8020271BF63028002807B900F9475F080120B57
:2001950034E4F512F513F514F515C3E5129410E5139400E5149400E5159400504B85128257
:2001B5008513838514F0E515120CA7AA828A0079007A007E009004087410F0888289838AF0
:2001D500F0EE120BA8900FA575F080120B34900002120DCC0512E4B5120C0513B5130705B6
:2001F50014B514A6051580A2900FA775F080120B348069BF6466900FAD75F080120B3412A9
:200215000D34AD82AE83AFF07C00BC08005044EC2DF9E43EFA8F0389828A838BF0120F5CE5
:20023500F879007A007B009004087410F0888289838AF0EBC007C006C005C004120BA8904D
:200255000FA575F080120B34D004D005D006D0070C80B7900FA775F080120B34C2B0120303
:0A0275006690000A120DCC02013859
:200F7C0048656C6C6F20776F726C640A004465766963652049643A0052656164696E6720DE
:1D0F9C00706167652E2E2E0A002E000A456E640A00556E697175652049643A0A0026
:20027F00120AE5120B0C120AFB75DD0075D30075D50022900435E4F0900437F0227F0074AB
:20029F00F925DB50067D077E008004ADDB7E008F037C00C3EB9DEC64808EF063F08095F065
:2002BF005017EF242EFDE43404FE8F82758300E0FC8D828E83F00F80C6227F008F057E0063
:2002DF00C3ED9407EE940050188F057E00EF242EF582E43404F583E0FC8D828E83F00F80F1
:2002FF00DB90000722900002E0FF900438F0E020E04790042EE0FCA3E0FDA3E0FEA3E0FFD6
:20031F00BCB036BD0433BE0030BF002D75E200C2AF75890075160075173890C350120DAEC9
:20033F0090C350120DAEAE16AF17C007C0068E828F83120049D006D007227F00900438E0A0
:20035F0060027F018F8222900437E07018900439E0FFE060108FD553D4FC9004377401F083
:20037F00900439E4F022AF82900438E060617D007E00900437E060240DBD00010E90000565
:20039F00C007C006C005120DAED005D006D007C3ED9450EE94C340DA75820022900439E0E4
:2003BF00FEBE400050207D0074402EFEE43DFDEE2414F582ED3400F583EFF0900439E02451
:2003DF0001F075820122C007120366D007809F75820022AFF0AE83E582900402F0EEA3F064
:2003FF00EFA3F0900438E070030204C8900400E0FEA3E0FFC3E49E74808FF063F08095F06B
:20041F0040030204C87E007F00900437E060200EBE00010F900005C007C006120DAED006E3
:20043F00D007C3EE9450EF94C340DE75820022900402E0FDA3E0FEA3E0FF900400E0FBA32C
:20045F00E0FCC3E49B74808CF063F08095F0509C900439E0FABA400050498A017A007440B8
:20047F0029F9E43AFAE92414F9EA3400FA8D828E838FF0120F5CF8A3AD82AE83900402ED57
:20049F00F0EEA3F0EFA3F089828A83E8F0900439E02401F01BBBFF011C900400EBF0ECA3A8
:2004BF00F0809F12036602040B75820022900435E0F58222900435E07003F58222900436A8
:2004DF00E02414F582E43400F583E0FF900436E004F0900435E014F0E0700353D4F38F8236
:2004FF002275D50074FC55D44402F5D4900437E4F02230DE19900435E5DBF0900436E4F0CA
:0F051F00900435E0600874F355D44408F5D422F5
:0C106E0000E1000000000800000000008D
:200FB90012011001EF020108091250C5010101020301120009024B000201008064080B005F
:200FD900020202010409040000010202010405240010010524010000042402020524060017
:200FF900010705810308004009040100020A00000407050202400000070582024000004B76
:20101900000403090404000C03430048003500350078000C00160343004800350035007891
:20103900006400750069006E006F001600160343004400430020005300650072006900616B
:15105900006C0016000E0344006500710069006E0067000E0089
:0300AC00751E00BE
:20052E00AFDBBF08028003020957900007E0FE7F00900006E0FD7C004FF518EC4EF5197F6F
:20054E0000900001E0F51A8F1E900000E0FE54606053900000E0FE5306607D00BE2005BD47
:20056E000002800BBE4039BD00367FFF0209597420B51A030209597421B51A028007742287
:20058E00B51A18800C1202D9AD82AE838D07020959C007120304D0070209597FFF02095998
:2005AE007FFF020959E51A24F45003020953E51A240B83F582E51A241083F583E47335633E
:2005CE0053235332E4533F5A5959090709080907050907070909900003E0FEBE0102800D72
:2005EE00BE0202801DBE0302802D0206C4751CB9751D0F900FCBE493FD740193FE8D0702ED
:20060E0006C6751CCD751D0F901018E493FD740193FE8D070206C6900002E07015751C1ACB
:20062E00751D1090101EE493FD740193FE8D070206C6900002E0FEBE0114751C5E751D109C
:20064E0090106CE493FD740193FE8D07806A900002E0FEBE0214751C2E751D10901044E41B
:20066E0093FD740193FE8D07804E900002E0FEBE0314751C20751D1090102CE493FD740127
:20068E0093FE8D078032900002E0FEBE0414751C46751D1090105CE493FD740193FE8D07AC
:2006AE008016751C20751D1090102CE493FD740193FE8D0780027FFFBFFF030209598F05B0
:2006CE007E00C3ED9518EE951950048D188E19AD18AE19C3ED9408EE940040067B087C0056
:2006EE008004AB18AC198B077C00C3EC9F50198C027B00EC251CF582E4351DF583E493F950
:20070E008A828B83F00C80E28F037C00EDC39BFDEE9CFE8D188E19EF251CF51CE4351DF5BD
:20072E001D020959900002E0FE8E18751900020959900000E51BF0AD18AE19C3ED9401EEE3
:20074E00940050030209597F01020959900002E0F51B020959900000E0541F702F90000361
:20076E00E0FD7E00900002E0FC7B004206EB4205BE0114BD0011900FD4E493FE30E503020A
:20078E0009597FFF0209597FFF020959900000E0FE53061F7D00BE0277BD0074900004E0E6
:2007AE00FEBE0102805FBE02028049BE03028033BE0402801DBE81028040BE8202802ABE80
:2007CE0083028014BE844474BC55DE4402F5DE02095953DE7302095974BC55D64402F5D618
:2007EE0002095953D67302095974BC55D44402F5D402095953D47302095974BC55D2440220
:20080E00F5D202095953D2730209597FFF0209597FFF020959900000E0541F702F900003CA
:20082E00E0FD7E00900002E0FC7B004206EB4205BE0114BD0011900FD4E493FE30E5030249
:20084E0009597FFF0209597FFF020959900000E0FE53061F7D00BE0205BD000280030209EF
:20086E0031900003E0FD7E00900002E0FC7B004206EB4205EE4D600302092D900005E0FDA0
:20088E007E00900004E0FC7B004206EB4205BE0106BD0003020921BE0205BD00028060BE94
:2008AE000305BD00028044BE0405BD00028028BE8105BD00028052BE8205BD00028036BE24
:2008CE008305BD0002801ABE8451BD004E74BF55DE4403F5DE8074747F55DE440CF5DE804E
:2008EE006A74BF55D64403F5D68060747F55D6440CF5D6805674BF55D44403F5D4804C7475
:20090E007F55D4440CF5D4804274BF55D24403F5D28038747F55D2440CF5D27FFF802C7F4C
:20092E00FF80287FFF8024900000E4F0900001F0AD18AE19C3ED9402EE940040047F028062
:20094E000AAF1880067FFF80027FFFBFFF07751AFF75DCCF22EF24F740068FDD75DCC02230
:20096E0075DD0075DCC0227405B51A02805F7406B51A68AE18AF19C3EE9408EF9400400666
:20098E007C087D008004AC18AD197D00C3ED9C50198D027B00ED251CF582E4351DF583E4C7
:2009AE0093F98A828B83F00D80E28C037D00EEC39BFEEF9DFF8E188F19EC251CF51CE4359E
:2009CE001DF51D8CDDAEDC6306408EDC22E5E35480FFE5184FF5E375DC022275DD0075DCDB
:2009EE0002227420B51A0D30DE1012029C75DD0085DCDC2275DD0043DC022275D30074FC89
:200A0E0055D24402F5D22220D903020AC0E5D9540FFFADD95305307E00BD0005BE000280FC
:200A2E001CBD1005BE00028036BD2005BE00028043BD3006BE0003020AA6020ABEEF24FBA1
:200A4E005003020ABEEF2F900A5973800880618009805D805B1209F080561205118051EF74
:200A6E0024FB404CEF2F900A7873804480428040803E803CEF24FB4037EF2F900A8D73809D
:200A8E0008800B800E802980271209758022120A09801D1205008018EF24FB4013EF2F9025
:200AAE000AB1738008800980078005800312052EC2D930D81575DC0275D21275D41275E3FE
:200ACE0000C2DAC2D9C2D812029210DA0122E5DA20E20375D8FF2275E20053E27F43E229F9
:200AEE0075E30053E2BF53D1FB43D1012243E10443E10243E10143D81FD2EAD2AF227E0AB2
:200B0E007F008EEE8FEF7E147F008EE48FE575EB0C75D21275D4127E007F008EEC8FED75CF
:060B2E00EA4075DC022222
:200B3400AFF0AE83E582900405F0EEA3F0EFA3F0900405E0FDA3E0FEA3E0FF900405E0F5F7
:200B5400F0A3E045F07003F582227C008D828E838FF0120F5CFBA3AD82AE83900405EDF0C1
:200B7400EEA3F0EFA3F0EBFA601C8A82C007C006C005C004120385E582D004D005D006D08B
:200B94000760030C80C6900405EDF0EEA3F0EFA3F08C8222AF82AE83ADF0FC900409EFF065
:200BB400EEA3F0EDA3F0ECA3F090042DE4F0900408E0FFBF02005006900408740AF09004DC
:200BD40008E0F5217D2D7E04900409E0F522A3E0F523A3E0F524A3E0F52585212675270007
:200BF4007528007529008526328527338528348529358522828523838524F0E525C006C0A9
:200C140005120E74A9828526328527338528348529358522828523838524F0E525C00112B2
:200C34000EF7AA82AB83ACF0FFD001D005D006900409EAF0EBA3F0ECA3F0EFA3F01DBDFF5B
:200C5400011E8D048E07B90A005008890374302BFB8004743729FB8C828F83EBF0900409DF
:1F0C7400E0F5F0A3E042F0A3E042F0A3E045F06003020BDC7F008D828E838FF0020B34CF
:0300AF00752A00AF
:200C9300C29422D29422AF82C007120C93D0078F82020E3EAC82AD83AEF0FF758203C007A6
:200CB300C006C005C004120C99D004D005D0068E82C006C005C004120E3ED004D0058D8227
:200CD300C005C004120E3ED004D005D006D0078C82120E3E900002120DAE120E45AF82C0A3
:200CF30007120C96D0078F822275829F120C99900002120DAE120E45AE827F00C007C006CF
:200D1300120E45AD82D006D0077C00EF4205EE4204C005C004120C96D004D0058D828C8395
:200D33002275824B120C99900002120DAE758200120E3E758200120E3E758200120E3E75B2
:200D53008200120E3E900002120DAE7F00BF08005015EF242AF9C007C001120E45E582D03C
:1D0D730001D007F70F80E6120C9690002A75F04022758203120E0875FB02D29422CE
:200D900075A15575A1AA43B94053B97F75A15575A1AA74F855B94406F5B975A10022AE824C
:200DB000AF83EE4F601505A105A105A105A105A105A105A11EBEFF011F80E722AE82AF83CF
:200DD000EE4F60159003E8C007C006120DAED006D0071EBEFF011F80E722AE82AF83109940
:180DF0000280FB8E998E828F832210980280FBAE997F008E828F8322D4
:200E0800AF8253FC7FEF700A74F555FA4460F5FA800BBF030874FD55FA4468F5FA53FA7F9B
:200E280053920F4393B05393BF2243FC5043FA01E5F875F8FF228582F930FBFD2275F9FF7A
:200E480030FBFD85F9822243FC80741D55FA4401F5FA53920F53930F22AF8220FCFDC2FC5A
:0C0E68008FF92220FCFDC2FC85F98222DB
:200E7400F9E53245334534453560777800C308E53520E73BE53225E0F532E53333F533E5D2
:200E94003433F534E53533F535E5829532E5839533E5F09534E9953550D4C3E53513F5354A
:200EB400E53413F534E53313F533E53213F532E5829532FCE5839533FDE5F09534FEE995B4
:200ED400354007F98EF08D838C82C3E53513F535E53413F534E53313F533E53213F532D802
:030EF400CEE92222
:200EF700FB7A20E4FCFDFEFFE5822582F582E58333F583E5F033F5F0EB33FB4017DAE98034
:200F170042E5822582F582E58333F583E5F033F5F0EB33FBEC33FCED33FDEE33FEEF33FF62
:200F3700EC9532ED9533EE9534EF95354013EC9532FCED9533FDEE9534FEEF9535FF4382DC
:050F570001DABEEB22EF
:06007A00E478FFF6D8FD5A
:20005800790CE94400601B7A0190106E782E75A004E493F2A308B8000205A0D9F4DAF27592
:02007800A0FFE7
:200080007800E84400600A790075A004E4F309D8FC782EE84400600C7901900400E4F0A349
:0400A000D8FCD9FAB5
:0F004900E473758135120F78E58260030200467B
:1C0F5C0020F71430F6148883A88220F507E6A88375830022E280F7E49322E022A4
:040F7800758200225C
:00000001FF
